{"contracts/AccessControl.sol":{"AccessControl":{"abi":[{"inputs":[{"internalType":"address","name":"_didRegistry","type":"address"},{"internalType":"address","name":"_credentialStatus","type":"address"}],"stateMutability":"nonpayable","type":"constructor"},{"anonymous":false,"inputs":[{"indexed":false,"internalType":"string","name":"holderDID","type":"string"},{"indexed":false,"internalType":"string","name":"verifierDID","type":"string"},{"indexed":false,"internalType":"bytes32","name":"credentialId","type":"bytes32"},{"indexed":false,"internalType":"uint256","name":"expiresAt","type":"uint256"}],"name":"ConsentGranted","type":"event"},{"anonymous":false,"inputs":[{"indexed":false,"internalType":"string","name":"holderDID","type":"string"},{"indexed":false,"internalType":"string","name":"verifierDID","type":"string"},{"indexed":false,"internalType":"bytes32","name":"credentialId","type":"bytes32"},{"indexed":false,"internalType":"uint256","name":"timestamp","type":"uint256"}],"name":"ConsentRevoked","type":"event"},{"anonymous":false,"inputs":[{"indexed":true,"internalType":"address","name":"issuer","type":"address"},{"indexed":false,"internalType":"string","name":"did","type":"string"},{"indexed":true,"internalType":"address","name":"admin","type":"address"},{"indexed":false,"internalType":"uint256","name":"timestamp","type":"uint256"}],"name":"IssuerAuthorized","type":"event"},{"anonymous":false,"inputs":[{"indexed":true,"internalType":"address","name":"account","type":"address"},{"indexed":false,"internalType":"string","name":"did","type":"string"},{"indexed":false,"internalType":"enum AccessControl.Role","name":"role","type":"uint8"},{"indexed":false,"internalType":"uint256","name":"timestamp","type":"uint256"}],"name":"StakeholderRegistered","type":"event"},{"inputs":[{"internalType":"address","name":"issuerAddress","type":"address"},{"internalType":"string","name":"did","type":"string"}],"name":"authorizeIssuer","outputs":[],"stateMutability":"nonpayable","type":"function"},{"inputs":[],"name":"credentialStatus","outputs":[{"internalType":"contract CredentialStatus","name":"","type":"address"}],"stateMutability":"view","type":"function"},{"inputs":[],"name":"didRegistry","outputs":[{"internalType":"contract DIDRegistry","name":"","type":"address"}],"stateMutability":"view","type":"function"},{"inputs":[{"internalType":"address","name":"account","type":"address"}],"name":"getRole","outputs":[{"internalType":"enum AccessControl.Role","name":"","type":"uint8"}],"stateMutability":"view","type":"function"},{"inputs":[{"internalType":"address","name":"account","type":"address"}],"name":"getStakeholder","outputs":[{"components":[{"internalType":"string","name":"did","type":"string"},{"internalType":"enum AccessControl.Role","name":"role","type":"uint8"},{"internalType":"address","name":"authorizedBy","type":"address"},{"internalType":"uint256","name":"registeredAt","type":"uint256"},{"internalType":"bool","name":"active","type":"bool"}],"internalType":"struct AccessControl.Stakeholder","name":"","type":"tuple"}],"stateMutability":"view","type":"function"},{"inputs":[{"internalType":"string","name":"verifierDID","type":"string"},{"internalType":"bytes32","name":"credentialId","type":"bytes32"},{"internalType":"uint256","name":"expiresAt","type":"uint256"}],"name":"grantConsent","outputs":[],"stateMutability":"nonpayable","type":"function"},{"inputs":[{"internalType":"string","name":"holderDID","type":"string"},{"internalType":"string","name":"verifierDID","type":"string"},{"internalType":"bytes32","name":"credentialId","type":"bytes32"}],"name":"hasConsent","outputs":[{"internalType":"bool","name":"","type":"bool"}],"stateMutability":"view","type":"function"},{"inputs":[{"internalType":"string","name":"did","type":"string"}],"name":"registerAsHolder","outputs":[],"stateMutability":"nonpayable","type":"function"},{"inputs":[{"internalType":"string","name":"did","type":"string"}],"name":"registerAsVerifier","outputs":[],"stateMutability":"nonpayable","type":"function"},{"inputs":[{"internalType":"string","name":"verifierDID","type":"string"},{"internalType":"bytes32","name":"credentialId","type":"bytes32"}],"name":"revokeConsent","outputs":[],"stateMutability":"nonpayable","type":"function"},{"inputs":[],"name":"superAdmin","outputs":[{"internalType":"address","name":"","type":"address"}],"stateMutability":"view","type":"function"}],"evm":{"bytecode":{"linkReferences":{},"object":"60e06040523480156200001157600080fd5b50604051620020753803806200207583398101604081905262000034916200008b565b6001600160a01b039182166080521660a0523360c08190526000908152600160208190526040909120805460ff19169091179055620000c3565b80516001600160a01b03811681146200008657600080fd5b919050565b600080604083850312156200009f57600080fd5b620000aa836200006e565b9150620000ba602084016200006e565b90509250929050565b60805160a05160c051611f5262000123600039600060b30152600081816101fe01528181610c6601528181610d7a01526110bf01526000818161013301528181610388015281816106ae01528181610a4001526111670152611f526000f3fe608060405234801561001057600080fd5b50600436106100a95760003560e01c80637f8d3a3c116100715780637f8d3a3c1461018a578063822f96ec1461019d578063902827ef146101b057806393151dd5146101d3578063963bce87146101e6578063e2631fb4146101f957600080fd5b806329575f6a146100ae57806344276733146100f2578063577f9fb11461012e57806362afde251461015557806373835bbc14610175575b600080fd5b6100d57f000000000000000000000000000000000000000000000000000000000000000081565b6040516001600160a01b0390911681526020015b60405180910390f35b6101216101003660046115c4565b6001600160a01b031660009081526020819052604090206001015460ff1690565b6040516100e99190611619565b6100d57f000000000000000000000000000000000000000000000000000000000000000081565b6101686101633660046115c4565b610220565b6040516100e9919061167d565b6101886101833660046117ce565b610371565b005b61018861019836600461180b565b6105c6565b6101886101ab36600461185b565b6109b1565b6101c36101be3660046118a9565b61102c565b60405190151581526020016100e9565b6101886101e13660046117ce565b611150565b6101886101f4366004611916565b61138e565b6100d57f000000000000000000000000000000000000000000000000000000000000000081565b6102536040805160a081019091526060815260208101600081526000602082018190526040820181905260609091015290565b6001600160a01b03821660009081526020819052604090819020815160a081019092528054829082906102859061195b565b80601f01602080910402602001604051908101604052809291908181526020018280546102b19061195b565b80156102fe5780601f106102d3576101008083540402835291602001916102fe565b820191906000526020600020905b8154815290600101906020018083116102e157829003601f168201915b5050509183525050600182015460209091019060ff166003811115610325576103256115e1565b6003811115610336576103366115e1565b8152600182015461010090046001600160a01b031660208201526002820154604082015260039091015460ff16151560609091015292915050565b604051631064eb9d60e11b81526001600160a01b037f000000000000000000000000000000000000000000000000000000000000000016906320c9d73a906103bd908490600401611995565b602060405180830381865afa1580156103da573d6000803e3d6000fd5b505050506040513d601f19601f820116820180604052508101906103fe91906119a8565b6104235760405162461bcd60e51b815260040161041a906119ca565b60405180910390fd5b3360009081526020819052604090206003015460ff16156104565760405162461bcd60e51b815260040161041a906119ff565b60006104618261157c565b6000818152600260205260409020549091506001600160a01b0316156104995760405162461bcd60e51b815260040161041a90611a40565b6040805160a081018252838152600160208083018290526000838501819052426060850152608084019290925233825281905291909120815181906104de9082611ad0565b50602082015160018083018054909160ff1990911690836003811115610506576105066115e1565b0217905550604082810151600180840180546001600160a01b0390931661010002610100600160a81b03199093169290921790915560608401516002808501919091556080909401516003909301805493151560ff199094169390931790925560008481526020939093529182902080546001600160a01b0319163390811790915591517fefe0ed7b84aeca0b627ee9959efb026ae6abbbd4d68485f6b13bf0d872996a2d916105ba918691904290611b90565b60405180910390a25050565b3360009081526001602052604090205460ff166106335760405162461bcd60e51b815260206004820152602560248201527f416363657373436f6e74726f6c3a2043616c6c6572206973206e6f7420616e2060448201526430b236b4b760d91b606482015260840161041a565b6001600160a01b0382166106975760405162461bcd60e51b815260206004820152602560248201527f416363657373436f6e74726f6c3a20696e76616c696420697373756572206164604482015264647265737360d81b606482015260840161041a565b604051631064eb9d60e11b81526001600160a01b037f000000000000000000000000000000000000000000000000000000000000000016906320c9d73a906106e3908490600401611995565b602060405180830381865afa158015610700573d6000803e3d6000fd5b505050506040513d601f19601f8201168201806040525081019061072491906119a8565b6107405760405162461bcd60e51b815260040161041a906119ca565b600061074b8261157c565b6000818152600260205260409020549091506001600160a01b03168015806107845750836001600160a01b0316816001600160a01b0316145b6107a05760405162461bcd60e51b815260040161041a90611a40565b6001600160a01b03841660009081526020819052604090206003015460ff16158061080c57508280519060200120600080866001600160a01b03166001600160a01b031681526020019081526020016000206000016040516108029190611c33565b6040518091039020145b61087e5760405162461bcd60e51b815260206004820152603a60248201527f416363657373436f6e74726f6c3a20697373756572206164647265737320616c60448201527f726561647920626f756e6420746f20616e6f7468657220444944000000000000606482015260840161041a565b6040805160a08101825284815260026020808301919091523382840152426060830152600160808301526001600160a01b03871660009081529081905291909120815181906108cd9082611ad0565b50602082015160018083018054909160ff19909116908360038111156108f5576108f56115e1565b0217905550604082810151600183018054610100600160a81b0319166101006001600160a01b039384160217905560608401516002808501919091556080909401516003909301805460ff19169315159390931790925560008581526020939093529182902080546001600160a01b031916918716918217905590513391907fb65fdc917fc7876268373dacdfffb722b5158dc0086b42b186949d1ed516e36a906109a39087904290611c3f565b60405180910390a350505050565b3360009081526020819052604090206003015460ff166109e35760405162461bcd60e51b815260040161041a90611c61565b33600090815260208190526040902060018082015460ff166003811115610a0c57610a0c6115e1565b14610a295760405162461bcd60e51b815260040161041a90611ca8565b604051631064eb9d60e11b81526001600160a01b037f000000000000000000000000000000000000000000000000000000000000000016906320c9d73a90610a75908790600401611995565b602060405180830381865afa158015610a92573d6000803e3d6000fd5b505050506040513d601f19601f82011682018060405250810190610ab691906119a8565b610b145760405162461bcd60e51b815260206004820152602960248201527f416363657373436f6e74726f6c3a20766572696669657220444944206973206e6044820152686f742061637469766560b81b606482015260840161041a565b600060026000610b238761157c565b81526020810191909152604001600020546001600160a01b0316905080610b9b5760405162461bcd60e51b815260206004820152602660248201527f416363657373436f6e74726f6c3a207665726966696572206e6f7420726567696044820152651cdd195c995960d21b606482015260840161041a565b6001600160a01b03811660009081526020819052604090206003015460ff168015610bf5575060036001600160a01b03821660009081526020819052604090206001015460ff166003811115610bf357610bf36115e1565b145b610c4d5760405162461bcd60e51b8152602060048201526024808201527f416363657373436f6e74726f6c3a20696e76616c696420766572696669657220604482015263726f6c6560e01b606482015260840161041a565b604051632ca4faff60e11b8152600481018590526000907f00000000000000000000000000000000000000000000000000000000000000006001600160a01b031690635949f5fe90602401600060405180830381865afa158015610cb5573d6000803e3d6000fd5b505050506040513d6000823e601f3d908101601f19168201604052610cdd9190810190611d42565b604051909150610cee908490611c33565b604051809103902081602001518051906020012014610d645760405162461bcd60e51b815260206004820152602c60248201527f416363657373436f6e74726f6c3a20686f6c646572206e6f742063726564656e60448201526b1d1a585b081cdd589a9958dd60a21b606482015260840161041a565b604051634294857f60e01b8152600481018690527f00000000000000000000000000000000000000000000000000000000000000006001600160a01b031690634294857f90602401602060405180830381865afa158015610dc9573d6000803e3d6000fd5b505050506040513d601f19601f82011682018060405250810190610ded91906119a8565b15610e445760405162461bcd60e51b815260206004820152602160248201527f416363657373436f6e74726f6c3a2063726564656e7469616c207265766f6b656044820152601960fa1b606482015260840161041a565b831580610e5057504284115b610e9c5760405162461bcd60e51b815260206004820152601d60248201527f416363657373436f6e74726f6c3a20696e76616c696420657870697279000000604482015260640161041a565b604051600090610eb490859089908990602001611e05565b6040516020818303038152906040528051906020012090506040518060a00160405280856000018054610ee69061195b565b80601f0160208091040260200160405190810160405280929190818152602001828054610f129061195b565b8015610f5f5780601f10610f3457610100808354040283529160200191610f5f565b820191906000526020600020905b815481529060010190602001808311610f4257829003601f168201915b505050918352505060208082018a905260408083018a9052606083018990526001608090930192909252600084815260039091522081518190610fa29082611ad0565b5060208201516001820190610fb79082611ad0565b506040828101516002830155606083015160038301556080909201516004909101805460ff1916911515919091179055517f67be6cb4bf0bdc400af0c61cc4ed9d056f87d62a9cb7838a607984dc42fbc4479061101b9086908a908a908a90611e30565b60405180910390a150505050505050565b60008084848460405160200161104493929190611eda565b60408051601f19818403018152918152815160209283012060008181526003909352912060048101549192509060ff1661108357600092505050611149565b6003810154158015906110995750806003015442115b156110a957600092505050611149565b604051634294857f60e01b8152600481018590527f00000000000000000000000000000000000000000000000000000000000000006001600160a01b031690634294857f90602401602060405180830381865afa15801561110e573d6000803e3d6000fd5b505050506040513d601f19601f8201168201806040525081019061113291906119a8565b1561114257600092505050611149565b6001925050505b9392505050565b604051631064eb9d60e11b81526001600160a01b037f000000000000000000000000000000000000000000000000000000000000000016906320c9d73a9061119c908490600401611995565b602060405180830381865afa1580156111b9573d6000803e3d6000fd5b505050506040513d601f19601f820116820180604052508101906111dd91906119a8565b6111f95760405162461bcd60e51b815260040161041a906119ca565b3360009081526020819052604090206003015460ff161561122c5760405162461bcd60e51b815260040161041a906119ff565b60006112378261157c565b6000818152600260205260409020549091506001600160a01b03161561126f5760405162461bcd60e51b815260040161041a90611a40565b6040805160a08101825283815260036020808301919091526000828401819052426060840152600160808401523381529081905291909120815181906112b59082611ad0565b50602082015160018083018054909160ff19909116908360038111156112dd576112dd6115e1565b02179055506040828101516001830180546001600160a01b0390921661010002610100600160a81b031990921691909117905560608301516002808401919091556080909301516003928301805491151560ff1990921691909117905560008481526020939093529182902080546001600160a01b0319163390811790915591517fefe0ed7b84aeca0b627ee9959efb026ae6abbbd4d68485f6b13bf0d872996a2d916105ba918691904290611b90565b3360009081526020819052604090206003015460ff166113c05760405162461bcd60e51b815260040161041a90611c61565b33600090815260208190526040902060018082015460ff1660038111156113e9576113e96115e1565b146114065760405162461bcd60e51b815260040161041a90611ca8565b60405160009061141e90839086908690602001611e05565b60408051601f19818403018152918152815160209283012060008181526003909352912060048101549192509060ff166114a45760405162461bcd60e51b815260206004820152602160248201527f416363657373436f6e74726f6c3a20636f6e73656e74206e6f742061637469766044820152606560f81b606482015260840161041a565b6040516114b2908490611c33565b604051908190038120906114c7908390611c33565b60405180910390201461152b5760405162461bcd60e51b815260206004820152602660248201527f416363657373436f6e74726f6c3a20756e617574686f72697a6564207265766f60448201526531b0ba34b7b760d11b606482015260840161041a565b60048101805460ff191690556040517f8b681dd6d55c9cd7e916d69d6dca95e8c864037b55ec900da7f8f73f67d7361f9061156d908590889088904290611e30565b60405180910390a15050505050565b60008160405160200161158f9190611f00565b604051602081830303815290604052805190602001209050919050565b6001600160a01b03811681146115c157600080fd5b50565b6000602082840312156115d657600080fd5b8135611149816115ac565b634e487b7160e01b600052602160045260246000fd5b6004811061161557634e487b7160e01b600052602160045260246000fd5b9052565b6020810161162782846115f7565b92915050565b60005b83811015611648578181015183820152602001611630565b50506000910152565b6000815180845261166981602086016020860161162d565b601f01601f19169290920160200192915050565b602081526000825160a0602084015261169960c0840182611651565b905060208401516116ad60408501826115f7565b5060018060a01b036040850151166060840152606084015160808401526080840151151560a08401528091505092915050565b634e487b7160e01b600052604160045260246000fd5b60405160c0810167ffffffffffffffff81118282101715611719576117196116e0565b60405290565b604051601f8201601f1916810167ffffffffffffffff81118282101715611748576117486116e0565b604052919050565b600067ffffffffffffffff82111561176a5761176a6116e0565b50601f01601f191660200190565b600082601f83011261178957600080fd5b813561179c61179782611750565b61171f565b8181528460208386010111156117b157600080fd5b816020850160208301376000918101602001919091529392505050565b6000602082840312156117e057600080fd5b813567ffffffffffffffff8111156117f757600080fd5b61180384828501611778565b949350505050565b6000806040838503121561181e57600080fd5b8235611829816115ac565b9150602083013567ffffffffffffffff81111561184557600080fd5b61185185828601611778565b9150509250929050565b60008060006060848603121561187057600080fd5b833567ffffffffffffffff81111561188757600080fd5b61189386828701611778565b9660208601359650604090950135949350505050565b6000806000606084860312156118be57600080fd5b833567ffffffffffffffff808211156118d657600080fd5b6118e287838801611778565b945060208601359150808211156118f857600080fd5b5061190586828701611778565b925050604084013590509250925092565b6000806040838503121561192957600080fd5b823567ffffffffffffffff81111561194057600080fd5b61194c85828601611778565b95602094909401359450505050565b600181811c9082168061196f57607f821691505b60208210810361198f57634e487b7160e01b600052602260045260246000fd5b50919050565b6020815260006111496020830184611651565b6000602082840312156119ba57600080fd5b8151801515811461114957600080fd5b6020808252818101527f416363657373436f6e74726f6c3a20444944206973206e6f7420616374697665604082015260600190565b60208082526021908201527f416363657373436f6e74726f6c3a20616c7265616479207265676973746572656040820152601960fa1b606082015260800190565b60208082526021908201527f416363657373436f6e74726f6c3a2044494420616c726561647920696e2075736040820152606560f81b606082015260800190565b601f821115611acb57600081815260208120601f850160051c81016020861015611aa85750805b601f850160051c820191505b81811015611ac757828155600101611ab4565b5050505b505050565b815167ffffffffffffffff811115611aea57611aea6116e0565b611afe81611af8845461195b565b84611a81565b602080601f831160018114611b335760008415611b1b5750858301515b600019600386901b1c1916600185901b178555611ac7565b600085815260208120601f198616915b82811015611b6257888601518255948401946001909101908401611b43565b5085821015611b805787850151600019600388901b60f8161c191681555b5050505050600190811b01905550565b606081526000611ba36060830186611651565b9050611bb260208301856115f7565b826040830152949350505050565b60008154611bcd8161195b565b60018281168015611be55760018114611bfa57611c29565b60ff1984168752821515830287019450611c29565b8560005260208060002060005b85811015611c205781548a820152908401908201611c07565b50505082870194505b5050505092915050565b60006111498284611bc0565b604081526000611c526040830185611651565b90508260208301529392505050565b60208082526027908201527f416363657373436f6e74726f6c3a2043616c6c6572206973206e6f74207265676040820152661a5cdd195c995960ca1b606082015260800190565b60208082526025908201527f416363657373436f6e74726f6c3a2063616c6c6572206973206e6f742061206860408201526437b63232b960d91b606082015260800190565b8051611cf8816115ac565b919050565b600082601f830112611d0e57600080fd5b8151611d1c61179782611750565b818152846020838601011115611d3157600080fd5b61180382602083016020870161162d565b600060208284031215611d5457600080fd5b815167ffffffffffffffff80821115611d6c57600080fd5b9083019060c08286031215611d8057600080fd5b611d886116f6565b611d9183611ced565b8152602083015182811115611da557600080fd5b611db187828601611cfd565b60208301525060408301516040820152606083015182811115611dd357600080fd5b611ddf87828601611cfd565b6060830152506080830151608082015260a083015160a082015280935050505092915050565b6000611e118286611bc0565b8451611e2181836020890161162d565b01928352505060200192915050565b608081526000808654611e428161195b565b80608086015260a0600180841660008114611e645760018114611e7e57611eaf565b60ff1985168884015283151560051b880183019550611eaf565b8b60005260208060002060005b86811015611ea65781548b8201870152908401908201611e8b565b8a018501975050505b50505050508281036020840152611ec68187611651565b604084019590955250506060015292915050565b60008451611eec81846020890161162d565b845190830190611e2181836020890161162d565b60008251611f1281846020870161162d565b919091019291505056fea2646970667358221220a1b285dfaf9d63cefa81babddc0c03335521525b54b66be40c2620991cbcdd7864736f6c63430008140033","opcodes":"PUSH1 0xE0 PUSH1 0x40 MSTORE CALLVALUE DUP1 ISZERO PUSH3 0x11 JUMPI PUSH1 0x0 DUP1 REVERT JUMPDEST POP PUSH1 0x40 MLOAD PUSH3 0x2075 CODESIZE SUB DUP1 PUSH3 0x2075 DUP4 CODECOPY DUP2 ADD PUSH1 0x40 DUP2 SWAP1 MSTORE PUSH3 0x34 SWAP2 PUSH3 0x8B JUMP JUMPDEST PUSH1 0x1 PUSH1 0x1 PUSH1 0xA0 SHL SUB SWAP2 DUP3 AND PUSH1 0x80 MSTORE AND PUSH1 0xA0 MSTORE CALLER PUSH1 0xC0 DUP2 SWAP1 MSTORE PUSH1 0x0 SWAP1 DUP2 MSTORE PUSH1 0x1 PUSH1 0x20 DUP2 SWAP1 MSTORE PUSH1 0x40 SWAP1 SWAP2 KECCAK256 DUP1 SLOAD PUSH1 0xFF NOT AND SWAP1 SWAP2 OR SWAP1 SSTORE PUSH3 0xC3 JUMP JUMPDEST DUP1 MLOAD PUSH1 0x1 PUSH1 0x1 PUSH1 0xA0 SHL SUB DUP2 AND DUP2 EQ PUSH3 0x86 JUMPI PUSH1 0x0 DUP1 REVERT JUMPDEST SWAP2 SWAP1 POP JUMP JUMPDEST PUSH1 0x0 DUP1 PUSH1 0x40 DUP4 DUP6 SUB SLT ISZERO PUSH3 0x9F JUMPI PUSH1 0x0 DUP1 REVERT JUMPDEST PUSH3 0xAA DUP4 PUSH3 0x6E JUMP JUMPDEST SWAP2 POP PUSH3 0xBA PUSH1 0x20 DUP5 ADD PUSH3 0x6E JUMP JUMPDEST SWAP1 POP SWAP3 POP SWAP3 SWAP1 POP JUMP JUMPDEST PUSH1 0x80 MLOAD PUSH1 0xA0 MLOAD PUSH1 0xC0 MLOAD PUSH2 0x1F52 PUSH3 0x123 PUSH1 0x0 CODECOPY PUSH1 0x0 PUSH1 0xB3 ADD MSTORE PUSH1 0x0 DUP2 DUP2 PUSH2 0x1FE ADD MSTORE DUP2 DUP2 PUSH2 0xC66 ADD MSTORE DUP2 DUP2 PUSH2 0xD7A ADD MSTORE PUSH2 0x10BF ADD MSTORE PUSH1 0x0 DUP2 DUP2 PUSH2 0x133 ADD MSTORE DUP2 DUP2 PUSH2 0x388 ADD MSTORE DUP2 DUP2 PUSH2 0x6AE ADD MSTORE DUP2 DUP2 PUSH2 0xA40 ADD MSTORE PUSH2 0x1167 ADD MSTORE PUSH2 0x1F52 PUSH1 0x0 RETURN INVALID PUSH1 0x80 PUSH1 0x40 MSTORE CALLVALUE DUP1 ISZERO PUSH2 0x10 JUMPI PUSH1 0x0 DUP1 REVERT JUMPDEST POP PUSH1 0x4 CALLDATASIZE LT PUSH2 0xA9 JUMPI PUSH1 0x0 CALLDATALOAD PUSH1 0xE0 SHR DUP1 PUSH4 0x7F8D3A3C GT PUSH2 0x71 JUMPI DUP1 PUSH4 0x7F8D3A3C EQ PUSH2 0x18A JUMPI DUP1 PUSH4 0x822F96EC EQ PUSH2 0x19D JUMPI DUP1 PUSH4 0x902827EF EQ PUSH2 0x1B0 JUMPI DUP1 PUSH4 0x93151DD5 EQ PUSH2 0x1D3 JUMPI DUP1 PUSH4 0x963BCE87 EQ PUSH2 0x1E6 JUMPI DUP1 PUSH4 0xE2631FB4 EQ PUSH2 0x1F9 JUMPI PUSH1 0x0 DUP1 REVERT JUMPDEST DUP1 PUSH4 0x29575F6A EQ PUSH2 0xAE JUMPI DUP1 PUSH4 0x44276733 EQ PUSH2 0xF2 JUMPI DUP1 PUSH4 0x577F9FB1 EQ PUSH2 0x12E JUMPI DUP1 PUSH4 0x62AFDE25 EQ PUSH2 0x155 JUMPI DUP1 PUSH4 0x73835BBC EQ PUSH2 0x175 JUMPI JUMPDEST PUSH1 0x0 DUP1 REVERT JUMPDEST PUSH2 0xD5 PUSH32 0x0 DUP2 JUMP JUMPDEST PUSH1 0x40 MLOAD PUSH1 0x1 PUSH1 0x1 PUSH1 0xA0 SHL SUB SWAP1 SWAP2 AND DUP2 MSTORE PUSH1 0x20 ADD JUMPDEST PUSH1 0x40 MLOAD DUP1 SWAP2 SUB SWAP1 RETURN JUMPDEST PUSH2 0x121 PUSH2 0x100 CALLDATASIZE PUSH1 0x4 PUSH2 0x15C4 JUMP JUMPDEST PUSH1 0x1 PUSH1 0x1 PUSH1 0xA0 SHL SUB AND PUSH1 0x0 SWAP1 DUP2 MSTORE PUSH1 0x20 DUP2 SWAP1 MSTORE PUSH1 0x40 SWAP1 KECCAK256 PUSH1 0x1 ADD SLOAD PUSH1 0xFF AND SWAP1 JUMP JUMPDEST PUSH1 0x40 MLOAD PUSH2 0xE9 SWAP2 SWAP1 PUSH2 0x1619 JUMP JUMPDEST PUSH2 0xD5 PUSH32 0x0 DUP2 JUMP JUMPDEST PUSH2 0x168 PUSH2 0x163 CALLDATASIZE PUSH1 0x4 PUSH2 0x15C4 JUMP JUMPDEST PUSH2 0x220 JUMP JUMPDEST PUSH1 0x40 MLOAD PUSH2 0xE9 SWAP2 SWAP1 PUSH2 0x167D JUMP JUMPDEST PUSH2 0x188 PUSH2 0x183 CALLDATASIZE PUSH1 0x4 PUSH2 0x17CE JUMP JUMPDEST PUSH2 0x371 JUMP JUMPDEST STOP JUMPDEST PUSH2 0x188 PUSH2 0x198 CALLDATASIZE PUSH1 0x4 PUSH2 0x180B JUMP JUMPDEST PUSH2 0x5C6 JUMP JUMPDEST PUSH2 0x188 PUSH2 0x1AB CALLDATASIZE PUSH1 0x4 PUSH2 0x185B JUMP JUMPDEST PUSH2 0x9B1 JUMP JUMPDEST PUSH2 0x1C3 PUSH2 0x1BE CALLDATASIZE PUSH1 0x4 PUSH2 0x18A9 JUMP JUMPDEST PUSH2 0x102C JUMP JUMPDEST PUSH1 0x40 MLOAD SWAP1 ISZERO ISZERO DUP2 MSTORE PUSH1 0x20 ADD PUSH2 0xE9 JUMP JUMPDEST PUSH2 0x188 PUSH2 0x1E1 CALLDATASIZE PUSH1 0x4 PUSH2 0x17CE JUMP JUMPDEST PUSH2 0x1150 JUMP JUMPDEST PUSH2 0x188 PUSH2 0x1F4 CALLDATASIZE PUSH1 0x4 PUSH2 0x1916 JUMP JUMPDEST PUSH2 0x138E JUMP JUMPDEST PUSH2 0xD5 PUSH32 0x0 DUP2 JUMP JUMPDEST PUSH2 0x253 PUSH1 0x40 DUP1 MLOAD PUSH1 0xA0 DUP2 ADD SWAP1 SWAP2 MSTORE PUSH1 0x60 DUP2 MSTORE PUSH1 0x20 DUP2 ADD PUSH1 0x0 DUP2 MSTORE PUSH1 0x0 PUSH1 0x20 DUP3 ADD DUP2 SWAP1 MSTORE PUSH1 0x40 DUP3 ADD DUP2 SWAP1 MSTORE PUSH1 0x60 SWAP1 SWAP2 ADD MSTORE SWAP1 JUMP JUMPDEST PUSH1 0x1 PUSH1 0x1 PUSH1 0xA0 SHL SUB DUP3 AND PUSH1 0x0 SWAP1 DUP2 MSTORE PUSH1 0x20 DUP2 SWAP1 MSTORE PUSH1 0x40 SWAP1 DUP2 SWAP1 KECCAK256 DUP2 MLOAD PUSH1 0xA0 DUP2 ADD SWAP1 SWAP3 MSTORE DUP1 SLOAD DUP3 SWAP1 DUP3 SWAP1 PUSH2 0x285 SWAP1 PUSH2 0x195B JUMP JUMPDEST DUP1 PUSH1 0x1F ADD PUSH1 0x20 DUP1 SWAP2 DIV MUL PUSH1 0x20 ADD PUSH1 0x40 MLOAD SWAP1 DUP2 ADD PUSH1 0x40 MSTORE DUP1 SWAP3 SWAP2 SWAP1 DUP2 DUP2 MSTORE PUSH1 0x20 ADD DUP3 DUP1 SLOAD PUSH2 0x2B1 SWAP1 PUSH2 0x195B JUMP JUMPDEST DUP1 ISZERO PUSH2 0x2FE JUMPI DUP1 PUSH1 0x1F LT PUSH2 0x2D3 JUMPI PUSH2 0x100 DUP1 DUP4 SLOAD DIV MUL DUP4 MSTORE SWAP2 PUSH1 0x20 ADD SWAP2 PUSH2 0x2FE JUMP JUMPDEST DUP3 ADD SWAP2 SWAP1 PUSH1 0x0 MSTORE PUSH1 0x20 PUSH1 0x0 KECCAK256 SWAP1 JUMPDEST DUP2 SLOAD DUP2 MSTORE SWAP1 PUSH1 0x1 ADD SWAP1 PUSH1 0x20 ADD DUP1 DUP4 GT PUSH2 0x2E1 JUMPI DUP3 SWAP1 SUB PUSH1 0x1F AND DUP3 ADD SWAP2 JUMPDEST POP POP POP SWAP2 DUP4 MSTORE POP POP PUSH1 0x1 DUP3 ADD SLOAD PUSH1 0x20 SWAP1 SWAP2 ADD SWAP1 PUSH1 0xFF AND PUSH1 0x3 DUP2 GT ISZERO PUSH2 0x325 JUMPI PUSH2 0x325 PUSH2 0x15E1 JUMP JUMPDEST PUSH1 0x3 DUP2 GT ISZERO PUSH2 0x336 JUMPI PUSH2 0x336 PUSH2 0x15E1 JUMP JUMPDEST DUP2 MSTORE PUSH1 0x1 DUP3 ADD SLOAD PUSH2 0x100 SWAP1 DIV PUSH1 0x1 PUSH1 0x1 PUSH1 0xA0 SHL SUB AND PUSH1 0x20 DUP3 ADD MSTORE PUSH1 0x2 DUP3 ADD SLOAD PUSH1 0x40 DUP3 ADD MSTORE PUSH1 0x3 SWAP1 SWAP2 ADD SLOAD PUSH1 0xFF AND ISZERO ISZERO PUSH1 0x60 SWAP1 SWAP2 ADD MSTORE SWAP3 SWAP2 POP POP JUMP JUMPDEST PUSH1 0x40 MLOAD PUSH4 0x1064EB9D PUSH1 0xE1 SHL DUP2 MSTORE PUSH1 0x1 PUSH1 0x1 PUSH1 0xA0 SHL SUB PUSH32 0x0 AND SWAP1 PUSH4 0x20C9D73A SWAP1 PUSH2 0x3BD SWAP1 DUP5 SWAP1 PUSH1 0x4 ADD PUSH2 0x1995 JUMP JUMPDEST PUSH1 0x20 PUSH1 0x40 MLOAD DUP1 DUP4 SUB DUP2 DUP7 GAS STATICCALL ISZERO DUP1 ISZERO PUSH2 0x3DA JUMPI RETURNDATASIZE PUSH1 0x0 DUP1 RETURNDATACOPY RETURNDATASIZE PUSH1 0x0 REVERT JUMPDEST POP POP POP POP PUSH1 0x40 MLOAD RETURNDATASIZE PUSH1 0x1F NOT PUSH1 0x1F DUP3 ADD AND DUP3 ADD DUP1 PUSH1 0x40 MSTORE POP DUP2 ADD SWAP1 PUSH2 0x3FE SWAP2 SWAP1 PUSH2 0x19A8 JUMP JUMPDEST PUSH2 0x423 JUMPI PUSH1 0x40 MLOAD PUSH3 0x461BCD PUSH1 0xE5 SHL DUP2 MSTORE PUSH1 0x4 ADD PUSH2 0x41A SWAP1 PUSH2 0x19CA JUMP JUMPDEST PUSH1 0x40 MLOAD DUP1 SWAP2 SUB SWAP1 REVERT JUMPDEST CALLER PUSH1 0x0 SWAP1 DUP2 MSTORE PUSH1 0x20 DUP2 SWAP1 MSTORE PUSH1 0x40 SWAP1 KECCAK256 PUSH1 0x3 ADD SLOAD PUSH1 0xFF AND ISZERO PUSH2 0x456 JUMPI PUSH1 0x40 MLOAD PUSH3 0x461BCD PUSH1 0xE5 SHL DUP2 MSTORE PUSH1 0x4 ADD PUSH2 0x41A SWAP1 PUSH2 0x19FF JUMP JUMPDEST PUSH1 0x0 PUSH2 0x461 DUP3 PUSH2 0x157C JUMP JUMPDEST PUSH1 0x0 DUP2 DUP2 MSTORE PUSH1 0x2 PUSH1 0x20 MSTORE PUSH1 0x40 SWAP1 KECCAK256 SLOAD SWAP1 SWAP2 POP PUSH1 0x1 PUSH1 0x1 PUSH1 0xA0 SHL SUB AND ISZERO PUSH2 0x499 JUMPI PUSH1 0x40 MLOAD PUSH3 0x461BCD PUSH1 0xE5 SHL DUP2 MSTORE PUSH1 0x4 ADD PUSH2 0x41A SWAP1 PUSH2 0x1A40 JUMP JUMPDEST PUSH1 0x40 DUP1 MLOAD PUSH1 0xA0 DUP2 ADD DUP3 MSTORE DUP4 DUP2 MSTORE PUSH1 0x1 PUSH1 0x20 DUP1 DUP4 ADD DUP3 SWAP1 MSTORE PUSH1 0x0 DUP4 DUP6 ADD DUP2 SWAP1 MSTORE TIMESTAMP PUSH1 0x60 DUP6 ADD MSTORE PUSH1 0x80 DUP5 ADD SWAP3 SWAP1 SWAP3 MSTORE CALLER DUP3 MSTORE DUP2 SWAP1 MSTORE SWAP2 SWAP1 SWAP2 KECCAK256 DUP2 MLOAD DUP2 SWAP1 PUSH2 0x4DE SWAP1 DUP3 PUSH2 0x1AD0 JUMP JUMPDEST POP PUSH1 0x20 DUP3 ADD MLOAD PUSH1 0x1 DUP1 DUP4 ADD DUP1 SLOAD SWAP1 SWAP2 PUSH1 0xFF NOT SWAP1 SWAP2 AND SWAP1 DUP4 PUSH1 0x3 DUP2 GT ISZERO PUSH2 0x506 JUMPI PUSH2 0x506 PUSH2 0x15E1 JUMP JUMPDEST MUL OR SWAP1 SSTORE POP PUSH1 0x40 DUP3 DUP2 ADD MLOAD PUSH1 0x1 DUP1 DUP5 ADD DUP1 SLOAD PUSH1 0x1 PUSH1 0x1 PUSH1 0xA0 SHL SUB SWAP1 SWAP4 AND PUSH2 0x100 MUL PUSH2 0x100 PUSH1 0x1 PUSH1 0xA8 SHL SUB NOT SWAP1 SWAP4 AND SWAP3 SWAP1 SWAP3 OR SWAP1 SWAP2 SSTORE PUSH1 0x60 DUP5 ADD MLOAD PUSH1 0x2 DUP1 DUP6 ADD SWAP2 SWAP1 SWAP2 SSTORE PUSH1 0x80 SWAP1 SWAP5 ADD MLOAD PUSH1 0x3 SWAP1 SWAP4 ADD DUP1 SLOAD SWAP4 ISZERO ISZERO PUSH1 0xFF NOT SWAP1 SWAP5 AND SWAP4 SWAP1 SWAP4 OR SWAP1 SWAP3 SSTORE PUSH1 0x0 DUP5 DUP2 MSTORE PUSH1 0x20 SWAP4 SWAP1 SWAP4 MSTORE SWAP2 DUP3 SWAP1 KECCAK256 DUP1 SLOAD PUSH1 0x1 PUSH1 0x1 PUSH1 0xA0 SHL SUB NOT AND CALLER SWAP1 DUP2 OR SWAP1 SWAP2 SSTORE SWAP2 MLOAD PUSH32 0xEFE0ED7B84AECA0B627EE9959EFB026AE6ABBBD4D68485F6B13BF0D872996A2D SWAP2 PUSH2 0x5BA SWAP2 DUP7 SWAP2 SWAP1 TIMESTAMP SWAP1 PUSH2 0x1B90 JUMP JUMPDEST PUSH1 0x40 MLOAD DUP1 SWAP2 SUB SWAP1 LOG2 POP POP JUMP JUMPDEST CALLER PUSH1 0x0 SWAP1 DUP2 MSTORE PUSH1 0x1 PUSH1 0x20 MSTORE PUSH1 0x40 SWAP1 KECCAK256 SLOAD PUSH1 0xFF AND PUSH2 0x633 JUMPI PUSH1 0x40 MLOAD PUSH3 0x461BCD PUSH1 0xE5 SHL DUP2 MSTORE PUSH1 0x20 PUSH1 0x4 DUP3 ADD MSTORE PUSH1 0x25 PUSH1 0x24 DUP3 ADD MSTORE PUSH32 0x416363657373436F6E74726F6C3A2043616C6C6572206973206E6F7420616E20 PUSH1 0x44 DUP3 ADD MSTORE PUSH5 0x30B236B4B7 PUSH1 0xD9 SHL PUSH1 0x64 DUP3 ADD MSTORE PUSH1 0x84 ADD PUSH2 0x41A JUMP JUMPDEST PUSH1 0x1 PUSH1 0x1 PUSH1 0xA0 SHL SUB DUP3 AND PUSH2 0x697 JUMPI PUSH1 0x40 MLOAD PUSH3 0x461BCD PUSH1 0xE5 SHL DUP2 MSTORE PUSH1 0x20 PUSH1 0x4 DUP3 ADD MSTORE PUSH1 0x25 PUSH1 0x24 DUP3 ADD MSTORE PUSH32 0x416363657373436F6E74726F6C3A20696E76616C696420697373756572206164 PUSH1 0x44 DUP3 ADD MSTORE PUSH5 0x6472657373 PUSH1 0xD8 SHL PUSH1 0x64 DUP3 ADD MSTORE PUSH1 0x84 ADD PUSH2 0x41A JUMP JUMPDEST PUSH1 0x40 MLOAD PUSH4 0x1064EB9D PUSH1 0xE1 SHL DUP2 MSTORE PUSH1 0x1 PUSH1 0x1 PUSH1 0xA0 SHL SUB PUSH32 0x0 AND SWAP1 PUSH4 0x20C9D73A SWAP1 PUSH2 0x6E3 SWAP1 DUP5 SWAP1 PUSH1 0x4 ADD PUSH2 0x1995 JUMP JUMPDEST PUSH1 0x20 PUSH1 0x40 MLOAD DUP1 DUP4 SUB DUP2 DUP7 GAS STATICCALL ISZERO DUP1 ISZERO PUSH2 0x700 JUMPI RETURNDATASIZE PUSH1 0x0 DUP1 RETURNDATACOPY RETURNDATASIZE PUSH1 0x0 REVERT JUMPDEST POP POP POP POP PUSH1 0x40 MLOAD RETURNDATASIZE PUSH1 0x1F NOT PUSH1 0x1F DUP3 ADD AND DUP3 ADD DUP1 PUSH1 0x40 MSTORE POP DUP2 ADD SWAP1 PUSH2 0x724 SWAP2 SWAP1 PUSH2 0x19A8 JUMP JUMPDEST PUSH2 0x740 JUMPI PUSH1 0x40 MLOAD PUSH3 0x461BCD PUSH1 0xE5 SHL DUP2 MSTORE PUSH1 0x4 ADD PUSH2 0x41A SWAP1 PUSH2 0x19CA JUMP JUMPDEST PUSH1 0x0 PUSH2 0x74B DUP3 PUSH2 0x157C JUMP JUMPDEST PUSH1 0x0 DUP2 DUP2 MSTORE PUSH1 0x2 PUSH1 0x20 MSTORE PUSH1 0x40 SWAP1 KECCAK256 SLOAD SWAP1 SWAP2 POP PUSH1 0x1 PUSH1 0x1 PUSH1 0xA0 SHL SUB AND DUP1 ISZERO DUP1 PUSH2 0x784 JUMPI POP DUP4 PUSH1 0x1 PUSH1 0x1 PUSH1 0xA0 SHL SUB AND DUP2 PUSH1 0x1 PUSH1 0x1 PUSH1 0xA0 SHL SUB AND EQ JUMPDEST PUSH2 0x7A0 JUMPI PUSH1 0x40 MLOAD PUSH3 0x461BCD PUSH1 0xE5 SHL DUP2 MSTORE PUSH1 0x4 ADD PUSH2 0x41A SWAP1 PUSH2 0x1A40 JUMP JUMPDEST PUSH1 0x1 PUSH1 0x1 PUSH1 0xA0 SHL SUB DUP5 AND PUSH1 0x0 SWAP1 DUP2 MSTORE PUSH1 0x20 DUP2 SWAP1 MSTORE PUSH1 0x40 SWAP1 KECCAK256 PUSH1 0x3 ADD SLOAD PUSH1 0xFF AND ISZERO DUP1 PUSH2 0x80C JUMPI POP DUP3 DUP1 MLOAD SWAP1 PUSH1 0x20 ADD KECCAK256 PUSH1 0x0 DUP1 DUP7 PUSH1 0x1 PUSH1 0x1 PUSH1 0xA0 SHL SUB AND PUSH1 0x1 PUSH1 0x1 PUSH1 0xA0 SHL SUB AND DUP2 MSTORE PUSH1 0x20 ADD SWAP1 DUP2 MSTORE PUSH1 0x20 ADD PUSH1 0x0 KECCAK256 PUSH1 0x0 ADD PUSH1 0x40 MLOAD PUSH2 0x802 SWAP2 SWAP1 PUSH2 0x1C33 JUMP JUMPDEST PUSH1 0x40 MLOAD DUP1 SWAP2 SUB SWAP1 KECCAK256 EQ JUMPDEST PUSH2 0x87E JUMPI PUSH1 0x40 MLOAD PUSH3 0x461BCD PUSH1 0xE5 SHL DUP2 MSTORE PUSH1 0x20 PUSH1 0x4 DUP3 ADD MSTORE PUSH1 0x3A PUSH1 0x24 DUP3 ADD MSTORE PUSH32 0x416363657373436F6E74726F6C3A20697373756572206164647265737320616C PUSH1 0x44 DUP3 ADD MSTORE PUSH32 0x726561647920626F756E6420746F20616E6F7468657220444944000000000000 PUSH1 0x64 DUP3 ADD MSTORE PUSH1 0x84 ADD PUSH2 0x41A JUMP JUMPDEST PUSH1 0x40 DUP1 MLOAD PUSH1 0xA0 DUP2 ADD DUP3 MSTORE DUP5 DUP2 MSTORE PUSH1 0x2 PUSH1 0x20 DUP1 DUP4 ADD SWAP2 SWAP1 SWAP2 MSTORE CALLER DUP3 DUP5 ADD MSTORE TIMESTAMP PUSH1 0x60 DUP4 ADD MSTORE PUSH1 0x1 PUSH1 0x80 DUP4 ADD MSTORE PUSH1 0x1 PUSH1 0x1 PUSH1 0xA0 SHL SUB DUP8 AND PUSH1 0x0 SWAP1 DUP2 MSTORE SWAP1 DUP2 SWAP1 MSTORE SWAP2 SWAP1 SWAP2 KECCAK256 DUP2 MLOAD DUP2 SWAP1 PUSH2 0x8CD SWAP1 DUP3 PUSH2 0x1AD0 JUMP JUMPDEST POP PUSH1 0x20 DUP3 ADD MLOAD PUSH1 0x1 DUP1 DUP4 ADD DUP1 SLOAD SWAP1 SWAP2 PUSH1 0xFF NOT SWAP1 SWAP2 AND SWAP1 DUP4 PUSH1 0x3 DUP2 GT ISZERO PUSH2 0x8F5 JUMPI PUSH2 0x8F5 PUSH2 0x15E1 JUMP JUMPDEST MUL OR SWAP1 SSTORE POP PUSH1 0x40 DUP3 DUP2 ADD MLOAD PUSH1 0x1 DUP4 ADD DUP1 SLOAD PUSH2 0x100 PUSH1 0x1 PUSH1 0xA8 SHL SUB NOT AND PUSH2 0x100 PUSH1 0x1 PUSH1 0x1 PUSH1 0xA0 SHL SUB SWAP4 DUP5 AND MUL OR SWAP1 SSTORE PUSH1 0x60 DUP5 ADD MLOAD PUSH1 0x2 DUP1 DUP6 ADD SWAP2 SWAP1 SWAP2 SSTORE PUSH1 0x80 SWAP1 SWAP5 ADD MLOAD PUSH1 0x3 SWAP1 SWAP4 ADD DUP1 SLOAD PUSH1 0xFF NOT AND SWAP4 ISZERO ISZERO SWAP4 SWAP1 SWAP4 OR SWAP1 SWAP3 SSTORE PUSH1 0x0 DUP6 DUP2 MSTORE PUSH1 0x20 SWAP4 SWAP1 SWAP4 MSTORE SWAP2 DUP3 SWAP1 KECCAK256 DUP1 SLOAD PUSH1 0x1 PUSH1 0x1 PUSH1 0xA0 SHL SUB NOT AND SWAP2 DUP8 AND SWAP2 DUP3 OR SWAP1 SSTORE SWAP1 MLOAD CALLER SWAP2 SWAP1 PUSH32 0xB65FDC917FC7876268373DACDFFFB722B5158DC0086B42B186949D1ED516E36A SWAP1 PUSH2 0x9A3 SWAP1 DUP8 SWAP1 TIMESTAMP SWAP1 PUSH2 0x1C3F JUMP JUMPDEST PUSH1 0x40 MLOAD DUP1 SWAP2 SUB SWAP1 LOG3 POP POP POP POP JUMP JUMPDEST CALLER PUSH1 0x0 SWAP1 DUP2 MSTORE PUSH1 0x20 DUP2 SWAP1 MSTORE PUSH1 0x40 SWAP1 KECCAK256 PUSH1 0x3 ADD SLOAD PUSH1 0xFF AND PUSH2 0x9E3 JUMPI PUSH1 0x40 MLOAD PUSH3 0x461BCD PUSH1 0xE5 SHL DUP2 MSTORE PUSH1 0x4 ADD PUSH2 0x41A SWAP1 PUSH2 0x1C61 JUMP JUMPDEST CALLER PUSH1 0x0 SWAP1 DUP2 MSTORE PUSH1 0x20 DUP2 SWAP1 MSTORE PUSH1 0x40 SWAP1 KECCAK256 PUSH1 0x1 DUP1 DUP3 ADD SLOAD PUSH1 0xFF AND PUSH1 0x3 DUP2 GT ISZERO PUSH2 0xA0C JUMPI PUSH2 0xA0C PUSH2 0x15E1 JUMP JUMPDEST EQ PUSH2 0xA29 JUMPI PUSH1 0x40 MLOAD PUSH3 0x461BCD PUSH1 0xE5 SHL DUP2 MSTORE PUSH1 0x4 ADD PUSH2 0x41A SWAP1 PUSH2 0x1CA8 JUMP JUMPDEST PUSH1 0x40 MLOAD PUSH4 0x1064EB9D PUSH1 0xE1 SHL DUP2 MSTORE PUSH1 0x1 PUSH1 0x1 PUSH1 0xA0 SHL SUB PUSH32 0x0 AND SWAP1 PUSH4 0x20C9D73A SWAP1 PUSH2 0xA75 SWAP1 DUP8 SWAP1 PUSH1 0x4 ADD PUSH2 0x1995 JUMP JUMPDEST PUSH1 0x20 PUSH1 0x40 MLOAD DUP1 DUP4 SUB DUP2 DUP7 GAS STATICCALL ISZERO DUP1 ISZERO PUSH2 0xA92 JUMPI RETURNDATASIZE PUSH1 0x0 DUP1 RETURNDATACOPY RETURNDATASIZE PUSH1 0x0 REVERT JUMPDEST POP POP POP POP PUSH1 0x40 MLOAD RETURNDATASIZE PUSH1 0x1F NOT PUSH1 0x1F DUP3 ADD AND DUP3 ADD DUP1 PUSH1 0x40 MSTORE POP DUP2 ADD SWAP1 PUSH2 0xAB6 SWAP2 SWAP1 PUSH2 0x19A8 JUMP JUMPDEST PUSH2 0xB14 JUMPI PUSH1 0x40 MLOAD PUSH3 0x461BCD PUSH1 0xE5 SHL DUP2 MSTORE PUSH1 0x20 PUSH1 0x4 DUP3 ADD MSTORE PUSH1 0x29 PUSH1 0x24 DUP3 ADD MSTORE PUSH32 0x416363657373436F6E74726F6C3A20766572696669657220444944206973206E PUSH1 0x44 DUP3 ADD MSTORE PUSH9 0x6F7420616374697665 PUSH1 0xB8 SHL PUSH1 0x64 DUP3 ADD MSTORE PUSH1 0x84 ADD PUSH2 0x41A JUMP JUMPDEST PUSH1 0x0 PUSH1 0x2 PUSH1 0x0 PUSH2 0xB23 DUP8 PUSH2 0x157C JUMP JUMPDEST DUP2 MSTORE PUSH1 0x20 DUP2 ADD SWAP2 SWAP1 SWAP2 MSTORE PUSH1 0x40 ADD PUSH1 0x0 KECCAK256 SLOAD PUSH1 0x1 PUSH1 0x1 PUSH1 0xA0 SHL SUB AND SWAP1 POP DUP1 PUSH2 0xB9B JUMPI PUSH1 0x40 MLOAD PUSH3 0x461BCD PUSH1 0xE5 SHL DUP2 MSTORE PUSH1 0x20 PUSH1 0x4 DUP3 ADD MSTORE PUSH1 0x26 PUSH1 0x24 DUP3 ADD MSTORE PUSH32 0x416363657373436F6E74726F6C3A207665726966696572206E6F742072656769 PUSH1 0x44 DUP3 ADD MSTORE PUSH6 0x1CDD195C9959 PUSH1 0xD2 SHL PUSH1 0x64 DUP3 ADD MSTORE PUSH1 0x84 ADD PUSH2 0x41A JUMP JUMPDEST PUSH1 0x1 PUSH1 0x1 PUSH1 0xA0 SHL SUB DUP2 AND PUSH1 0x0 SWAP1 DUP2 MSTORE PUSH1 0x20 DUP2 SWAP1 MSTORE PUSH1 0x40 SWAP1 KECCAK256 PUSH1 0x3 ADD SLOAD PUSH1 0xFF AND DUP1 ISZERO PUSH2 0xBF5 JUMPI POP PUSH1 0x3 PUSH1 0x1 PUSH1 0x1 PUSH1 0xA0 SHL SUB DUP3 AND PUSH1 0x0 SWAP1 DUP2 MSTORE PUSH1 0x20 DUP2 SWAP1 MSTORE PUSH1 0x40 SWAP1 KECCAK256 PUSH1 0x1 ADD SLOAD PUSH1 0xFF AND PUSH1 0x3 DUP2 GT ISZERO PUSH2 0xBF3 JUMPI PUSH2 0xBF3 PUSH2 0x15E1 JUMP JUMPDEST EQ JUMPDEST PUSH2 0xC4D JUMPI PUSH1 0x40 MLOAD PUSH3 0x461BCD PUSH1 0xE5 SHL DUP2 MSTORE PUSH1 0x20 PUSH1 0x4 DUP3 ADD MSTORE PUSH1 0x24 DUP1 DUP3 ADD MSTORE PUSH32 0x416363657373436F6E74726F6C3A20696E76616C696420766572696669657220 PUSH1 0x44 DUP3 ADD MSTORE PUSH4 0x726F6C65 PUSH1 0xE0 SHL PUSH1 0x64 DUP3 ADD MSTORE PUSH1 0x84 ADD PUSH2 0x41A JUMP JUMPDEST PUSH1 0x40 MLOAD PUSH4 0x2CA4FAFF PUSH1 0xE1 SHL DUP2 MSTORE PUSH1 0x4 DUP2 ADD DUP6 SWAP1 MSTORE PUSH1 0x0 SWAP1 PUSH32 0x0 PUSH1 0x1 PUSH1 0x1 PUSH1 0xA0 SHL SUB AND SWAP1 PUSH4 0x5949F5FE SWAP1 PUSH1 0x24 ADD PUSH1 0x0 PUSH1 0x40 MLOAD DUP1 DUP4 SUB DUP2 DUP7 GAS STATICCALL ISZERO DUP1 ISZERO PUSH2 0xCB5 JUMPI RETURNDATASIZE PUSH1 0x0 DUP1 RETURNDATACOPY RETURNDATASIZE PUSH1 0x0 REVERT JUMPDEST POP POP POP POP PUSH1 0x40 MLOAD RETURNDATASIZE PUSH1 0x0 DUP3 RETURNDATACOPY PUSH1 0x1F RETURNDATASIZE SWAP1 DUP2 ADD PUSH1 0x1F NOT AND DUP3 ADD PUSH1 0x40 MSTORE PUSH2 0xCDD SWAP2 SWAP1 DUP2 ADD SWAP1 PUSH2 0x1D42 JUMP JUMPDEST PUSH1 0x40 MLOAD SWAP1 SWAP2 POP PUSH2 0xCEE SWAP1 DUP5 SWAP1 PUSH2 0x1C33 JUMP JUMPDEST PUSH1 0x40 MLOAD DUP1 SWAP2 SUB SWAP1 KECCAK256 DUP2 PUSH1 0x20 ADD MLOAD DUP1 MLOAD SWAP1 PUSH1 0x20 ADD KECCAK256 EQ PUSH2 0xD64 JUMPI PUSH1 0x40 MLOAD PUSH3 0x461BCD PUSH1 0xE5 SHL DUP2 MSTORE PUSH1 0x20 PUSH1 0x4 DUP3 ADD MSTORE PUSH1 0x2C PUSH1 0x24 DUP3 ADD MSTORE PUSH32 0x416363657373436F6E74726F6C3A20686F6C646572206E6F742063726564656E PUSH1 0x44 DUP3 ADD MSTORE PUSH12 0x1D1A585B081CDD589A9958DD PUSH1 0xA2 SHL PUSH1 0x64 DUP3 ADD MSTORE PUSH1 0x84 ADD PUSH2 0x41A JUMP JUMPDEST PUSH1 0x40 MLOAD PUSH4 0x4294857F PUSH1 0xE0 SHL DUP2 MSTORE PUSH1 0x4 DUP2 ADD DUP7 SWAP1 MSTORE PUSH32 0x0 PUSH1 0x1 PUSH1 0x1 PUSH1 0xA0 SHL SUB AND SWAP1 PUSH4 0x4294857F SWAP1 PUSH1 0x24 ADD PUSH1 0x20 PUSH1 0x40 MLOAD DUP1 DUP4 SUB DUP2 DUP7 GAS STATICCALL ISZERO DUP1 ISZERO PUSH2 0xDC9 JUMPI RETURNDATASIZE PUSH1 0x0 DUP1 RETURNDATACOPY RETURNDATASIZE PUSH1 0x0 REVERT JUMPDEST POP POP POP POP PUSH1 0x40 MLOAD RETURNDATASIZE PUSH1 0x1F NOT PUSH1 0x1F DUP3 ADD AND DUP3 ADD DUP1 PUSH1 0x40 MSTORE POP DUP2 ADD SWAP1 PUSH2 0xDED SWAP2 SWAP1 PUSH2 0x19A8 JUMP JUMPDEST ISZERO PUSH2 0xE44 JUMPI PUSH1 0x40 MLOAD PUSH3 0x461BCD PUSH1 0xE5 SHL DUP2 MSTORE PUSH1 0x20 PUSH1 0x4 DUP3 ADD MSTORE PUSH1 0x21 PUSH1 0x24 DUP3 ADD MSTORE PUSH32 0x416363657373436F6E74726F6C3A2063726564656E7469616C207265766F6B65 PUSH1 0x44 DUP3 ADD MSTORE PUSH1 0x19 PUSH1 0xFA SHL PUSH1 0x64 DUP3 ADD MSTORE PUSH1 0x84 ADD PUSH2 0x41A JUMP JUMPDEST DUP4 ISZERO DUP1 PUSH2 0xE50 JUMPI POP TIMESTAMP DUP5 GT JUMPDEST PUSH2 0xE9C JUMPI PUSH1 0x40 MLOAD PUSH3 0x461BCD PUSH1 0xE5 SHL DUP2 MSTORE PUSH1 0x20 PUSH1 0x4 DUP3 ADD MSTORE PUSH1 0x1D PUSH1 0x24 DUP3 ADD MSTORE PUSH32 0x416363657373436F6E74726F6C3A20696E76616C696420657870697279000000 PUSH1 0x44 DUP3 ADD MSTORE PUSH1 0x64 ADD PUSH2 0x41A JUMP JUMPDEST PUSH1 0x40 MLOAD PUSH1 0x0 SWAP1 PUSH2 0xEB4 SWAP1 DUP6 SWAP1 DUP10 SWAP1 DUP10 SWAP1 PUSH1 0x20 ADD PUSH2 0x1E05 JUMP JUMPDEST PUSH1 0x40 MLOAD PUSH1 0x20 DUP2 DUP4 SUB SUB DUP2 MSTORE SWAP1 PUSH1 0x40 MSTORE DUP1 MLOAD SWAP1 PUSH1 0x20 ADD KECCAK256 SWAP1 POP PUSH1 0x40 MLOAD DUP1 PUSH1 0xA0 ADD PUSH1 0x40 MSTORE DUP1 DUP6 PUSH1 0x0 ADD DUP1 SLOAD PUSH2 0xEE6 SWAP1 PUSH2 0x195B JUMP JUMPDEST DUP1 PUSH1 0x1F ADD PUSH1 0x20 DUP1 SWAP2 DIV MUL PUSH1 0x20 ADD PUSH1 0x40 MLOAD SWAP1 DUP2 ADD PUSH1 0x40 MSTORE DUP1 SWAP3 SWAP2 SWAP1 DUP2 DUP2 MSTORE PUSH1 0x20 ADD DUP3 DUP1 SLOAD PUSH2 0xF12 SWAP1 PUSH2 0x195B JUMP JUMPDEST DUP1 ISZERO PUSH2 0xF5F JUMPI DUP1 PUSH1 0x1F LT PUSH2 0xF34 JUMPI PUSH2 0x100 DUP1 DUP4 SLOAD DIV MUL DUP4 MSTORE SWAP2 PUSH1 0x20 ADD SWAP2 PUSH2 0xF5F JUMP JUMPDEST DUP3 ADD SWAP2 SWAP1 PUSH1 0x0 MSTORE PUSH1 0x20 PUSH1 0x0 KECCAK256 SWAP1 JUMPDEST DUP2 SLOAD DUP2 MSTORE SWAP1 PUSH1 0x1 ADD SWAP1 PUSH1 0x20 ADD DUP1 DUP4 GT PUSH2 0xF42 JUMPI DUP3 SWAP1 SUB PUSH1 0x1F AND DUP3 ADD SWAP2 JUMPDEST POP POP POP SWAP2 DUP4 MSTORE POP POP PUSH1 0x20 DUP1 DUP3 ADD DUP11 SWAP1 MSTORE PUSH1 0x40 DUP1 DUP4 ADD DUP11 SWAP1 MSTORE PUSH1 0x60 DUP4 ADD DUP10 SWAP1 MSTORE PUSH1 0x1 PUSH1 0x80 SWAP1 SWAP4 ADD SWAP3 SWAP1 SWAP3 MSTORE PUSH1 0x0 DUP5 DUP2 MSTORE PUSH1 0x3 SWAP1 SWAP2 MSTORE KECCAK256 DUP2 MLOAD DUP2 SWAP1 PUSH2 0xFA2 SWAP1 DUP3 PUSH2 0x1AD0 JUMP JUMPDEST POP PUSH1 0x20 DUP3 ADD MLOAD PUSH1 0x1 DUP3 ADD SWAP1 PUSH2 0xFB7 SWAP1 DUP3 PUSH2 0x1AD0 JUMP JUMPDEST POP PUSH1 0x40 DUP3 DUP2 ADD MLOAD PUSH1 0x2 DUP4 ADD SSTORE PUSH1 0x60 DUP4 ADD MLOAD PUSH1 0x3 DUP4 ADD SSTORE PUSH1 0x80 SWAP1 SWAP3 ADD MLOAD PUSH1 0x4 SWAP1 SWAP2 ADD DUP1 SLOAD PUSH1 0xFF NOT AND SWAP2 ISZERO ISZERO SWAP2 SWAP1 SWAP2 OR SWAP1 SSTORE MLOAD PUSH32 0x67BE6CB4BF0BDC400AF0C61CC4ED9D056F87D62A9CB7838A607984DC42FBC447 SWAP1 PUSH2 0x101B SWAP1 DUP7 SWAP1 DUP11 SWAP1 DUP11 SWAP1 DUP11 SWAP1 PUSH2 0x1E30 JUMP JUMPDEST PUSH1 0x40 MLOAD DUP1 SWAP2 SUB SWAP1 LOG1 POP POP POP POP POP POP POP JUMP JUMPDEST PUSH1 0x0 DUP1 DUP5 DUP5 DUP5 PUSH1 0x40 MLOAD PUSH1 0x20 ADD PUSH2 0x1044 SWAP4 SWAP3 SWAP2 SWAP1 PUSH2 0x1EDA JUMP JUMPDEST PUSH1 0x40 DUP1 MLOAD PUSH1 0x1F NOT DUP2 DUP5 SUB ADD DUP2 MSTORE SWAP2 DUP2 MSTORE DUP2 MLOAD PUSH1 0x20 SWAP3 DUP4 ADD KECCAK256 PUSH1 0x0 DUP2 DUP2 MSTORE PUSH1 0x3 SWAP1 SWAP4 MSTORE SWAP2 KECCAK256 PUSH1 0x4 DUP2 ADD SLOAD SWAP2 SWAP3 POP SWAP1 PUSH1 0xFF AND PUSH2 0x1083 JUMPI PUSH1 0x0 SWAP3 POP POP POP PUSH2 0x1149 JUMP JUMPDEST PUSH1 0x3 DUP2 ADD SLOAD ISZERO DUP1 ISZERO SWAP1 PUSH2 0x1099 JUMPI POP DUP1 PUSH1 0x3 ADD SLOAD TIMESTAMP GT JUMPDEST ISZERO PUSH2 0x10A9 JUMPI PUSH1 0x0 SWAP3 POP POP POP PUSH2 0x1149 JUMP JUMPDEST PUSH1 0x40 MLOAD PUSH4 0x4294857F PUSH1 0xE0 SHL DUP2 MSTORE PUSH1 0x4 DUP2 ADD DUP6 SWAP1 MSTORE PUSH32 0x0 PUSH1 0x1 PUSH1 0x1 PUSH1 0xA0 SHL SUB AND SWAP1 PUSH4 0x4294857F SWAP1 PUSH1 0x24 ADD PUSH1 0x20 PUSH1 0x40 MLOAD DUP1 DUP4 SUB DUP2 DUP7 GAS STATICCALL ISZERO DUP1 ISZERO PUSH2 0x110E JUMPI RETURNDATASIZE PUSH1 0x0 DUP1 RETURNDATACOPY RETURNDATASIZE PUSH1 0x0 REVERT JUMPDEST POP POP POP POP PUSH1 0x40 MLOAD RETURNDATASIZE PUSH1 0x1F NOT PUSH1 0x1F DUP3 ADD AND DUP3 ADD DUP1 PUSH1 0x40 MSTORE POP DUP2 ADD SWAP1 PUSH2 0x1132 SWAP2 SWAP1 PUSH2 0x19A8 JUMP JUMPDEST ISZERO PUSH2 0x1142 JUMPI PUSH1 0x0 SWAP3 POP POP POP PUSH2 0x1149 JUMP JUMPDEST PUSH1 0x1 SWAP3 POP POP POP JUMPDEST SWAP4 SWAP3 POP POP POP JUMP JUMPDEST PUSH1 0x40 MLOAD PUSH4 0x1064EB9D PUSH1 0xE1 SHL DUP2 MSTORE PUSH1 0x1 PUSH1 0x1 PUSH1 0xA0 SHL SUB PUSH32 0x0 AND SWAP1 PUSH4 0x20C9D73A SWAP1 PUSH2 0x119C SWAP1 DUP5 SWAP1 PUSH1 0x4 ADD PUSH2 0x1995 JUMP JUMPDEST PUSH1 0x20 PUSH1 0x40 MLOAD DUP1 DUP4 SUB DUP2 DUP7 GAS STATICCALL ISZERO DUP1 ISZERO PUSH2 0x11B9 JUMPI RETURNDATASIZE PUSH1 0x0 DUP1 RETURNDATACOPY RETURNDATASIZE PUSH1 0x0 REVERT JUMPDEST POP POP POP POP PUSH1 0x40 MLOAD RETURNDATASIZE PUSH1 0x1F NOT PUSH1 0x1F DUP3 ADD AND DUP3 ADD DUP1 PUSH1 0x40 MSTORE POP DUP2 ADD SWAP1 PUSH2 0x11DD SWAP2 SWAP1 PUSH2 0x19A8 JUMP JUMPDEST PUSH2 0x11F9 JUMPI PUSH1 0x40 MLOAD PUSH3 0x461BCD PUSH1 0xE5 SHL DUP2 MSTORE PUSH1 0x4 ADD PUSH2 0x41A SWAP1 PUSH2 0x19CA JUMP JUMPDEST CALLER PUSH1 0x0 SWAP1 DUP2 MSTORE PUSH1 0x20 DUP2 SWAP1 MSTORE PUSH1 0x40 SWAP1 KECCAK256 PUSH1 0x3 ADD SLOAD PUSH1 0xFF AND ISZERO PUSH2 0x122C JUMPI PUSH1 0x40 MLOAD PUSH3 0x461BCD PUSH1 0xE5 SHL DUP2 MSTORE PUSH1 0x4 ADD PUSH2 0x41A SWAP1 PUSH2 0x19FF JUMP JUMPDEST PUSH1 0x0 PUSH2 0x1237 DUP3 PUSH2 0x157C JUMP JUMPDEST PUSH1 0x0 DUP2 DUP2 MSTORE PUSH1 0x2 PUSH1 0x20 MSTORE PUSH1 0x40 SWAP1 KECCAK256 SLOAD SWAP1 SWAP2 POP PUSH1 0x1 PUSH1 0x1 PUSH1 0xA0 SHL SUB AND ISZERO PUSH2 0x126F JUMPI PUSH1 0x40 MLOAD PUSH3 0x461BCD PUSH1 0xE5 SHL DUP2 MSTORE PUSH1 0x4 ADD PUSH2 0x41A SWAP1 PUSH2 0x1A40 JUMP JUMPDEST PUSH1 0x40 DUP1 MLOAD PUSH1 0xA0 DUP2 ADD DUP3 MSTORE DUP4 DUP2 MSTORE PUSH1 0x3 PUSH1 0x20 DUP1 DUP4 ADD SWAP2 SWAP1 SWAP2 MSTORE PUSH1 0x0 DUP3 DUP5 ADD DUP2 SWAP1 MSTORE TIMESTAMP PUSH1 0x60 DUP5 ADD MSTORE PUSH1 0x1 PUSH1 0x80 DUP5 ADD MSTORE CALLER DUP2 MSTORE SWAP1 DUP2 SWAP1 MSTORE SWAP2 SWAP1 SWAP2 KECCAK256 DUP2 MLOAD DUP2 SWAP1 PUSH2 0x12B5 SWAP1 DUP3 PUSH2 0x1AD0 JUMP JUMPDEST POP PUSH1 0x20 DUP3 ADD MLOAD PUSH1 0x1 DUP1 DUP4 ADD DUP1 SLOAD SWAP1 SWAP2 PUSH1 0xFF NOT SWAP1 SWAP2 AND SWAP1 DUP4 PUSH1 0x3 DUP2 GT ISZERO PUSH2 0x12DD JUMPI PUSH2 0x12DD PUSH2 0x15E1 JUMP JUMPDEST MUL OR SWAP1 SSTORE POP PUSH1 0x40 DUP3 DUP2 ADD MLOAD PUSH1 0x1 DUP4 ADD DUP1 SLOAD PUSH1 0x1 PUSH1 0x1 PUSH1 0xA0 SHL SUB SWAP1 SWAP3 AND PUSH2 0x100 MUL PUSH2 0x100 PUSH1 0x1 PUSH1 0xA8 SHL SUB NOT SWAP1 SWAP3 AND SWAP2 SWAP1 SWAP2 OR SWAP1 SSTORE PUSH1 0x60 DUP4 ADD MLOAD PUSH1 0x2 DUP1 DUP5 ADD SWAP2 SWAP1 SWAP2 SSTORE PUSH1 0x80 SWAP1 SWAP4 ADD MLOAD PUSH1 0x3 SWAP3 DUP4 ADD DUP1 SLOAD SWAP2 ISZERO ISZERO PUSH1 0xFF NOT SWAP1 SWAP3 AND SWAP2 SWAP1 SWAP2 OR SWAP1 SSTORE PUSH1 0x0 DUP5 DUP2 MSTORE PUSH1 0x20 SWAP4 SWAP1 SWAP4 MSTORE SWAP2 DUP3 SWAP1 KECCAK256 DUP1 SLOAD PUSH1 0x1 PUSH1 0x1 PUSH1 0xA0 SHL SUB NOT AND CALLER SWAP1 DUP2 OR SWAP1 SWAP2 SSTORE SWAP2 MLOAD PUSH32 0xEFE0ED7B84AECA0B627EE9959EFB026AE6ABBBD4D68485F6B13BF0D872996A2D SWAP2 PUSH2 0x5BA SWAP2 DUP7 SWAP2 SWAP1 TIMESTAMP SWAP1 PUSH2 0x1B90 JUMP JUMPDEST CALLER PUSH1 0x0 SWAP1 DUP2 MSTORE PUSH1 0x20 DUP2 SWAP1 MSTORE PUSH1 0x40 SWAP1 KECCAK256 PUSH1 0x3 ADD SLOAD PUSH1 0xFF AND PUSH2 0x13C0 JUMPI PUSH1 0x40 MLOAD PUSH3 0x461BCD PUSH1 0xE5 SHL DUP2 MSTORE PUSH1 0x4 ADD PUSH2 0x41A SWAP1 PUSH2 0x1C61 JUMP JUMPDEST CALLER PUSH1 0x0 SWAP1 DUP2 MSTORE PUSH1 0x20 DUP2 SWAP1 MSTORE PUSH1 0x40 SWAP1 KECCAK256 PUSH1 0x1 DUP1 DUP3 ADD SLOAD PUSH1 0xFF AND PUSH1 0x3 DUP2 GT ISZERO PUSH2 0x13E9 JUMPI PUSH2 0x13E9 PUSH2 0x15E1 JUMP JUMPDEST EQ PUSH2 0x1406 JUMPI PUSH1 0x40 MLOAD PUSH3 0x461BCD PUSH1 0xE5 SHL DUP2 MSTORE PUSH1 0x4 ADD PUSH2 0x41A SWAP1 PUSH2 0x1CA8 JUMP JUMPDEST PUSH1 0x40 MLOAD PUSH1 0x0 SWAP1 PUSH2 0x141E SWAP1 DUP4 SWAP1 DUP7 SWAP1 DUP7 SWAP1 PUSH1 0x20 ADD PUSH2 0x1E05 JUMP JUMPDEST PUSH1 0x40 DUP1 MLOAD PUSH1 0x1F NOT DUP2 DUP5 SUB ADD DUP2 MSTORE SWAP2 DUP2 MSTORE DUP2 MLOAD PUSH1 0x20 SWAP3 DUP4 ADD KECCAK256 PUSH1 0x0 DUP2 DUP2 MSTORE PUSH1 0x3 SWAP1 SWAP4 MSTORE SWAP2 KECCAK256 PUSH1 0x4 DUP2 ADD SLOAD SWAP2 SWAP3 POP SWAP1 PUSH1 0xFF AND PUSH2 0x14A4 JUMPI PUSH1 0x40 MLOAD PUSH3 0x461BCD PUSH1 0xE5 SHL DUP2 MSTORE PUSH1 0x20 PUSH1 0x4 DUP3 ADD MSTORE PUSH1 0x21 PUSH1 0x24 DUP3 ADD MSTORE PUSH32 0x416363657373436F6E74726F6C3A20636F6E73656E74206E6F74206163746976 PUSH1 0x44 DUP3 ADD MSTORE PUSH1 0x65 PUSH1 0xF8 SHL PUSH1 0x64 DUP3 ADD MSTORE PUSH1 0x84 ADD PUSH2 0x41A JUMP JUMPDEST PUSH1 0x40 MLOAD PUSH2 0x14B2 SWAP1 DUP5 SWAP1 PUSH2 0x1C33 JUMP JUMPDEST PUSH1 0x40 MLOAD SWAP1 DUP2 SWAP1 SUB DUP2 KECCAK256 SWAP1 PUSH2 0x14C7 SWAP1 DUP4 SWAP1 PUSH2 0x1C33 JUMP JUMPDEST PUSH1 0x40 MLOAD DUP1 SWAP2 SUB SWAP1 KECCAK256 EQ PUSH2 0x152B JUMPI PUSH1 0x40 MLOAD PUSH3 0x461BCD PUSH1 0xE5 SHL DUP2 MSTORE PUSH1 0x20 PUSH1 0x4 DUP3 ADD MSTORE PUSH1 0x26 PUSH1 0x24 DUP3 ADD MSTORE PUSH32 0x416363657373436F6E74726F6C3A20756E617574686F72697A6564207265766F PUSH1 0x44 DUP3 ADD MSTORE PUSH6 0x31B0BA34B7B7 PUSH1 0xD1 SHL PUSH1 0x64 DUP3 ADD MSTORE PUSH1 0x84 ADD PUSH2 0x41A JUMP JUMPDEST PUSH1 0x4 DUP2 ADD DUP1 SLOAD PUSH1 0xFF NOT AND SWAP1 SSTORE PUSH1 0x40 MLOAD PUSH32 0x8B681DD6D55C9CD7E916D69D6DCA95E8C864037B55EC900DA7F8F73F67D7361F SWAP1 PUSH2 0x156D SWAP1 DUP6 SWAP1 DUP9 SWAP1 DUP9 SWAP1 TIMESTAMP SWAP1 PUSH2 0x1E30 JUMP JUMPDEST PUSH1 0x40 MLOAD DUP1 SWAP2 SUB SWAP1 LOG1 POP POP POP POP POP JUMP JUMPDEST PUSH1 0x0 DUP2 PUSH1 0x40 MLOAD PUSH1 0x20 ADD PUSH2 0x158F SWAP2 SWAP1 PUSH2 0x1F00 JUMP JUMPDEST PUSH1 0x40 MLOAD PUSH1 0x20 DUP2 DUP4 SUB SUB DUP2 MSTORE SWAP1 PUSH1 0x40 MSTORE DUP1 MLOAD SWAP1 PUSH1 0x20 ADD KECCAK256 SWAP1 POP SWAP2 SWAP1 POP JUMP JUMPDEST PUSH1 0x1 PUSH1 0x1 PUSH1 0xA0 SHL SUB DUP2 AND DUP2 EQ PUSH2 0x15C1 JUMPI PUSH1 0x0 DUP1 REVERT JUMPDEST POP JUMP JUMPDEST PUSH1 0x0 PUSH1 0x20 DUP3 DUP5 SUB SLT ISZERO PUSH2 0x15D6 JUMPI PUSH1 0x0 DUP1 REVERT JUMPDEST DUP2 CALLDATALOAD PUSH2 0x1149 DUP2 PUSH2 0x15AC JUMP JUMPDEST PUSH4 0x4E487B71 PUSH1 0xE0 SHL PUSH1 0x0 MSTORE PUSH1 0x21 PUSH1 0x4 MSTORE PUSH1 0x24 PUSH1 0x0 REVERT JUMPDEST PUSH1 0x4 DUP2 LT PUSH2 0x1615 JUMPI PUSH4 0x4E487B71 PUSH1 0xE0 SHL PUSH1 0x0 MSTORE PUSH1 0x21 PUSH1 0x4 MSTORE PUSH1 0x24 PUSH1 0x0 REVERT JUMPDEST SWAP1 MSTORE JUMP JUMPDEST PUSH1 0x20 DUP2 ADD PUSH2 0x1627 DUP3 DUP5 PUSH2 0x15F7 JUMP JUMPDEST SWAP3 SWAP2 POP POP JUMP JUMPDEST PUSH1 0x0 JUMPDEST DUP4 DUP2 LT ISZERO PUSH2 0x1648 JUMPI DUP2 DUP2 ADD MLOAD DUP4 DUP3 ADD MSTORE PUSH1 0x20 ADD PUSH2 0x1630 JUMP JUMPDEST POP POP PUSH1 0x0 SWAP2 ADD MSTORE JUMP JUMPDEST PUSH1 0x0 DUP2 MLOAD DUP1 DUP5 MSTORE PUSH2 0x1669 DUP2 PUSH1 0x20 DUP7 ADD PUSH1 0x20 DUP7 ADD PUSH2 0x162D JUMP JUMPDEST PUSH1 0x1F ADD PUSH1 0x1F NOT AND SWAP3 SWAP1 SWAP3 ADD PUSH1 0x20 ADD SWAP3 SWAP2 POP POP JUMP JUMPDEST PUSH1 0x20 DUP2 MSTORE PUSH1 0x0 DUP3 MLOAD PUSH1 0xA0 PUSH1 0x20 DUP5 ADD MSTORE PUSH2 0x1699 PUSH1 0xC0 DUP5 ADD DUP3 PUSH2 0x1651 JUMP JUMPDEST SWAP1 POP PUSH1 0x20 DUP5 ADD MLOAD PUSH2 0x16AD PUSH1 0x40 DUP6 ADD DUP3 PUSH2 0x15F7 JUMP JUMPDEST POP PUSH1 0x1 DUP1 PUSH1 0xA0 SHL SUB PUSH1 0x40 DUP6 ADD MLOAD AND PUSH1 0x60 DUP5 ADD MSTORE PUSH1 0x60 DUP5 ADD MLOAD PUSH1 0x80 DUP5 ADD MSTORE PUSH1 0x80 DUP5 ADD MLOAD ISZERO ISZERO PUSH1 0xA0 DUP5 ADD MSTORE DUP1 SWAP2 POP POP SWAP3 SWAP2 POP POP JUMP JUMPDEST PUSH4 0x4E487B71 PUSH1 0xE0 SHL PUSH1 0x0 MSTORE PUSH1 0x41 PUSH1 0x4 MSTORE PUSH1 0x24 PUSH1 0x0 REVERT JUMPDEST PUSH1 0x40 MLOAD PUSH1 0xC0 DUP2 ADD PUSH8 0xFFFFFFFFFFFFFFFF DUP2 GT DUP3 DUP3 LT OR ISZERO PUSH2 0x1719 JUMPI PUSH2 0x1719 PUSH2 0x16E0 JUMP JUMPDEST PUSH1 0x40 MSTORE SWAP1 JUMP JUMPDEST PUSH1 0x40 MLOAD PUSH1 0x1F DUP3 ADD PUSH1 0x1F NOT AND DUP2 ADD PUSH8 0xFFFFFFFFFFFFFFFF DUP2 GT DUP3 DUP3 LT OR ISZERO PUSH2 0x1748 JUMPI PUSH2 0x1748 PUSH2 0x16E0 JUMP JUMPDEST PUSH1 0x40 MSTORE SWAP2 SWAP1 POP JUMP JUMPDEST PUSH1 0x0 PUSH8 0xFFFFFFFFFFFFFFFF DUP3 GT ISZERO PUSH2 0x176A JUMPI PUSH2 0x176A PUSH2 0x16E0 JUMP JUMPDEST POP PUSH1 0x1F ADD PUSH1 0x1F NOT AND PUSH1 0x20 ADD SWAP1 JUMP JUMPDEST PUSH1 0x0 DUP3 PUSH1 0x1F DUP4 ADD SLT PUSH2 0x1789 JUMPI PUSH1 0x0 DUP1 REVERT JUMPDEST DUP2 CALLDATALOAD PUSH2 0x179C PUSH2 0x1797 DUP3 PUSH2 0x1750 JUMP JUMPDEST PUSH2 0x171F JUMP JUMPDEST DUP2 DUP2 MSTORE DUP5 PUSH1 0x20 DUP4 DUP7 ADD ADD GT ISZERO PUSH2 0x17B1 JUMPI PUSH1 0x0 DUP1 REVERT JUMPDEST DUP2 PUSH1 0x20 DUP6 ADD PUSH1 0x20 DUP4 ADD CALLDATACOPY PUSH1 0x0 SWAP2 DUP2 ADD PUSH1 0x20 ADD SWAP2 SWAP1 SWAP2 MSTORE SWAP4 SWAP3 POP POP POP JUMP JUMPDEST PUSH1 0x0 PUSH1 0x20 DUP3 DUP5 SUB SLT ISZERO PUSH2 0x17E0 JUMPI PUSH1 0x0 DUP1 REVERT JUMPDEST DUP2 CALLDATALOAD PUSH8 0xFFFFFFFFFFFFFFFF DUP2 GT ISZERO PUSH2 0x17F7 JUMPI PUSH1 0x0 DUP1 REVERT JUMPDEST PUSH2 0x1803 DUP5 DUP3 DUP6 ADD PUSH2 0x1778 JUMP JUMPDEST SWAP5 SWAP4 POP POP POP POP JUMP JUMPDEST PUSH1 0x0 DUP1 PUSH1 0x40 DUP4 DUP6 SUB SLT ISZERO PUSH2 0x181E JUMPI PUSH1 0x0 DUP1 REVERT JUMPDEST DUP3 CALLDATALOAD PUSH2 0x1829 DUP2 PUSH2 0x15AC JUMP JUMPDEST SWAP2 POP PUSH1 0x20 DUP4 ADD CALLDATALOAD PUSH8 0xFFFFFFFFFFFFFFFF DUP2 GT ISZERO PUSH2 0x1845 JUMPI PUSH1 0x0 DUP1 REVERT JUMPDEST PUSH2 0x1851 DUP6 DUP3 DUP7 ADD PUSH2 0x1778 JUMP JUMPDEST SWAP2 POP POP SWAP3 POP SWAP3 SWAP1 POP JUMP JUMPDEST PUSH1 0x0 DUP1 PUSH1 0x0 PUSH1 0x60 DUP5 DUP7 SUB SLT ISZERO PUSH2 0x1870 JUMPI PUSH1 0x0 DUP1 REVERT JUMPDEST DUP4 CALLDATALOAD PUSH8 0xFFFFFFFFFFFFFFFF DUP2 GT ISZERO PUSH2 0x1887 JUMPI PUSH1 0x0 DUP1 REVERT JUMPDEST PUSH2 0x1893 DUP7 DUP3 DUP8 ADD PUSH2 0x1778 JUMP JUMPDEST SWAP7 PUSH1 0x20 DUP7 ADD CALLDATALOAD SWAP7 POP PUSH1 0x40 SWAP1 SWAP6 ADD CALLDATALOAD SWAP5 SWAP4 POP POP POP POP JUMP JUMPDEST PUSH1 0x0 DUP1 PUSH1 0x0 PUSH1 0x60 DUP5 DUP7 SUB SLT ISZERO PUSH2 0x18BE JUMPI PUSH1 0x0 DUP1 REVERT JUMPDEST DUP4 CALLDATALOAD PUSH8 0xFFFFFFFFFFFFFFFF DUP1 DUP3 GT ISZERO PUSH2 0x18D6 JUMPI PUSH1 0x0 DUP1 REVERT JUMPDEST PUSH2 0x18E2 DUP8 DUP4 DUP9 ADD PUSH2 0x1778 JUMP JUMPDEST SWAP5 POP PUSH1 0x20 DUP7 ADD CALLDATALOAD SWAP2 POP DUP1 DUP3 GT ISZERO PUSH2 0x18F8 JUMPI PUSH1 0x0 DUP1 REVERT JUMPDEST POP PUSH2 0x1905 DUP7 DUP3 DUP8 ADD PUSH2 0x1778 JUMP JUMPDEST SWAP3 POP POP PUSH1 0x40 DUP5 ADD CALLDATALOAD SWAP1 POP SWAP3 POP SWAP3 POP SWAP3 JUMP JUMPDEST PUSH1 0x0 DUP1 PUSH1 0x40 DUP4 DUP6 SUB SLT ISZERO PUSH2 0x1929 JUMPI PUSH1 0x0 DUP1 REVERT JUMPDEST DUP3 CALLDATALOAD PUSH8 0xFFFFFFFFFFFFFFFF DUP2 GT ISZERO PUSH2 0x1940 JUMPI PUSH1 0x0 DUP1 REVERT JUMPDEST PUSH2 0x194C DUP6 DUP3 DUP7 ADD PUSH2 0x1778 JUMP JUMPDEST SWAP6 PUSH1 0x20 SWAP5 SWAP1 SWAP5 ADD CALLDATALOAD SWAP5 POP POP POP POP JUMP JUMPDEST PUSH1 0x1 DUP2 DUP2 SHR SWAP1 DUP3 AND DUP1 PUSH2 0x196F JUMPI PUSH1 0x7F DUP3 AND SWAP2 POP JUMPDEST PUSH1 0x20 DUP3 LT DUP2 SUB PUSH2 0x198F JUMPI PUSH4 0x4E487B71 PUSH1 0xE0 SHL PUSH1 0x0 MSTORE PUSH1 0x22 PUSH1 0x4 MSTORE PUSH1 0x24 PUSH1 0x0 REVERT JUMPDEST POP SWAP2 SWAP1 POP JUMP JUMPDEST PUSH1 0x20 DUP2 MSTORE PUSH1 0x0 PUSH2 0x1149 PUSH1 0x20 DUP4 ADD DUP5 PUSH2 0x1651 JUMP JUMPDEST PUSH1 0x0 PUSH1 0x20 DUP3 DUP5 SUB SLT ISZERO PUSH2 0x19BA JUMPI PUSH1 0x0 DUP1 REVERT JUMPDEST DUP2 MLOAD DUP1 ISZERO ISZERO DUP2 EQ PUSH2 0x1149 JUMPI PUSH1 0x0 DUP1 REVERT JUMPDEST PUSH1 0x20 DUP1 DUP3 MSTORE DUP2 DUP2 ADD MSTORE PUSH32 0x416363657373436F6E74726F6C3A20444944206973206E6F7420616374697665 PUSH1 0x40 DUP3 ADD MSTORE PUSH1 0x60 ADD SWAP1 JUMP JUMPDEST PUSH1 0x20 DUP1 DUP3 MSTORE PUSH1 0x21 SWAP1 DUP3 ADD MSTORE PUSH32 0x416363657373436F6E74726F6C3A20616C726561647920726567697374657265 PUSH1 0x40 DUP3 ADD MSTORE PUSH1 0x19 PUSH1 0xFA SHL PUSH1 0x60 DUP3 ADD MSTORE PUSH1 0x80 ADD SWAP1 JUMP JUMPDEST PUSH1 0x20 DUP1 DUP3 MSTORE PUSH1 0x21 SWAP1 DUP3 ADD MSTORE PUSH32 0x416363657373436F6E74726F6C3A2044494420616C726561647920696E207573 PUSH1 0x40 DUP3 ADD MSTORE PUSH1 0x65 PUSH1 0xF8 SHL PUSH1 0x60 DUP3 ADD MSTORE PUSH1 0x80 ADD SWAP1 JUMP JUMPDEST PUSH1 0x1F DUP3 GT ISZERO PUSH2 0x1ACB JUMPI PUSH1 0x0 DUP2 DUP2 MSTORE PUSH1 0x20 DUP2 KECCAK256 PUSH1 0x1F DUP6 ADD PUSH1 0x5 SHR DUP2 ADD PUSH1 0x20 DUP7 LT ISZERO PUSH2 0x1AA8 JUMPI POP DUP1 JUMPDEST PUSH1 0x1F DUP6 ADD PUSH1 0x5 SHR DUP3 ADD SWAP2 POP JUMPDEST DUP2 DUP2 LT ISZERO PUSH2 0x1AC7 JUMPI DUP3 DUP2 SSTORE PUSH1 0x1 ADD PUSH2 0x1AB4 JUMP JUMPDEST POP POP POP JUMPDEST POP POP POP JUMP JUMPDEST DUP2 MLOAD PUSH8 0xFFFFFFFFFFFFFFFF DUP2 GT ISZERO PUSH2 0x1AEA JUMPI PUSH2 0x1AEA PUSH2 0x16E0 JUMP JUMPDEST PUSH2 0x1AFE DUP2 PUSH2 0x1AF8 DUP5 SLOAD PUSH2 0x195B JUMP JUMPDEST DUP5 PUSH2 0x1A81 JUMP JUMPDEST PUSH1 0x20 DUP1 PUSH1 0x1F DUP4 GT PUSH1 0x1 DUP2 EQ PUSH2 0x1B33 JUMPI PUSH1 0x0 DUP5 ISZERO PUSH2 0x1B1B JUMPI POP DUP6 DUP4 ADD MLOAD JUMPDEST PUSH1 0x0 NOT PUSH1 0x3 DUP7 SWAP1 SHL SHR NOT AND PUSH1 0x1 DUP6 SWAP1 SHL OR DUP6 SSTORE PUSH2 0x1AC7 JUMP JUMPDEST PUSH1 0x0 DUP6 DUP2 MSTORE PUSH1 0x20 DUP2 KECCAK256 PUSH1 0x1F NOT DUP7 AND SWAP2 JUMPDEST DUP3 DUP2 LT ISZERO PUSH2 0x1B62 JUMPI DUP9 DUP7 ADD MLOAD DUP3 SSTORE SWAP5 DUP5 ADD SWAP5 PUSH1 0x1 SWAP1 SWAP2 ADD SWAP1 DUP5 ADD PUSH2 0x1B43 JUMP JUMPDEST POP DUP6 DUP3 LT ISZERO PUSH2 0x1B80 JUMPI DUP8 DUP6 ADD MLOAD PUSH1 0x0 NOT PUSH1 0x3 DUP9 SWAP1 SHL PUSH1 0xF8 AND SHR NOT AND DUP2 SSTORE JUMPDEST POP POP POP POP POP PUSH1 0x1 SWAP1 DUP2 SHL ADD SWAP1 SSTORE POP JUMP JUMPDEST PUSH1 0x60 DUP2 MSTORE PUSH1 0x0 PUSH2 0x1BA3 PUSH1 0x60 DUP4 ADD DUP7 PUSH2 0x1651 JUMP JUMPDEST SWAP1 POP PUSH2 0x1BB2 PUSH1 0x20 DUP4 ADD DUP6 PUSH2 0x15F7 JUMP JUMPDEST DUP3 PUSH1 0x40 DUP4 ADD MSTORE SWAP5 SWAP4 POP POP POP POP JUMP JUMPDEST PUSH1 0x0 DUP2 SLOAD PUSH2 0x1BCD DUP2 PUSH2 0x195B JUMP JUMPDEST PUSH1 0x1 DUP3 DUP2 AND DUP1 ISZERO PUSH2 0x1BE5 JUMPI PUSH1 0x1 DUP2 EQ PUSH2 0x1BFA JUMPI PUSH2 0x1C29 JUMP JUMPDEST PUSH1 0xFF NOT DUP5 AND DUP8 MSTORE DUP3 ISZERO ISZERO DUP4 MUL DUP8 ADD SWAP5 POP PUSH2 0x1C29 JUMP JUMPDEST DUP6 PUSH1 0x0 MSTORE PUSH1 0x20 DUP1 PUSH1 0x0 KECCAK256 PUSH1 0x0 JUMPDEST DUP6 DUP2 LT ISZERO PUSH2 0x1C20 JUMPI DUP2 SLOAD DUP11 DUP3 ADD MSTORE SWAP1 DUP5 ADD SWAP1 DUP3 ADD PUSH2 0x1C07 JUMP JUMPDEST POP POP POP DUP3 DUP8 ADD SWAP5 POP JUMPDEST POP POP POP POP SWAP3 SWAP2 POP POP JUMP JUMPDEST PUSH1 0x0 PUSH2 0x1149 DUP3 DUP5 PUSH2 0x1BC0 JUMP JUMPDEST PUSH1 0x40 DUP2 MSTORE PUSH1 0x0 PUSH2 0x1C52 PUSH1 0x40 DUP4 ADD DUP6 PUSH2 0x1651 JUMP JUMPDEST SWAP1 POP DUP3 PUSH1 0x20 DUP4 ADD MSTORE SWAP4 SWAP3 POP POP POP JUMP JUMPDEST PUSH1 0x20 DUP1 DUP3 MSTORE PUSH1 0x27 SWAP1 DUP3 ADD MSTORE PUSH32 0x416363657373436F6E74726F6C3A2043616C6C6572206973206E6F7420726567 PUSH1 0x40 DUP3 ADD MSTORE PUSH7 0x1A5CDD195C9959 PUSH1 0xCA SHL PUSH1 0x60 DUP3 ADD MSTORE PUSH1 0x80 ADD SWAP1 JUMP JUMPDEST PUSH1 0x20 DUP1 DUP3 MSTORE PUSH1 0x25 SWAP1 DUP3 ADD MSTORE PUSH32 0x416363657373436F6E74726F6C3A2063616C6C6572206973206E6F7420612068 PUSH1 0x40 DUP3 ADD MSTORE PUSH5 0x37B63232B9 PUSH1 0xD9 SHL PUSH1 0x60 DUP3 ADD MSTORE PUSH1 0x80 ADD SWAP1 JUMP JUMPDEST DUP1 MLOAD PUSH2 0x1CF8 DUP2 PUSH2 0x15AC JUMP JUMPDEST SWAP2 SWAP1 POP JUMP JUMPDEST PUSH1 0x0 DUP3 PUSH1 0x1F DUP4 ADD SLT PUSH2 0x1D0E JUMPI PUSH1 0x0 DUP1 REVERT JUMPDEST DUP2 MLOAD PUSH2 0x1D1C PUSH2 0x1797 DUP3 PUSH2 0x1750 JUMP JUMPDEST DUP2 DUP2 MSTORE DUP5 PUSH1 0x20 DUP4 DUP7 ADD ADD GT ISZERO PUSH2 0x1D31 JUMPI PUSH1 0x0 DUP1 REVERT JUMPDEST PUSH2 0x1803 DUP3 PUSH1 0x20 DUP4 ADD PUSH1 0x20 DUP8 ADD PUSH2 0x162D JUMP JUMPDEST PUSH1 0x0 PUSH1 0x20 DUP3 DUP5 SUB SLT ISZERO PUSH2 0x1D54 JUMPI PUSH1 0x0 DUP1 REVERT JUMPDEST DUP2 MLOAD PUSH8 0xFFFFFFFFFFFFFFFF DUP1 DUP3 GT ISZERO PUSH2 0x1D6C JUMPI PUSH1 0x0 DUP1 REVERT JUMPDEST SWAP1 DUP4 ADD SWAP1 PUSH1 0xC0 DUP3 DUP7 SUB SLT ISZERO PUSH2 0x1D80 JUMPI PUSH1 0x0 DUP1 REVERT JUMPDEST PUSH2 0x1D88 PUSH2 0x16F6 JUMP JUMPDEST PUSH2 0x1D91 DUP4 PUSH2 0x1CED JUMP JUMPDEST DUP2 MSTORE PUSH1 0x20 DUP4 ADD MLOAD DUP3 DUP2 GT ISZERO PUSH2 0x1DA5 JUMPI PUSH1 0x0 DUP1 REVERT JUMPDEST PUSH2 0x1DB1 DUP8 DUP3 DUP7 ADD PUSH2 0x1CFD JUMP JUMPDEST PUSH1 0x20 DUP4 ADD MSTORE POP PUSH1 0x40 DUP4 ADD MLOAD PUSH1 0x40 DUP3 ADD MSTORE PUSH1 0x60 DUP4 ADD MLOAD DUP3 DUP2 GT ISZERO PUSH2 0x1DD3 JUMPI PUSH1 0x0 DUP1 REVERT JUMPDEST PUSH2 0x1DDF DUP8 DUP3 DUP7 ADD PUSH2 0x1CFD JUMP JUMPDEST PUSH1 0x60 DUP4 ADD MSTORE POP PUSH1 0x80 DUP4 ADD MLOAD PUSH1 0x80 DUP3 ADD MSTORE PUSH1 0xA0 DUP4 ADD MLOAD PUSH1 0xA0 DUP3 ADD MSTORE DUP1 SWAP4 POP POP POP POP SWAP3 SWAP2 POP POP JUMP JUMPDEST PUSH1 0x0 PUSH2 0x1E11 DUP3 DUP7 PUSH2 0x1BC0 JUMP JUMPDEST DUP5 MLOAD PUSH2 0x1E21 DUP2 DUP4 PUSH1 0x20 DUP10 ADD PUSH2 0x162D JUMP JUMPDEST ADD SWAP3 DUP4 MSTORE POP POP PUSH1 0x20 ADD SWAP3 SWAP2 POP POP JUMP JUMPDEST PUSH1 0x80 DUP2 MSTORE PUSH1 0x0 DUP1 DUP7 SLOAD PUSH2 0x1E42 DUP2 PUSH2 0x195B JUMP JUMPDEST DUP1 PUSH1 0x80 DUP7 ADD MSTORE PUSH1 0xA0 PUSH1 0x1 DUP1 DUP5 AND PUSH1 0x0 DUP2 EQ PUSH2 0x1E64 JUMPI PUSH1 0x1 DUP2 EQ PUSH2 0x1E7E JUMPI PUSH2 0x1EAF JUMP JUMPDEST PUSH1 0xFF NOT DUP6 AND DUP9 DUP5 ADD MSTORE DUP4 ISZERO ISZERO PUSH1 0x5 SHL DUP9 ADD DUP4 ADD SWAP6 POP PUSH2 0x1EAF JUMP JUMPDEST DUP12 PUSH1 0x0 MSTORE PUSH1 0x20 DUP1 PUSH1 0x0 KECCAK256 PUSH1 0x0 JUMPDEST DUP7 DUP2 LT ISZERO PUSH2 0x1EA6 JUMPI DUP2 SLOAD DUP12 DUP3 ADD DUP8 ADD MSTORE SWAP1 DUP5 ADD SWAP1 DUP3 ADD PUSH2 0x1E8B JUMP JUMPDEST DUP11 ADD DUP6 ADD SWAP8 POP POP POP JUMPDEST POP POP POP POP POP DUP3 DUP2 SUB PUSH1 0x20 DUP5 ADD MSTORE PUSH2 0x1EC6 DUP2 DUP8 PUSH2 0x1651 JUMP JUMPDEST PUSH1 0x40 DUP5 ADD SWAP6 SWAP1 SWAP6 MSTORE POP POP PUSH1 0x60 ADD MSTORE SWAP3 SWAP2 POP POP JUMP JUMPDEST PUSH1 0x0 DUP5 MLOAD PUSH2 0x1EEC DUP2 DUP5 PUSH1 0x20 DUP10 ADD PUSH2 0x162D JUMP JUMPDEST DUP5 MLOAD SWAP1 DUP4 ADD SWAP1 PUSH2 0x1E21 DUP2 DUP4 PUSH1 0x20 DUP10 ADD PUSH2 0x162D JUMP JUMPDEST PUSH1 0x0 DUP3 MLOAD PUSH2 0x1F12 DUP2 DUP5 PUSH1 0x20 DUP8 ADD PUSH2 0x162D JUMP JUMPDEST SWAP2 SWAP1 SWAP2 ADD SWAP3 SWAP2 POP POP JUMP INVALID LOG2 PUSH5 0x6970667358 0x22 SLT KECCAK256 LOG1 0xB2 DUP6 0xDF 0xAF SWAP14 PUSH4 0xCEFA81BA 0xBD 0xDC 0xC SUB CALLER SSTORE 0x21 MSTORE JUMPDEST SLOAD 0xB6 PUSH12 0xE40C2620991CBCDD7864736F PUSH13 0x63430008140033000000000000 "},"methodIdentifiers":{"authorizeIssuer(address,string)":"7f8d3a3c","credentialStatus()":"e2631fb4","didRegistry()":"577f9fb1","getRole(address)":"44276733","getStakeholder(address)":"62afde25","grantConsent(string,bytes32,uint256)":"822f96ec","hasConsent(string,string,bytes32)":"902827ef","registerAsHolder(string)":"73835bbc","registerAsVerifier(string)":"93151dd5","revokeConsent(string,bytes32)":"963bce87","superAdmin()":"29575f6a"}}}}}