{"contracts/DIDRegistry.sol":{"DIDRegistry":{"abi":[{"anonymous":false,"inputs":[{"indexed":true,"internalType":"string","name":"did","type":"string"},{"indexed":true,"internalType":"address","name":"controller","type":"address"},{"indexed":false,"internalType":"uint256","name":"timestamp","type":"uint256"}],"name":"DIDDeactivated","type":"event"},{"anonymous":false,"inputs":[{"indexed":true,"internalType":"string","name":"did","type":"string"},{"indexed":true,"internalType":"address","name":"controller","type":"address"},{"indexed":false,"internalType":"uint256","name":"timestamp","type":"uint256"}],"name":"DIDRegistered","type":"event"},{"anonymous":false,"inputs":[{"indexed":true,"internalType":"string","name":"did","type":"string"},{"indexed":true,"internalType":"address","name":"controller","type":"address"},{"indexed":false,"internalType":"uint256","name":"timestamp","type":"uint256"}],"name":"DIDUpdated","type":"event"},{"inputs":[{"internalType":"string","name":"did","type":"string"},{"components":[{"internalType":"string","name":"keyId","type":"string"},{"internalType":"string","name":"keyType","type":"string"},{"internalType":"address","name":"controller","type":"address"},{"internalType":"string","name":"publicKeyHex","type":"string"}],"internalType":"struct DIDRegistry.PublicKey","name":"newKey","type":"tuple"}],"name":"addPublicKey","outputs":[],"stateMutability":"nonpayable","type":"function"},{"inputs":[{"internalType":"string","name":"did","type":"string"},{"components":[{"internalType":"string","name":"serviceId","type":"string"},{"internalType":"string","name":"serviceType","type":"string"},{"internalType":"string","name":"endpoint","type":"string"}],"internalType":"struct DIDRegistry.ServiceEndpoint","name":"service","type":"tuple"}],"name":"addServiceEndpoint","outputs":[],"stateMutability":"nonpayable","type":"function"},{"inputs":[{"internalType":"string","name":"did","type":"string"}],"name":"deactivateDID","outputs":[],"stateMutability":"nonpayable","type":"function"},{"inputs":[{"internalType":"address","name":"controller","type":"address"}],"name":"getDIDsByController","outputs":[{"internalType":"string[]","name":"","type":"string[]"}],"stateMutability":"view","type":"function"},{"inputs":[{"internalType":"string","name":"did","type":"string"}],"name":"isDIDActive","outputs":[{"internalType":"bool","name":"","type":"bool"}],"stateMutability":"view","type":"function"},{"inputs":[{"internalType":"string","name":"did","type":"string"},{"components":[{"internalType":"string","name":"keyId","type":"string"},{"internalType":"string","name":"keyType","type":"string"},{"internalType":"address","name":"controller","type":"address"},{"internalType":"string","name":"publicKeyHex","type":"string"}],"internalType":"struct DIDRegistry.PublicKey","name":"initialPublicKey","type":"tuple"},{"components":[{"internalType":"string","name":"serviceId","type":"string"},{"internalType":"string","name":"serviceType","type":"string"},{"internalType":"string","name":"endpoint","type":"string"}],"internalType":"struct DIDRegistry.ServiceEndpoint","name":"initialService","type":"tuple"}],"name":"registerDID","outputs":[],"stateMutability":"nonpayable","type":"function"},{"inputs":[{"internalType":"string","name":"did","type":"string"}],"name":"resolveDID","outputs":[{"components":[{"internalType":"address","name":"controller","type":"address"},{"internalType":"uint256","name":"created","type":"uint256"},{"internalType":"uint256","name":"updated","type":"uint256"},{"internalType":"bool","name":"active","type":"bool"},{"components":[{"internalType":"string","name":"keyId","type":"string"},{"internalType":"string","name":"keyType","type":"string"},{"internalType":"address","name":"controller","type":"address"},{"internalType":"string","name":"publicKeyHex","type":"string"}],"internalType":"struct DIDRegistry.PublicKey[]","name":"publicKeys","type":"tuple[]"},{"components":[{"internalType":"string","name":"serviceId","type":"string"},{"internalType":"string","name":"serviceType","type":"string"},{"internalType":"string","name":"endpoint","type":"string"}],"internalType":"struct DIDRegistry.ServiceEndpoint[]","name":"serviceEndpoints","type":"tuple[]"}],"internalType":"struct DIDRegistry.DIDDocument","name":"","type":"tuple"}],"stateMutability":"view","type":"function"}],"evm":{"bytecode":{"linkReferences":{},"object":"608060405234801561001057600080fd5b5061193b806100206000396000f3fe608060405234801561001057600080fd5b506004361061007d5760003560e01c80636d78a6771161005b5780636d78a677146100d25780639cd187f5146100e55780639d7f0bbf146100f8578063b363cff31461011857600080fd5b80630460d92a1461008257806320c9d73a146100975780633b253b23146100bf575b600080fd5b610095610090366004611232565b610138565b005b6100aa6100a5366004611296565b610417565b60405190151581526020015b60405180910390f35b6100956100cd366004611296565b610474565b6100956100e0366004611382565b6105c6565b6100956100f33660046113dc565b610808565b61010b610106366004611296565b610aa4565b6040516100b6919061154a565b61012b61012636600461165b565b610fc4565b6040516100b6919061167d565b8160018160405161014991906116df565b9081526040519081900360200190205460ff166101815760405162461bcd60e51b8152600401610178906116fb565b60405180910390fd5b336001600160a01b031660008260405161019b91906116df565b908152604051908190036020019020546001600160a01b0316146101d15760405162461bcd60e51b815260040161017890611732565b6000816040516101e191906116df565b9081526040519081900360200190206003015460ff166102135760405162461bcd60e51b815260040161017890611777565b8151516102625760405162461bcd60e51b815260206004820152601860248201527f44494452656769737472793a20656d707479206b6579496400000000000000006044820152606401610178565b6000826020015151116102b75760405162461bcd60e51b815260206004820152601a60248201527f44494452656769737472793a20656d707479206b6579547970650000000000006044820152606401610178565b60408201516001600160a01b0316331461031f5760405162461bcd60e51b8152602060048201526024808201527f44494452656769737472793a206b657920636f6e74726f6c6c6572206d69736d6044820152630c2e8c6d60e31b6064820152608401610178565b6000808460405161033091906116df565b90815260405160209181900382019020600480820180546001810182556000918252939020865192945086939091020190819061036d9082611845565b50602082015160018201906103829082611845565b5060408201516002820180546001600160a01b0319166001600160a01b03909216919091179055606082015160038201906103bd9082611845565b50504260028301555060405133906103d69086906116df565b604051908190038120428252907f42c534984d94b2e4102caa5b874e5f3edd48af284d3095c79c4aa7eeca5164e5906020015b60405180910390a350505050565b600060018260405161042991906116df565b9081526040519081900360200190205460ff1661044857506000919050565b60008260405161045891906116df565b9081526040519081900360200190206003015460ff1692915050565b8060018160405161048591906116df565b9081526040519081900360200190205460ff166104b45760405162461bcd60e51b8152600401610178906116fb565b336001600160a01b03166000826040516104ce91906116df565b908152604051908190036020019020546001600160a01b0316146105045760405162461bcd60e51b815260040161017890611732565b60008160405161051491906116df565b9081526040519081900360200190206003015460ff166105465760405162461bcd60e51b815260040161017890611777565b6000808360405161055791906116df565b90815260405190819003602001812060038101805460ff19169055426002820155915033906105879085906116df565b604051908190038120428252907f350825843b22939d489c861b0713f74681d5f60d3f92b89b839e2b2928baed3e9060200160405180910390a3505050565b816001816040516105d791906116df565b9081526040519081900360200190205460ff166106065760405162461bcd60e51b8152600401610178906116fb565b336001600160a01b031660008260405161062091906116df565b908152604051908190036020019020546001600160a01b0316146106565760405162461bcd60e51b815260040161017890611732565b60008160405161066691906116df565b9081526040519081900360200190206003015460ff166106985760405162461bcd60e51b815260040161017890611777565b8151516106e75760405162461bcd60e51b815260206004820152601c60248201527f44494452656769737472793a20656d70747920736572766963654964000000006044820152606401610178565b60008260200151511161073c5760405162461bcd60e51b815260206004820152601e60248201527f44494452656769737472793a20656d70747920736572766963655479706500006044820152606401610178565b6000826040015151116107915760405162461bcd60e51b815260206004820152601b60248201527f44494452656769737472793a20656d70747920656e64706f696e7400000000006044820152606401610178565b600080846040516107a291906116df565b90815260405160209181900382019020600581018054600181018255600091825292902085519193508592600302019081906107de9082611845565b50602082015160018201906107f39082611845565b50604082015160028201906103bd9082611845565b60008351116108525760405162461bcd60e51b8152602060048201526016602482015275111251149959da5cdd1c9e4e88195b5c1d1e4811125160521b6044820152606401610178565b60018360405161086291906116df565b9081526040519081900360200190205460ff16156108ce5760405162461bcd60e51b815260206004820152602360248201527f44494452656769737472793a2044494420616c726561647920726567697374656044820152621c995960ea1b6064820152608401610178565b600080846040516108df91906116df565b90815260405190819003602090810190912080546001600160a01b03191633178155426001808301829055600283019190915560038201805460ff19168217905560048083018054928301815560009081529390932086519294508693919091020190819061094e9082611845565b50602082015160018201906109639082611845565b5060408201516002820180546001600160a01b0319166001600160a01b039092169190911790556060820151600382019061099e9082611845565b5050825151159050610a055760058101805460018101825560009182526020909120835184926003029091019081906109d79082611845565b50602082015160018201906109ec9082611845565b5060408201516002820190610a019082611845565b5050505b60018085604051610a1691906116df565b9081526040805160209281900383019020805460ff191693151593909317909255336000908152600282529182208054600181018255908352912001610a5c8582611845565b506040513390610a6d9086906116df565b604051908190038120428252907f2247d854a9f35bfa7df0a5fd500079f0ceb7a58d0c7ad79f1c49d1a4d27eae4a90602001610409565b610ae86040518060c0016040528060006001600160a01b03168152602001600081526020016000815260200160001515815260200160608152602001606081525090565b600182604051610af891906116df565b9081526040519081900360200190205460ff16610b275760405162461bcd60e51b8152600401610178906116fb565b600082604051610b3791906116df565b90815260408051918290036020908101832060c08401835280546001600160a01b03168452600181015484830152600281015484840152600381015460ff16151560608501526004810180548451818502810185019095528085529193608086019390929060009084015b82821015610da15783829060005260206000209060040201604051806080016040529081600082018054610bd5906117bc565b80601f0160208091040260200160405190810160405280929190818152602001828054610c01906117bc565b8015610c4e5780601f10610c2357610100808354040283529160200191610c4e565b820191906000526020600020905b815481529060010190602001808311610c3157829003601f168201915b50505050508152602001600182018054610c67906117bc565b80601f0160208091040260200160405190810160405280929190818152602001828054610c93906117bc565b8015610ce05780601f10610cb557610100808354040283529160200191610ce0565b820191906000526020600020905b815481529060010190602001808311610cc357829003601f168201915b505050918352505060028201546001600160a01b03166020820152600382018054604090920191610d10906117bc565b80601f0160208091040260200160405190810160405280929190818152602001828054610d3c906117bc565b8015610d895780601f10610d5e57610100808354040283529160200191610d89565b820191906000526020600020905b815481529060010190602001808311610d6c57829003601f168201915b50505050508152505081526020019060010190610ba2565b50505050815260200160058201805480602002602001604051908101604052809291908181526020016000905b82821015610fb65783829060005260206000209060030201604051806060016040529081600082018054610e01906117bc565b80601f0160208091040260200160405190810160405280929190818152602001828054610e2d906117bc565b8015610e7a5780601f10610e4f57610100808354040283529160200191610e7a565b820191906000526020600020905b815481529060010190602001808311610e5d57829003601f168201915b50505050508152602001600182018054610e93906117bc565b80601f0160208091040260200160405190810160405280929190818152602001828054610ebf906117bc565b8015610f0c5780601f10610ee157610100808354040283529160200191610f0c565b820191906000526020600020905b815481529060010190602001808311610eef57829003601f168201915b50505050508152602001600282018054610f25906117bc565b80601f0160208091040260200160405190810160405280929190818152602001828054610f51906117bc565b8015610f9e5780601f10610f7357610100808354040283529160200191610f9e565b820191906000526020600020905b815481529060010190602001808311610f8157829003601f168201915b50505050508152505081526020019060010190610dce565b505050915250909392505050565b6001600160a01b0381166000908152600260209081526040808320805482518185028101850190935280835260609492939192909184015b828210156110a857838290600052602060002001805461101b906117bc565b80601f0160208091040260200160405190810160405280929190818152602001828054611047906117bc565b80156110945780601f1061106957610100808354040283529160200191611094565b820191906000526020600020905b81548152906001019060200180831161107757829003601f168201915b505050505081526020019060010190610ffc565b505050509050919050565b634e487b7160e01b600052604160045260246000fd5b600082601f8301126110da57600080fd5b813567ffffffffffffffff808211156110f5576110f56110b3565b604051601f8301601f19908116603f0116810190828211818310171561111d5761111d6110b3565b8160405283815286602085880101111561113657600080fd5b836020870160208301376000602085830101528094505050505092915050565b80356001600160a01b038116811461116d57600080fd5b919050565b60006080828403121561118457600080fd5b6040516080810167ffffffffffffffff82821081831117156111a8576111a86110b3565b8160405282935084359150808211156111c057600080fd5b6111cc868387016110c9565b835260208501359150808211156111e257600080fd5b6111ee868387016110c9565b60208401526111ff60408601611156565b6040840152606085013591508082111561121857600080fd5b50611225858286016110c9565b6060830152505092915050565b6000806040838503121561124557600080fd5b823567ffffffffffffffff8082111561125d57600080fd5b611269868387016110c9565b9350602085013591508082111561127f57600080fd5b5061128c85828601611172565b9150509250929050565b6000602082840312156112a857600080fd5b813567ffffffffffffffff8111156112bf57600080fd5b6112cb848285016110c9565b949350505050565b6000606082840312156112e557600080fd5b6040516060810167ffffffffffffffff8282108183111715611309576113096110b3565b81604052829350843591508082111561132157600080fd5b61132d868387016110c9565b8352602085013591508082111561134357600080fd5b61134f868387016110c9565b6020840152604085013591508082111561136857600080fd5b50611375858286016110c9565b6040830152505092915050565b6000806040838503121561139557600080fd5b823567ffffffffffffffff808211156113ad57600080fd5b6113b9868387016110c9565b935060208501359150808211156113cf57600080fd5b5061128c858286016112d3565b6000806000606084860312156113f157600080fd5b833567ffffffffffffffff8082111561140957600080fd5b611415878388016110c9565b9450602086013591508082111561142b57600080fd5b61143787838801611172565b9350604086013591508082111561144d57600080fd5b5061145a868287016112d3565b9150509250925092565b60005b8381101561147f578181015183820152602001611467565b50506000910152565b600081518084526114a0816020860160208601611464565b601f01601f19169290920160200192915050565b600081518084526020808501808196508360051b8101915082860160005b8581101561153d5782840389528151606081518187526114f482880182611488565b915050868201518682038888015261150c8282611488565b915050604080830151925086820381880152506115298183611488565b9a87019a95505050908401906001016114d2565b5091979650505050505050565b6000602080835260e0830160018060a01b0380865116838601528286015160408181880152808801519150606082818901528089015192506080831515818a0152808a0151935060c060a08a01528584518088526101009750878b019150878160051b8c01019750888601955060005b8181101561162d578b890360ff1901835286518051858b526115de868c0182611488565b90508b8201518b82038d8d01526115f58282611488565b915050898883015116888c01528682015191508a8103878c01526116198183611488565b9a50505095890195918901916001016115ba565b505050505050505060a08501519150601f198482030160c085015261165281836114b4565b95945050505050565b60006020828403121561166d57600080fd5b61167682611156565b9392505050565b6000602080830181845280855180835260408601915060408160051b870101925083870160005b828110156116d257603f198886030184526116c0858351611488565b945092850192908501906001016116a4565b5092979650505050505050565b600082516116f1818460208701611464565b9190910192915050565b6020808252601f908201527f44494452656769737472793a20444944206e6f74207265676973746572656400604082015260600190565b60208082526025908201527f44494452656769737472793a2043616c6c6572206973206e6f7420636f6e747260408201526437b63632b960d91b606082015260800190565b60208082526025908201527f44494452656769737472793a2044494420686173206265656e206465616374696040820152641d985d195960da1b606082015260800190565b600181811c908216806117d057607f821691505b6020821081036117f057634e487b7160e01b600052602260045260246000fd5b50919050565b601f82111561184057600081815260208120601f850160051c8101602086101561181d5750805b601f850160051c820191505b8181101561183c57828155600101611829565b5050505b505050565b815167ffffffffffffffff81111561185f5761185f6110b3565b6118738161186d84546117bc565b846117f6565b602080601f8311600181146118a857600084156118905750858301515b600019600386901b1c1916600185901b17855561183c565b600085815260208120601f198616915b828110156118d7578886015182559484019460019091019084016118b8565b50858210156118f55787850151600019600388901b60f8161c191681555b5050505050600190811b0190555056fea26469706673582212200ed44fb0c12ad16ef2c882dfee6414b67698c21f3ee200f7669b97c6dedc4af464736f6c63430008140033","opcodes":"PUSH1 0x80 PUSH1 0x40 MSTORE CALLVALUE DUP1 ISZERO PUSH2 0x10 JUMPI PUSH1 0x0 DUP1 REVERT JUMPDEST POP PUSH2 0x193B DUP1 PUSH2 0x20 PUSH1 0x0 CODECOPY PUSH1 0x0 RETURN INVALID PUSH1 0x80 PUSH1 0x40 MSTORE CALLVALUE DUP1 ISZERO PUSH2 0x10 JUMPI PUSH1 0x0 DUP1 REVERT JUMPDEST POP PUSH1 0x4 CALLDATASIZE LT PUSH2 0x7D JUMPI PUSH1 0x0 CALLDATALOAD PUSH1 0xE0 SHR DUP1 PUSH4 0x6D78A677 GT PUSH2 0x5B JUMPI DUP1 PUSH4 0x6D78A677 EQ PUSH2 0xD2 JUMPI DUP1 PUSH4 0x9CD187F5 EQ PUSH2 0xE5 JUMPI DUP1 PUSH4 0x9D7F0BBF EQ PUSH2 0xF8 JUMPI DUP1 PUSH4 0xB363CFF3 EQ PUSH2 0x118 JUMPI PUSH1 0x0 DUP1 REVERT JUMPDEST DUP1 PUSH4 0x460D92A EQ PUSH2 0x82 JUMPI DUP1 PUSH4 0x20C9D73A EQ PUSH2 0x97 JUMPI DUP1 PUSH4 0x3B253B23 EQ PUSH2 0xBF JUMPI JUMPDEST PUSH1 0x0 DUP1 REVERT JUMPDEST PUSH2 0x95 PUSH2 0x90 CALLDATASIZE PUSH1 0x4 PUSH2 0x1232 JUMP JUMPDEST PUSH2 0x138 JUMP JUMPDEST STOP JUMPDEST PUSH2 0xAA PUSH2 0xA5 CALLDATASIZE PUSH1 0x4 PUSH2 0x1296 JUMP JUMPDEST PUSH2 0x417 JUMP JUMPDEST PUSH1 0x40 MLOAD SWAP1 ISZERO ISZERO DUP2 MSTORE PUSH1 0x20 ADD JUMPDEST PUSH1 0x40 MLOAD DUP1 SWAP2 SUB SWAP1 RETURN JUMPDEST PUSH2 0x95 PUSH2 0xCD CALLDATASIZE PUSH1 0x4 PUSH2 0x1296 JUMP JUMPDEST PUSH2 0x474 JUMP JUMPDEST PUSH2 0x95 PUSH2 0xE0 CALLDATASIZE PUSH1 0x4 PUSH2 0x1382 JUMP JUMPDEST PUSH2 0x5C6 JUMP JUMPDEST PUSH2 0x95 PUSH2 0xF3 CALLDATASIZE PUSH1 0x4 PUSH2 0x13DC JUMP JUMPDEST PUSH2 0x808 JUMP JUMPDEST PUSH2 0x10B PUSH2 0x106 CALLDATASIZE PUSH1 0x4 PUSH2 0x1296 JUMP JUMPDEST PUSH2 0xAA4 JUMP JUMPDEST PUSH1 0x40 MLOAD PUSH2 0xB6 SWAP2 SWAP1 PUSH2 0x154A JUMP JUMPDEST PUSH2 0x12B PUSH2 0x126 CALLDATASIZE PUSH1 0x4 PUSH2 0x165B JUMP JUMPDEST PUSH2 0xFC4 JUMP JUMPDEST PUSH1 0x40 MLOAD PUSH2 0xB6 SWAP2 SWAP1 PUSH2 0x167D JUMP JUMPDEST DUP2 PUSH1 0x1 DUP2 PUSH1 0x40 MLOAD PUSH2 0x149 SWAP2 SWAP1 PUSH2 0x16DF JUMP JUMPDEST SWAP1 DUP2 MSTORE PUSH1 0x40 MLOAD SWAP1 DUP2 SWAP1 SUB PUSH1 0x20 ADD SWAP1 KECCAK256 SLOAD PUSH1 0xFF AND PUSH2 0x181 JUMPI PUSH1 0x40 MLOAD PUSH3 0x461BCD PUSH1 0xE5 SHL DUP2 MSTORE PUSH1 0x4 ADD PUSH2 0x178 SWAP1 PUSH2 0x16FB JUMP JUMPDEST PUSH1 0x40 MLOAD DUP1 SWAP2 SUB SWAP1 REVERT JUMPDEST CALLER PUSH1 0x1 PUSH1 0x1 PUSH1 0xA0 SHL SUB AND PUSH1 0x0 DUP3 PUSH1 0x40 MLOAD PUSH2 0x19B SWAP2 SWAP1 PUSH2 0x16DF JUMP JUMPDEST SWAP1 DUP2 MSTORE PUSH1 0x40 MLOAD SWAP1 DUP2 SWAP1 SUB PUSH1 0x20 ADD SWAP1 KECCAK256 SLOAD PUSH1 0x1 PUSH1 0x1 PUSH1 0xA0 SHL SUB AND EQ PUSH2 0x1D1 JUMPI PUSH1 0x40 MLOAD PUSH3 0x461BCD PUSH1 0xE5 SHL DUP2 MSTORE PUSH1 0x4 ADD PUSH2 0x178 SWAP1 PUSH2 0x1732 JUMP JUMPDEST PUSH1 0x0 DUP2 PUSH1 0x40 MLOAD PUSH2 0x1E1 SWAP2 SWAP1 PUSH2 0x16DF JUMP JUMPDEST SWAP1 DUP2 MSTORE PUSH1 0x40 MLOAD SWAP1 DUP2 SWAP1 SUB PUSH1 0x20 ADD SWAP1 KECCAK256 PUSH1 0x3 ADD SLOAD PUSH1 0xFF AND PUSH2 0x213 JUMPI PUSH1 0x40 MLOAD PUSH3 0x461BCD PUSH1 0xE5 SHL DUP2 MSTORE PUSH1 0x4 ADD PUSH2 0x178 SWAP1 PUSH2 0x1777 JUMP JUMPDEST DUP2 MLOAD MLOAD PUSH2 0x262 JUMPI PUSH1 0x40 MLOAD PUSH3 0x461BCD PUSH1 0xE5 SHL DUP2 MSTORE PUSH1 0x20 PUSH1 0x4 DUP3 ADD MSTORE PUSH1 0x18 PUSH1 0x24 DUP3 ADD MSTORE PUSH32 0x44494452656769737472793A20656D707479206B657949640000000000000000 PUSH1 0x44 DUP3 ADD MSTORE PUSH1 0x64 ADD PUSH2 0x178 JUMP JUMPDEST PUSH1 0x0 DUP3 PUSH1 0x20 ADD MLOAD MLOAD GT PUSH2 0x2B7 JUMPI PUSH1 0x40 MLOAD PUSH3 0x461BCD PUSH1 0xE5 SHL DUP2 MSTORE PUSH1 0x20 PUSH1 0x4 DUP3 ADD MSTORE PUSH1 0x1A PUSH1 0x24 DUP3 ADD MSTORE PUSH32 0x44494452656769737472793A20656D707479206B657954797065000000000000 PUSH1 0x44 DUP3 ADD MSTORE PUSH1 0x64 ADD PUSH2 0x178 JUMP JUMPDEST PUSH1 0x40 DUP3 ADD MLOAD PUSH1 0x1 PUSH1 0x1 PUSH1 0xA0 SHL SUB AND CALLER EQ PUSH2 0x31F JUMPI PUSH1 0x40 MLOAD PUSH3 0x461BCD PUSH1 0xE5 SHL DUP2 MSTORE PUSH1 0x20 PUSH1 0x4 DUP3 ADD MSTORE PUSH1 0x24 DUP1 DUP3 ADD MSTORE PUSH32 0x44494452656769737472793A206B657920636F6E74726F6C6C6572206D69736D PUSH1 0x44 DUP3 ADD MSTORE PUSH4 0xC2E8C6D PUSH1 0xE3 SHL PUSH1 0x64 DUP3 ADD MSTORE PUSH1 0x84 ADD PUSH2 0x178 JUMP JUMPDEST PUSH1 0x0 DUP1 DUP5 PUSH1 0x40 MLOAD PUSH2 0x330 SWAP2 SWAP1 PUSH2 0x16DF JUMP JUMPDEST SWAP1 DUP2 MSTORE PUSH1 0x40 MLOAD PUSH1 0x20 SWAP2 DUP2 SWAP1 SUB DUP3 ADD SWAP1 KECCAK256 PUSH1 0x4 DUP1 DUP3 ADD DUP1 SLOAD PUSH1 0x1 DUP2 ADD DUP3 SSTORE PUSH1 0x0 SWAP2 DUP3 MSTORE SWAP4 SWAP1 KECCAK256 DUP7 MLOAD SWAP3 SWAP5 POP DUP7 SWAP4 SWAP1 SWAP2 MUL ADD SWAP1 DUP2 SWAP1 PUSH2 0x36D SWAP1 DUP3 PUSH2 0x1845 JUMP JUMPDEST POP PUSH1 0x20 DUP3 ADD MLOAD PUSH1 0x1 DUP3 ADD SWAP1 PUSH2 0x382 SWAP1 DUP3 PUSH2 0x1845 JUMP JUMPDEST POP PUSH1 0x40 DUP3 ADD MLOAD PUSH1 0x2 DUP3 ADD DUP1 SLOAD PUSH1 0x1 PUSH1 0x1 PUSH1 0xA0 SHL SUB NOT AND PUSH1 0x1 PUSH1 0x1 PUSH1 0xA0 SHL SUB SWAP1 SWAP3 AND SWAP2 SWAP1 SWAP2 OR SWAP1 SSTORE PUSH1 0x60 DUP3 ADD MLOAD PUSH1 0x3 DUP3 ADD SWAP1 PUSH2 0x3BD SWAP1 DUP3 PUSH2 0x1845 JUMP JUMPDEST POP POP TIMESTAMP PUSH1 0x2 DUP4 ADD SSTORE POP PUSH1 0x40 MLOAD CALLER SWAP1 PUSH2 0x3D6 SWAP1 DUP7 SWAP1 PUSH2 0x16DF JUMP JUMPDEST PUSH1 0x40 MLOAD SWAP1 DUP2 SWAP1 SUB DUP2 KECCAK256 TIMESTAMP DUP3 MSTORE SWAP1 PUSH32 0x42C534984D94B2E4102CAA5B874E5F3EDD48AF284D3095C79C4AA7EECA5164E5 SWAP1 PUSH1 0x20 ADD JUMPDEST PUSH1 0x40 MLOAD DUP1 SWAP2 SUB SWAP1 LOG3 POP POP POP POP JUMP JUMPDEST PUSH1 0x0 PUSH1 0x1 DUP3 PUSH1 0x40 MLOAD PUSH2 0x429 SWAP2 SWAP1 PUSH2 0x16DF JUMP JUMPDEST SWAP1 DUP2 MSTORE PUSH1 0x40 MLOAD SWAP1 DUP2 SWAP1 SUB PUSH1 0x20 ADD SWAP1 KECCAK256 SLOAD PUSH1 0xFF AND PUSH2 0x448 JUMPI POP PUSH1 0x0 SWAP2 SWAP1 POP JUMP JUMPDEST PUSH1 0x0 DUP3 PUSH1 0x40 MLOAD PUSH2 0x458 SWAP2 SWAP1 PUSH2 0x16DF JUMP JUMPDEST SWAP1 DUP2 MSTORE PUSH1 0x40 MLOAD SWAP1 DUP2 SWAP1 SUB PUSH1 0x20 ADD SWAP1 KECCAK256 PUSH1 0x3 ADD SLOAD PUSH1 0xFF AND SWAP3 SWAP2 POP POP JUMP JUMPDEST DUP1 PUSH1 0x1 DUP2 PUSH1 0x40 MLOAD PUSH2 0x485 SWAP2 SWAP1 PUSH2 0x16DF JUMP JUMPDEST SWAP1 DUP2 MSTORE PUSH1 0x40 MLOAD SWAP1 DUP2 SWAP1 SUB PUSH1 0x20 ADD SWAP1 KECCAK256 SLOAD PUSH1 0xFF AND PUSH2 0x4B4 JUMPI PUSH1 0x40 MLOAD PUSH3 0x461BCD PUSH1 0xE5 SHL DUP2 MSTORE PUSH1 0x4 ADD PUSH2 0x178 SWAP1 PUSH2 0x16FB JUMP JUMPDEST CALLER PUSH1 0x1 PUSH1 0x1 PUSH1 0xA0 SHL SUB AND PUSH1 0x0 DUP3 PUSH1 0x40 MLOAD PUSH2 0x4CE SWAP2 SWAP1 PUSH2 0x16DF JUMP JUMPDEST SWAP1 DUP2 MSTORE PUSH1 0x40 MLOAD SWAP1 DUP2 SWAP1 SUB PUSH1 0x20 ADD SWAP1 KECCAK256 SLOAD PUSH1 0x1 PUSH1 0x1 PUSH1 0xA0 SHL SUB AND EQ PUSH2 0x504 JUMPI PUSH1 0x40 MLOAD PUSH3 0x461BCD PUSH1 0xE5 SHL DUP2 MSTORE PUSH1 0x4 ADD PUSH2 0x178 SWAP1 PUSH2 0x1732 JUMP JUMPDEST PUSH1 0x0 DUP2 PUSH1 0x40 MLOAD PUSH2 0x514 SWAP2 SWAP1 PUSH2 0x16DF JUMP JUMPDEST SWAP1 DUP2 MSTORE PUSH1 0x40 MLOAD SWAP1 DUP2 SWAP1 SUB PUSH1 0x20 ADD SWAP1 KECCAK256 PUSH1 0x3 ADD SLOAD PUSH1 0xFF AND PUSH2 0x546 JUMPI PUSH1 0x40 MLOAD PUSH3 0x461BCD PUSH1 0xE5 SHL DUP2 MSTORE PUSH1 0x4 ADD PUSH2 0x178 SWAP1 PUSH2 0x1777 JUMP JUMPDEST PUSH1 0x0 DUP1 DUP4 PUSH1 0x40 MLOAD PUSH2 0x557 SWAP2 SWAP1 PUSH2 0x16DF JUMP JUMPDEST SWAP1 DUP2 MSTORE PUSH1 0x40 MLOAD SWAP1 DUP2 SWAP1 SUB PUSH1 0x20 ADD DUP2 KECCAK256 PUSH1 0x3 DUP2 ADD DUP1 SLOAD PUSH1 0xFF NOT AND SWAP1 SSTORE TIMESTAMP PUSH1 0x2 DUP3 ADD SSTORE SWAP2 POP CALLER SWAP1 PUSH2 0x587 SWAP1 DUP6 SWAP1 PUSH2 0x16DF JUMP JUMPDEST PUSH1 0x40 MLOAD SWAP1 DUP2 SWAP1 SUB DUP2 KECCAK256 TIMESTAMP DUP3 MSTORE SWAP1 PUSH32 0x350825843B22939D489C861B0713F74681D5F60D3F92B89B839E2B2928BAED3E SWAP1 PUSH1 0x20 ADD PUSH1 0x40 MLOAD DUP1 SWAP2 SUB SWAP1 LOG3 POP POP POP JUMP JUMPDEST DUP2 PUSH1 0x1 DUP2 PUSH1 0x40 MLOAD PUSH2 0x5D7 SWAP2 SWAP1 PUSH2 0x16DF JUMP JUMPDEST SWAP1 DUP2 MSTORE PUSH1 0x40 MLOAD SWAP1 DUP2 SWAP1 SUB PUSH1 0x20 ADD SWAP1 KECCAK256 SLOAD PUSH1 0xFF AND PUSH2 0x606 JUMPI PUSH1 0x40 MLOAD PUSH3 0x461BCD PUSH1 0xE5 SHL DUP2 MSTORE PUSH1 0x4 ADD PUSH2 0x178 SWAP1 PUSH2 0x16FB JUMP JUMPDEST CALLER PUSH1 0x1 PUSH1 0x1 PUSH1 0xA0 SHL SUB AND PUSH1 0x0 DUP3 PUSH1 0x40 MLOAD PUSH2 0x620 SWAP2 SWAP1 PUSH2 0x16DF JUMP JUMPDEST SWAP1 DUP2 MSTORE PUSH1 0x40 MLOAD SWAP1 DUP2 SWAP1 SUB PUSH1 0x20 ADD SWAP1 KECCAK256 SLOAD PUSH1 0x1 PUSH1 0x1 PUSH1 0xA0 SHL SUB AND EQ PUSH2 0x656 JUMPI PUSH1 0x40 MLOAD PUSH3 0x461BCD PUSH1 0xE5 SHL DUP2 MSTORE PUSH1 0x4 ADD PUSH2 0x178 SWAP1 PUSH2 0x1732 JUMP JUMPDEST PUSH1 0x0 DUP2 PUSH1 0x40 MLOAD PUSH2 0x666 SWAP2 SWAP1 PUSH2 0x16DF JUMP JUMPDEST SWAP1 DUP2 MSTORE PUSH1 0x40 MLOAD SWAP1 DUP2 SWAP1 SUB PUSH1 0x20 ADD SWAP1 KECCAK256 PUSH1 0x3 ADD SLOAD PUSH1 0xFF AND PUSH2 0x698 JUMPI PUSH1 0x40 MLOAD PUSH3 0x461BCD PUSH1 0xE5 SHL DUP2 MSTORE PUSH1 0x4 ADD PUSH2 0x178 SWAP1 PUSH2 0x1777 JUMP JUMPDEST DUP2 MLOAD MLOAD PUSH2 0x6E7 JUMPI PUSH1 0x40 MLOAD PUSH3 0x461BCD PUSH1 0xE5 SHL DUP2 MSTORE PUSH1 0x20 PUSH1 0x4 DUP3 ADD MSTORE PUSH1 0x1C PUSH1 0x24 DUP3 ADD MSTORE PUSH32 0x44494452656769737472793A20656D7074792073657276696365496400000000 PUSH1 0x44 DUP3 ADD MSTORE PUSH1 0x64 ADD PUSH2 0x178 JUMP JUMPDEST PUSH1 0x0 DUP3 PUSH1 0x20 ADD MLOAD MLOAD GT PUSH2 0x73C JUMPI PUSH1 0x40 MLOAD PUSH3 0x461BCD PUSH1 0xE5 SHL DUP2 MSTORE PUSH1 0x20 PUSH1 0x4 DUP3 ADD MSTORE PUSH1 0x1E PUSH1 0x24 DUP3 ADD MSTORE PUSH32 0x44494452656769737472793A20656D7074792073657276696365547970650000 PUSH1 0x44 DUP3 ADD MSTORE PUSH1 0x64 ADD PUSH2 0x178 JUMP JUMPDEST PUSH1 0x0 DUP3 PUSH1 0x40 ADD MLOAD MLOAD GT PUSH2 0x791 JUMPI PUSH1 0x40 MLOAD PUSH3 0x461BCD PUSH1 0xE5 SHL DUP2 MSTORE PUSH1 0x20 PUSH1 0x4 DUP3 ADD MSTORE PUSH1 0x1B PUSH1 0x24 DUP3 ADD MSTORE PUSH32 0x44494452656769737472793A20656D70747920656E64706F696E740000000000 PUSH1 0x44 DUP3 ADD MSTORE PUSH1 0x64 ADD PUSH2 0x178 JUMP JUMPDEST PUSH1 0x0 DUP1 DUP5 PUSH1 0x40 MLOAD PUSH2 0x7A2 SWAP2 SWAP1 PUSH2 0x16DF JUMP JUMPDEST SWAP1 DUP2 MSTORE PUSH1 0x40 MLOAD PUSH1 0x20 SWAP2 DUP2 SWAP1 SUB DUP3 ADD SWAP1 KECCAK256 PUSH1 0x5 DUP2 ADD DUP1 SLOAD PUSH1 0x1 DUP2 ADD DUP3 SSTORE PUSH1 0x0 SWAP2 DUP3 MSTORE SWAP3 SWAP1 KECCAK256 DUP6 MLOAD SWAP2 SWAP4 POP DUP6 SWAP3 PUSH1 0x3 MUL ADD SWAP1 DUP2 SWAP1 PUSH2 0x7DE SWAP1 DUP3 PUSH2 0x1845 JUMP JUMPDEST POP PUSH1 0x20 DUP3 ADD MLOAD PUSH1 0x1 DUP3 ADD SWAP1 PUSH2 0x7F3 SWAP1 DUP3 PUSH2 0x1845 JUMP JUMPDEST POP PUSH1 0x40 DUP3 ADD MLOAD PUSH1 0x2 DUP3 ADD SWAP1 PUSH2 0x3BD SWAP1 DUP3 PUSH2 0x1845 JUMP JUMPDEST PUSH1 0x0 DUP4 MLOAD GT PUSH2 0x852 JUMPI PUSH1 0x40 MLOAD PUSH3 0x461BCD PUSH1 0xE5 SHL DUP2 MSTORE PUSH1 0x20 PUSH1 0x4 DUP3 ADD MSTORE PUSH1 0x16 PUSH1 0x24 DUP3 ADD MSTORE PUSH22 0x111251149959DA5CDD1C9E4E88195B5C1D1E48111251 PUSH1 0x52 SHL PUSH1 0x44 DUP3 ADD MSTORE PUSH1 0x64 ADD PUSH2 0x178 JUMP JUMPDEST PUSH1 0x1 DUP4 PUSH1 0x40 MLOAD PUSH2 0x862 SWAP2 SWAP1 PUSH2 0x16DF JUMP JUMPDEST SWAP1 DUP2 MSTORE PUSH1 0x40 MLOAD SWAP1 DUP2 SWAP1 SUB PUSH1 0x20 ADD SWAP1 KECCAK256 SLOAD PUSH1 0xFF AND ISZERO PUSH2 0x8CE JUMPI PUSH1 0x40 MLOAD PUSH3 0x461BCD PUSH1 0xE5 SHL DUP2 MSTORE PUSH1 0x20 PUSH1 0x4 DUP3 ADD MSTORE PUSH1 0x23 PUSH1 0x24 DUP3 ADD MSTORE PUSH32 0x44494452656769737472793A2044494420616C72656164792072656769737465 PUSH1 0x44 DUP3 ADD MSTORE PUSH3 0x1C9959 PUSH1 0xEA SHL PUSH1 0x64 DUP3 ADD MSTORE PUSH1 0x84 ADD PUSH2 0x178 JUMP JUMPDEST PUSH1 0x0 DUP1 DUP5 PUSH1 0x40 MLOAD PUSH2 0x8DF SWAP2 SWAP1 PUSH2 0x16DF JUMP JUMPDEST SWAP1 DUP2 MSTORE PUSH1 0x40 MLOAD SWAP1 DUP2 SWAP1 SUB PUSH1 0x20 SWAP1 DUP2 ADD SWAP1 SWAP2 KECCAK256 DUP1 SLOAD PUSH1 0x1 PUSH1 0x1 PUSH1 0xA0 SHL SUB NOT AND CALLER OR DUP2 SSTORE TIMESTAMP PUSH1 0x1 DUP1 DUP4 ADD DUP3 SWAP1 SSTORE PUSH1 0x2 DUP4 ADD SWAP2 SWAP1 SWAP2 SSTORE PUSH1 0x3 DUP3 ADD DUP1 SLOAD PUSH1 0xFF NOT AND DUP3 OR SWAP1 SSTORE PUSH1 0x4 DUP1 DUP4 ADD DUP1 SLOAD SWAP3 DUP4 ADD DUP2 SSTORE PUSH1 0x0 SWAP1 DUP2 MSTORE SWAP4 SWAP1 SWAP4 KECCAK256 DUP7 MLOAD SWAP3 SWAP5 POP DUP7 SWAP4 SWAP2 SWAP1 SWAP2 MUL ADD SWAP1 DUP2 SWAP1 PUSH2 0x94E SWAP1 DUP3 PUSH2 0x1845 JUMP JUMPDEST POP PUSH1 0x20 DUP3 ADD MLOAD PUSH1 0x1 DUP3 ADD SWAP1 PUSH2 0x963 SWAP1 DUP3 PUSH2 0x1845 JUMP JUMPDEST POP PUSH1 0x40 DUP3 ADD MLOAD PUSH1 0x2 DUP3 ADD DUP1 SLOAD PUSH1 0x1 PUSH1 0x1 PUSH1 0xA0 SHL SUB NOT AND PUSH1 0x1 PUSH1 0x1 PUSH1 0xA0 SHL SUB SWAP1 SWAP3 AND SWAP2 SWAP1 SWAP2 OR SWAP1 SSTORE PUSH1 0x60 DUP3 ADD MLOAD PUSH1 0x3 DUP3 ADD SWAP1 PUSH2 0x99E SWAP1 DUP3 PUSH2 0x1845 JUMP JUMPDEST POP POP DUP3 MLOAD MLOAD ISZERO SWAP1 POP PUSH2 0xA05 JUMPI PUSH1 0x5 DUP2 ADD DUP1 SLOAD PUSH1 0x1 DUP2 ADD DUP3 SSTORE PUSH1 0x0 SWAP2 DUP3 MSTORE PUSH1 0x20 SWAP1 SWAP2 KECCAK256 DUP4 MLOAD DUP5 SWAP3 PUSH1 0x3 MUL SWAP1 SWAP2 ADD SWAP1 DUP2 SWAP1 PUSH2 0x9D7 SWAP1 DUP3 PUSH2 0x1845 JUMP JUMPDEST POP PUSH1 0x20 DUP3 ADD MLOAD PUSH1 0x1 DUP3 ADD SWAP1 PUSH2 0x9EC SWAP1 DUP3 PUSH2 0x1845 JUMP JUMPDEST POP PUSH1 0x40 DUP3 ADD MLOAD PUSH1 0x2 DUP3 ADD SWAP1 PUSH2 0xA01 SWAP1 DUP3 PUSH2 0x1845 JUMP JUMPDEST POP POP POP JUMPDEST PUSH1 0x1 DUP1 DUP6 PUSH1 0x40 MLOAD PUSH2 0xA16 SWAP2 SWAP1 PUSH2 0x16DF JUMP JUMPDEST SWAP1 DUP2 MSTORE PUSH1 0x40 DUP1 MLOAD PUSH1 0x20 SWAP3 DUP2 SWAP1 SUB DUP4 ADD SWAP1 KECCAK256 DUP1 SLOAD PUSH1 0xFF NOT AND SWAP4 ISZERO ISZERO SWAP4 SWAP1 SWAP4 OR SWAP1 SWAP3 SSTORE CALLER PUSH1 0x0 SWAP1 DUP2 MSTORE PUSH1 0x2 DUP3 MSTORE SWAP2 DUP3 KECCAK256 DUP1 SLOAD PUSH1 0x1 DUP2 ADD DUP3 SSTORE SWAP1 DUP4 MSTORE SWAP2 KECCAK256 ADD PUSH2 0xA5C DUP6 DUP3 PUSH2 0x1845 JUMP JUMPDEST POP PUSH1 0x40 MLOAD CALLER SWAP1 PUSH2 0xA6D SWAP1 DUP7 SWAP1 PUSH2 0x16DF JUMP JUMPDEST PUSH1 0x40 MLOAD SWAP1 DUP2 SWAP1 SUB DUP2 KECCAK256 TIMESTAMP DUP3 MSTORE SWAP1 PUSH32 0x2247D854A9F35BFA7DF0A5FD500079F0CEB7A58D0C7AD79F1C49D1A4D27EAE4A SWAP1 PUSH1 0x20 ADD PUSH2 0x409 JUMP JUMPDEST PUSH2 0xAE8 PUSH1 0x40 MLOAD DUP1 PUSH1 0xC0 ADD PUSH1 0x40 MSTORE DUP1 PUSH1 0x0 PUSH1 0x1 PUSH1 0x1 PUSH1 0xA0 SHL SUB AND DUP2 MSTORE PUSH1 0x20 ADD PUSH1 0x0 DUP2 MSTORE PUSH1 0x20 ADD PUSH1 0x0 DUP2 MSTORE PUSH1 0x20 ADD PUSH1 0x0 ISZERO ISZERO DUP2 MSTORE PUSH1 0x20 ADD PUSH1 0x60 DUP2 MSTORE PUSH1 0x20 ADD PUSH1 0x60 DUP2 MSTORE POP SWAP1 JUMP JUMPDEST PUSH1 0x1 DUP3 PUSH1 0x40 MLOAD PUSH2 0xAF8 SWAP2 SWAP1 PUSH2 0x16DF JUMP JUMPDEST SWAP1 DUP2 MSTORE PUSH1 0x40 MLOAD SWAP1 DUP2 SWAP1 SUB PUSH1 0x20 ADD SWAP1 KECCAK256 SLOAD PUSH1 0xFF AND PUSH2 0xB27 JUMPI PUSH1 0x40 MLOAD PUSH3 0x461BCD PUSH1 0xE5 SHL DUP2 MSTORE PUSH1 0x4 ADD PUSH2 0x178 SWAP1 PUSH2 0x16FB JUMP JUMPDEST PUSH1 0x0 DUP3 PUSH1 0x40 MLOAD PUSH2 0xB37 SWAP2 SWAP1 PUSH2 0x16DF JUMP JUMPDEST SWAP1 DUP2 MSTORE PUSH1 0x40 DUP1 MLOAD SWAP2 DUP3 SWAP1 SUB PUSH1 0x20 SWAP1 DUP2 ADD DUP4 KECCAK256 PUSH1 0xC0 DUP5 ADD DUP4 MSTORE DUP1 SLOAD PUSH1 0x1 PUSH1 0x1 PUSH1 0xA0 SHL SUB AND DUP5 MSTORE PUSH1 0x1 DUP2 ADD SLOAD DUP5 DUP4 ADD MSTORE PUSH1 0x2 DUP2 ADD SLOAD DUP5 DUP5 ADD MSTORE PUSH1 0x3 DUP2 ADD SLOAD PUSH1 0xFF AND ISZERO ISZERO PUSH1 0x60 DUP6 ADD MSTORE PUSH1 0x4 DUP2 ADD DUP1 SLOAD DUP5 MLOAD DUP2 DUP6 MUL DUP2 ADD DUP6 ADD SWAP1 SWAP6 MSTORE DUP1 DUP6 MSTORE SWAP2 SWAP4 PUSH1 0x80 DUP7 ADD SWAP4 SWAP1 SWAP3 SWAP1 PUSH1 0x0 SWAP1 DUP5 ADD JUMPDEST DUP3 DUP3 LT ISZERO PUSH2 0xDA1 JUMPI DUP4 DUP3 SWAP1 PUSH1 0x0 MSTORE PUSH1 0x20 PUSH1 0x0 KECCAK256 SWAP1 PUSH1 0x4 MUL ADD PUSH1 0x40 MLOAD DUP1 PUSH1 0x80 ADD PUSH1 0x40 MSTORE SWAP1 DUP2 PUSH1 0x0 DUP3 ADD DUP1 SLOAD PUSH2 0xBD5 SWAP1 PUSH2 0x17BC JUMP JUMPDEST DUP1 PUSH1 0x1F ADD PUSH1 0x20 DUP1 SWAP2 DIV MUL PUSH1 0x20 ADD PUSH1 0x40 MLOAD SWAP1 DUP2 ADD PUSH1 0x40 MSTORE DUP1 SWAP3 SWAP2 SWAP1 DUP2 DUP2 MSTORE PUSH1 0x20 ADD DUP3 DUP1 SLOAD PUSH2 0xC01 SWAP1 PUSH2 0x17BC JUMP JUMPDEST DUP1 ISZERO PUSH2 0xC4E JUMPI DUP1 PUSH1 0x1F LT PUSH2 0xC23 JUMPI PUSH2 0x100 DUP1 DUP4 SLOAD DIV MUL DUP4 MSTORE SWAP2 PUSH1 0x20 ADD SWAP2 PUSH2 0xC4E JUMP JUMPDEST DUP3 ADD SWAP2 SWAP1 PUSH1 0x0 MSTORE PUSH1 0x20 PUSH1 0x0 KECCAK256 SWAP1 JUMPDEST DUP2 SLOAD DUP2 MSTORE SWAP1 PUSH1 0x1 ADD SWAP1 PUSH1 0x20 ADD DUP1 DUP4 GT PUSH2 0xC31 JUMPI DUP3 SWAP1 SUB PUSH1 0x1F AND DUP3 ADD SWAP2 JUMPDEST POP POP POP POP POP DUP2 MSTORE PUSH1 0x20 ADD PUSH1 0x1 DUP3 ADD DUP1 SLOAD PUSH2 0xC67 SWAP1 PUSH2 0x17BC JUMP JUMPDEST DUP1 PUSH1 0x1F ADD PUSH1 0x20 DUP1 SWAP2 DIV MUL PUSH1 0x20 ADD PUSH1 0x40 MLOAD SWAP1 DUP2 ADD PUSH1 0x40 MSTORE DUP1 SWAP3 SWAP2 SWAP1 DUP2 DUP2 MSTORE PUSH1 0x20 ADD DUP3 DUP1 SLOAD PUSH2 0xC93 SWAP1 PUSH2 0x17BC JUMP JUMPDEST DUP1 ISZERO PUSH2 0xCE0 JUMPI DUP1 PUSH1 0x1F LT PUSH2 0xCB5 JUMPI PUSH2 0x100 DUP1 DUP4 SLOAD DIV MUL DUP4 MSTORE SWAP2 PUSH1 0x20 ADD SWAP2 PUSH2 0xCE0 JUMP JUMPDEST DUP3 ADD SWAP2 SWAP1 PUSH1 0x0 MSTORE PUSH1 0x20 PUSH1 0x0 KECCAK256 SWAP1 JUMPDEST DUP2 SLOAD DUP2 MSTORE SWAP1 PUSH1 0x1 ADD SWAP1 PUSH1 0x20 ADD DUP1 DUP4 GT PUSH2 0xCC3 JUMPI DUP3 SWAP1 SUB PUSH1 0x1F AND DUP3 ADD SWAP2 JUMPDEST POP POP POP SWAP2 DUP4 MSTORE POP POP PUSH1 0x2 DUP3 ADD SLOAD PUSH1 0x1 PUSH1 0x1 PUSH1 0xA0 SHL SUB AND PUSH1 0x20 DUP3 ADD MSTORE PUSH1 0x3 DUP3 ADD DUP1 SLOAD PUSH1 0x40 SWAP1 SWAP3 ADD SWAP2 PUSH2 0xD10 SWAP1 PUSH2 0x17BC JUMP JUMPDEST DUP1 PUSH1 0x1F ADD PUSH1 0x20 DUP1 SWAP2 DIV MUL PUSH1 0x20 ADD PUSH1 0x40 MLOAD SWAP1 DUP2 ADD PUSH1 0x40 MSTORE DUP1 SWAP3 SWAP2 SWAP1 DUP2 DUP2 MSTORE PUSH1 0x20 ADD DUP3 DUP1 SLOAD PUSH2 0xD3C SWAP1 PUSH2 0x17BC JUMP JUMPDEST DUP1 ISZERO PUSH2 0xD89 JUMPI DUP1 PUSH1 0x1F LT PUSH2 0xD5E JUMPI PUSH2 0x100 DUP1 DUP4 SLOAD DIV MUL DUP4 MSTORE SWAP2 PUSH1 0x20 ADD SWAP2 PUSH2 0xD89 JUMP JUMPDEST DUP3 ADD SWAP2 SWAP1 PUSH1 0x0 MSTORE PUSH1 0x20 PUSH1 0x0 KECCAK256 SWAP1 JUMPDEST DUP2 SLOAD DUP2 MSTORE SWAP1 PUSH1 0x1 ADD SWAP1 PUSH1 0x20 ADD DUP1 DUP4 GT PUSH2 0xD6C JUMPI DUP3 SWAP1 SUB PUSH1 0x1F AND DUP3 ADD SWAP2 JUMPDEST POP POP POP POP POP DUP2 MSTORE POP POP DUP2 MSTORE PUSH1 0x20 ADD SWAP1 PUSH1 0x1 ADD SWAP1 PUSH2 0xBA2 JUMP JUMPDEST POP POP POP POP DUP2 MSTORE PUSH1 0x20 ADD PUSH1 0x5 DUP3 ADD DUP1 SLOAD DUP1 PUSH1 0x20 MUL PUSH1 0x20 ADD PUSH1 0x40 MLOAD SWAP1 DUP2 ADD PUSH1 0x40 MSTORE DUP1 SWAP3 SWAP2 SWAP1 DUP2 DUP2 MSTORE PUSH1 0x20 ADD PUSH1 0x0 SWAP1 JUMPDEST DUP3 DUP3 LT ISZERO PUSH2 0xFB6 JUMPI DUP4 DUP3 SWAP1 PUSH1 0x0 MSTORE PUSH1 0x20 PUSH1 0x0 KECCAK256 SWAP1 PUSH1 0x3 MUL ADD PUSH1 0x40 MLOAD DUP1 PUSH1 0x60 ADD PUSH1 0x40 MSTORE SWAP1 DUP2 PUSH1 0x0 DUP3 ADD DUP1 SLOAD PUSH2 0xE01 SWAP1 PUSH2 0x17BC JUMP JUMPDEST DUP1 PUSH1 0x1F ADD PUSH1 0x20 DUP1 SWAP2 DIV MUL PUSH1 0x20 ADD PUSH1 0x40 MLOAD SWAP1 DUP2 ADD PUSH1 0x40 MSTORE DUP1 SWAP3 SWAP2 SWAP1 DUP2 DUP2 MSTORE PUSH1 0x20 ADD DUP3 DUP1 SLOAD PUSH2 0xE2D SWAP1 PUSH2 0x17BC JUMP JUMPDEST DUP1 ISZERO PUSH2 0xE7A JUMPI DUP1 PUSH1 0x1F LT PUSH2 0xE4F JUMPI PUSH2 0x100 DUP1 DUP4 SLOAD DIV MUL DUP4 MSTORE SWAP2 PUSH1 0x20 ADD SWAP2 PUSH2 0xE7A JUMP JUMPDEST DUP3 ADD SWAP2 SWAP1 PUSH1 0x0 MSTORE PUSH1 0x20 PUSH1 0x0 KECCAK256 SWAP1 JUMPDEST DUP2 SLOAD DUP2 MSTORE SWAP1 PUSH1 0x1 ADD SWAP1 PUSH1 0x20 ADD DUP1 DUP4 GT PUSH2 0xE5D JUMPI DUP3 SWAP1 SUB PUSH1 0x1F AND DUP3 ADD SWAP2 JUMPDEST POP POP POP POP POP DUP2 MSTORE PUSH1 0x20 ADD PUSH1 0x1 DUP3 ADD DUP1 SLOAD PUSH2 0xE93 SWAP1 PUSH2 0x17BC JUMP JUMPDEST DUP1 PUSH1 0x1F ADD PUSH1 0x20 DUP1 SWAP2 DIV MUL PUSH1 0x20 ADD PUSH1 0x40 MLOAD SWAP1 DUP2 ADD PUSH1 0x40 MSTORE DUP1 SWAP3 SWAP2 SWAP1 DUP2 DUP2 MSTORE PUSH1 0x20 ADD DUP3 DUP1 SLOAD PUSH2 0xEBF SWAP1 PUSH2 0x17BC JUMP JUMPDEST DUP1 ISZERO PUSH2 0xF0C JUMPI DUP1 PUSH1 0x1F LT PUSH2 0xEE1 JUMPI PUSH2 0x100 DUP1 DUP4 SLOAD DIV MUL DUP4 MSTORE SWAP2 PUSH1 0x20 ADD SWAP2 PUSH2 0xF0C JUMP JUMPDEST DUP3 ADD SWAP2 SWAP1 PUSH1 0x0 MSTORE PUSH1 0x20 PUSH1 0x0 KECCAK256 SWAP1 JUMPDEST DUP2 SLOAD DUP2 MSTORE SWAP1 PUSH1 0x1 ADD SWAP1 PUSH1 0x20 ADD DUP1 DUP4 GT PUSH2 0xEEF JUMPI DUP3 SWAP1 SUB PUSH1 0x1F AND DUP3 ADD SWAP2 JUMPDEST POP POP POP POP POP DUP2 MSTORE PUSH1 0x20 ADD PUSH1 0x2 DUP3 ADD DUP1 SLOAD PUSH2 0xF25 SWAP1 PUSH2 0x17BC JUMP JUMPDEST DUP1 PUSH1 0x1F ADD PUSH1 0x20 DUP1 SWAP2 DIV MUL PUSH1 0x20 ADD PUSH1 0x40 MLOAD SWAP1 DUP2 ADD PUSH1 0x40 MSTORE DUP1 SWAP3 SWAP2 SWAP1 DUP2 DUP2 MSTORE PUSH1 0x20 ADD DUP3 DUP1 SLOAD PUSH2 0xF51 SWAP1 PUSH2 0x17BC JUMP JUMPDEST DUP1 ISZERO PUSH2 0xF9E JUMPI DUP1 PUSH1 0x1F LT PUSH2 0xF73 JUMPI PUSH2 0x100 DUP1 DUP4 SLOAD DIV MUL DUP4 MSTORE SWAP2 PUSH1 0x20 ADD SWAP2 PUSH2 0xF9E JUMP JUMPDEST DUP3 ADD SWAP2 SWAP1 PUSH1 0x0 MSTORE PUSH1 0x20 PUSH1 0x0 KECCAK256 SWAP1 JUMPDEST DUP2 SLOAD DUP2 MSTORE SWAP1 PUSH1 0x1 ADD SWAP1 PUSH1 0x20 ADD DUP1 DUP4 GT PUSH2 0xF81 JUMPI DUP3 SWAP1 SUB PUSH1 0x1F AND DUP3 ADD SWAP2 JUMPDEST POP POP POP POP POP DUP2 MSTORE POP POP DUP2 MSTORE PUSH1 0x20 ADD SWAP1 PUSH1 0x1 ADD SWAP1 PUSH2 0xDCE JUMP JUMPDEST POP POP POP SWAP2 MSTORE POP SWAP1 SWAP4 SWAP3 POP POP POP JUMP JUMPDEST PUSH1 0x1 PUSH1 0x1 PUSH1 0xA0 SHL SUB DUP2 AND PUSH1 0x0 SWAP1 DUP2 MSTORE PUSH1 0x2 PUSH1 0x20 SWAP1 DUP2 MSTORE PUSH1 0x40 DUP1 DUP4 KECCAK256 DUP1 SLOAD DUP3 MLOAD DUP2 DUP6 MUL DUP2 ADD DUP6 ADD SWAP1 SWAP4 MSTORE DUP1 DUP4 MSTORE PUSH1 0x60 SWAP5 SWAP3 SWAP4 SWAP2 SWAP3 SWAP1 SWAP2 DUP5 ADD JUMPDEST DUP3 DUP3 LT ISZERO PUSH2 0x10A8 JUMPI DUP4 DUP3 SWAP1 PUSH1 0x0 MSTORE PUSH1 0x20 PUSH1 0x0 KECCAK256 ADD DUP1 SLOAD PUSH2 0x101B SWAP1 PUSH2 0x17BC JUMP JUMPDEST DUP1 PUSH1 0x1F ADD PUSH1 0x20 DUP1 SWAP2 DIV MUL PUSH1 0x20 ADD PUSH1 0x40 MLOAD SWAP1 DUP2 ADD PUSH1 0x40 MSTORE DUP1 SWAP3 SWAP2 SWAP1 DUP2 DUP2 MSTORE PUSH1 0x20 ADD DUP3 DUP1 SLOAD PUSH2 0x1047 SWAP1 PUSH2 0x17BC JUMP JUMPDEST DUP1 ISZERO PUSH2 0x1094 JUMPI DUP1 PUSH1 0x1F LT PUSH2 0x1069 JUMPI PUSH2 0x100 DUP1 DUP4 SLOAD DIV MUL DUP4 MSTORE SWAP2 PUSH1 0x20 ADD SWAP2 PUSH2 0x1094 JUMP JUMPDEST DUP3 ADD SWAP2 SWAP1 PUSH1 0x0 MSTORE PUSH1 0x20 PUSH1 0x0 KECCAK256 SWAP1 JUMPDEST DUP2 SLOAD DUP2 MSTORE SWAP1 PUSH1 0x1 ADD SWAP1 PUSH1 0x20 ADD DUP1 DUP4 GT PUSH2 0x1077 JUMPI DUP3 SWAP1 SUB PUSH1 0x1F AND DUP3 ADD SWAP2 JUMPDEST POP POP POP POP POP DUP2 MSTORE PUSH1 0x20 ADD SWAP1 PUSH1 0x1 ADD SWAP1 PUSH2 0xFFC JUMP JUMPDEST POP POP POP POP SWAP1 POP SWAP2 SWAP1 POP JUMP JUMPDEST PUSH4 0x4E487B71 PUSH1 0xE0 SHL PUSH1 0x0 MSTORE PUSH1 0x41 PUSH1 0x4 MSTORE PUSH1 0x24 PUSH1 0x0 REVERT JUMPDEST PUSH1 0x0 DUP3 PUSH1 0x1F DUP4 ADD SLT PUSH2 0x10DA JUMPI PUSH1 0x0 DUP1 REVERT JUMPDEST DUP2 CALLDATALOAD PUSH8 0xFFFFFFFFFFFFFFFF DUP1 DUP3 GT ISZERO PUSH2 0x10F5 JUMPI PUSH2 0x10F5 PUSH2 0x10B3 JUMP JUMPDEST PUSH1 0x40 MLOAD PUSH1 0x1F DUP4 ADD PUSH1 0x1F NOT SWAP1 DUP2 AND PUSH1 0x3F ADD AND DUP2 ADD SWAP1 DUP3 DUP3 GT DUP2 DUP4 LT OR ISZERO PUSH2 0x111D JUMPI PUSH2 0x111D PUSH2 0x10B3 JUMP JUMPDEST DUP2 PUSH1 0x40 MSTORE DUP4 DUP2 MSTORE DUP7 PUSH1 0x20 DUP6 DUP9 ADD ADD GT ISZERO PUSH2 0x1136 JUMPI PUSH1 0x0 DUP1 REVERT JUMPDEST DUP4 PUSH1 0x20 DUP8 ADD PUSH1 0x20 DUP4 ADD CALLDATACOPY PUSH1 0x0 PUSH1 0x20 DUP6 DUP4 ADD ADD MSTORE DUP1 SWAP5 POP POP POP POP POP SWAP3 SWAP2 POP POP JUMP JUMPDEST DUP1 CALLDATALOAD PUSH1 0x1 PUSH1 0x1 PUSH1 0xA0 SHL SUB DUP2 AND DUP2 EQ PUSH2 0x116D JUMPI PUSH1 0x0 DUP1 REVERT JUMPDEST SWAP2 SWAP1 POP JUMP JUMPDEST PUSH1 0x0 PUSH1 0x80 DUP3 DUP5 SUB SLT ISZERO PUSH2 0x1184 JUMPI PUSH1 0x0 DUP1 REVERT JUMPDEST PUSH1 0x40 MLOAD PUSH1 0x80 DUP2 ADD PUSH8 0xFFFFFFFFFFFFFFFF DUP3 DUP3 LT DUP2 DUP4 GT OR ISZERO PUSH2 0x11A8 JUMPI PUSH2 0x11A8 PUSH2 0x10B3 JUMP JUMPDEST DUP2 PUSH1 0x40 MSTORE DUP3 SWAP4 POP DUP5 CALLDATALOAD SWAP2 POP DUP1 DUP3 GT ISZERO PUSH2 0x11C0 JUMPI PUSH1 0x0 DUP1 REVERT JUMPDEST PUSH2 0x11CC DUP7 DUP4 DUP8 ADD PUSH2 0x10C9 JUMP JUMPDEST DUP4 MSTORE PUSH1 0x20 DUP6 ADD CALLDATALOAD SWAP2 POP DUP1 DUP3 GT ISZERO PUSH2 0x11E2 JUMPI PUSH1 0x0 DUP1 REVERT JUMPDEST PUSH2 0x11EE DUP7 DUP4 DUP8 ADD PUSH2 0x10C9 JUMP JUMPDEST PUSH1 0x20 DUP5 ADD MSTORE PUSH2 0x11FF PUSH1 0x40 DUP7 ADD PUSH2 0x1156 JUMP JUMPDEST PUSH1 0x40 DUP5 ADD MSTORE PUSH1 0x60 DUP6 ADD CALLDATALOAD SWAP2 POP DUP1 DUP3 GT ISZERO PUSH2 0x1218 JUMPI PUSH1 0x0 DUP1 REVERT JUMPDEST POP PUSH2 0x1225 DUP6 DUP3 DUP7 ADD PUSH2 0x10C9 JUMP JUMPDEST PUSH1 0x60 DUP4 ADD MSTORE POP POP SWAP3 SWAP2 POP POP JUMP JUMPDEST PUSH1 0x0 DUP1 PUSH1 0x40 DUP4 DUP6 SUB SLT ISZERO PUSH2 0x1245 JUMPI PUSH1 0x0 DUP1 REVERT JUMPDEST DUP3 CALLDATALOAD PUSH8 0xFFFFFFFFFFFFFFFF DUP1 DUP3 GT ISZERO PUSH2 0x125D JUMPI PUSH1 0x0 DUP1 REVERT JUMPDEST PUSH2 0x1269 DUP7 DUP4 DUP8 ADD PUSH2 0x10C9 JUMP JUMPDEST SWAP4 POP PUSH1 0x20 DUP6 ADD CALLDATALOAD SWAP2 POP DUP1 DUP3 GT ISZERO PUSH2 0x127F JUMPI PUSH1 0x0 DUP1 REVERT JUMPDEST POP PUSH2 0x128C DUP6 DUP3 DUP7 ADD PUSH2 0x1172 JUMP JUMPDEST SWAP2 POP POP SWAP3 POP SWAP3 SWAP1 POP JUMP JUMPDEST PUSH1 0x0 PUSH1 0x20 DUP3 DUP5 SUB SLT ISZERO PUSH2 0x12A8 JUMPI PUSH1 0x0 DUP1 REVERT JUMPDEST DUP2 CALLDATALOAD PUSH8 0xFFFFFFFFFFFFFFFF DUP2 GT ISZERO PUSH2 0x12BF JUMPI PUSH1 0x0 DUP1 REVERT JUMPDEST PUSH2 0x12CB DUP5 DUP3 DUP6 ADD PUSH2 0x10C9 JUMP JUMPDEST SWAP5 SWAP4 POP POP POP POP JUMP JUMPDEST PUSH1 0x0 PUSH1 0x60 DUP3 DUP5 SUB SLT ISZERO PUSH2 0x12E5 JUMPI PUSH1 0x0 DUP1 REVERT JUMPDEST PUSH1 0x40 MLOAD PUSH1 0x60 DUP2 ADD PUSH8 0xFFFFFFFFFFFFFFFF DUP3 DUP3 LT DUP2 DUP4 GT OR ISZERO PUSH2 0x1309 JUMPI PUSH2 0x1309 PUSH2 0x10B3 JUMP JUMPDEST DUP2 PUSH1 0x40 MSTORE DUP3 SWAP4 POP DUP5 CALLDATALOAD SWAP2 POP DUP1 DUP3 GT ISZERO PUSH2 0x1321 JUMPI PUSH1 0x0 DUP1 REVERT JUMPDEST PUSH2 0x132D DUP7 DUP4 DUP8 ADD PUSH2 0x10C9 JUMP JUMPDEST DUP4 MSTORE PUSH1 0x20 DUP6 ADD CALLDATALOAD SWAP2 POP DUP1 DUP3 GT ISZERO PUSH2 0x1343 JUMPI PUSH1 0x0 DUP1 REVERT JUMPDEST PUSH2 0x134F DUP7 DUP4 DUP8 ADD PUSH2 0x10C9 JUMP JUMPDEST PUSH1 0x20 DUP5 ADD MSTORE PUSH1 0x40 DUP6 ADD CALLDATALOAD SWAP2 POP DUP1 DUP3 GT ISZERO PUSH2 0x1368 JUMPI PUSH1 0x0 DUP1 REVERT JUMPDEST POP PUSH2 0x1375 DUP6 DUP3 DUP7 ADD PUSH2 0x10C9 JUMP JUMPDEST PUSH1 0x40 DUP4 ADD MSTORE POP POP SWAP3 SWAP2 POP POP JUMP JUMPDEST PUSH1 0x0 DUP1 PUSH1 0x40 DUP4 DUP6 SUB SLT ISZERO PUSH2 0x1395 JUMPI PUSH1 0x0 DUP1 REVERT JUMPDEST DUP3 CALLDATALOAD PUSH8 0xFFFFFFFFFFFFFFFF DUP1 DUP3 GT ISZERO PUSH2 0x13AD JUMPI PUSH1 0x0 DUP1 REVERT JUMPDEST PUSH2 0x13B9 DUP7 DUP4 DUP8 ADD PUSH2 0x10C9 JUMP JUMPDEST SWAP4 POP PUSH1 0x20 DUP6 ADD CALLDATALOAD SWAP2 POP DUP1 DUP3 GT ISZERO PUSH2 0x13CF JUMPI PUSH1 0x0 DUP1 REVERT JUMPDEST POP PUSH2 0x128C DUP6 DUP3 DUP7 ADD PUSH2 0x12D3 JUMP JUMPDEST PUSH1 0x0 DUP1 PUSH1 0x0 PUSH1 0x60 DUP5 DUP7 SUB SLT ISZERO PUSH2 0x13F1 JUMPI PUSH1 0x0 DUP1 REVERT JUMPDEST DUP4 CALLDATALOAD PUSH8 0xFFFFFFFFFFFFFFFF DUP1 DUP3 GT ISZERO PUSH2 0x1409 JUMPI PUSH1 0x0 DUP1 REVERT JUMPDEST PUSH2 0x1415 DUP8 DUP4 DUP9 ADD PUSH2 0x10C9 JUMP JUMPDEST SWAP5 POP PUSH1 0x20 DUP7 ADD CALLDATALOAD SWAP2 POP DUP1 DUP3 GT ISZERO PUSH2 0x142B JUMPI PUSH1 0x0 DUP1 REVERT JUMPDEST PUSH2 0x1437 DUP8 DUP4 DUP9 ADD PUSH2 0x1172 JUMP JUMPDEST SWAP4 POP PUSH1 0x40 DUP7 ADD CALLDATALOAD SWAP2 POP DUP1 DUP3 GT ISZERO PUSH2 0x144D JUMPI PUSH1 0x0 DUP1 REVERT JUMPDEST POP PUSH2 0x145A DUP7 DUP3 DUP8 ADD PUSH2 0x12D3 JUMP JUMPDEST SWAP2 POP POP SWAP3 POP SWAP3 POP SWAP3 JUMP JUMPDEST PUSH1 0x0 JUMPDEST DUP4 DUP2 LT ISZERO PUSH2 0x147F JUMPI DUP2 DUP2 ADD MLOAD DUP4 DUP3 ADD MSTORE PUSH1 0x20 ADD PUSH2 0x1467 JUMP JUMPDEST POP POP PUSH1 0x0 SWAP2 ADD MSTORE JUMP JUMPDEST PUSH1 0x0 DUP2 MLOAD DUP1 DUP5 MSTORE PUSH2 0x14A0 DUP2 PUSH1 0x20 DUP7 ADD PUSH1 0x20 DUP7 ADD PUSH2 0x1464 JUMP JUMPDEST PUSH1 0x1F ADD PUSH1 0x1F NOT AND SWAP3 SWAP1 SWAP3 ADD PUSH1 0x20 ADD SWAP3 SWAP2 POP POP JUMP JUMPDEST PUSH1 0x0 DUP2 MLOAD DUP1 DUP5 MSTORE PUSH1 0x20 DUP1 DUP6 ADD DUP1 DUP2 SWAP7 POP DUP4 PUSH1 0x5 SHL DUP2 ADD SWAP2 POP DUP3 DUP7 ADD PUSH1 0x0 JUMPDEST DUP6 DUP2 LT ISZERO PUSH2 0x153D JUMPI DUP3 DUP5 SUB DUP10 MSTORE DUP2 MLOAD PUSH1 0x60 DUP2 MLOAD DUP2 DUP8 MSTORE PUSH2 0x14F4 DUP3 DUP9 ADD DUP3 PUSH2 0x1488 JUMP JUMPDEST SWAP2 POP POP DUP7 DUP3 ADD MLOAD DUP7 DUP3 SUB DUP9 DUP9 ADD MSTORE PUSH2 0x150C DUP3 DUP3 PUSH2 0x1488 JUMP JUMPDEST SWAP2 POP POP PUSH1 0x40 DUP1 DUP4 ADD MLOAD SWAP3 POP DUP7 DUP3 SUB DUP2 DUP9 ADD MSTORE POP PUSH2 0x1529 DUP2 DUP4 PUSH2 0x1488 JUMP JUMPDEST SWAP11 DUP8 ADD SWAP11 SWAP6 POP POP POP SWAP1 DUP5 ADD SWAP1 PUSH1 0x1 ADD PUSH2 0x14D2 JUMP JUMPDEST POP SWAP2 SWAP8 SWAP7 POP POP POP POP POP POP POP JUMP JUMPDEST PUSH1 0x0 PUSH1 0x20 DUP1 DUP4 MSTORE PUSH1 0xE0 DUP4 ADD PUSH1 0x1 DUP1 PUSH1 0xA0 SHL SUB DUP1 DUP7 MLOAD AND DUP4 DUP7 ADD MSTORE DUP3 DUP7 ADD MLOAD PUSH1 0x40 DUP2 DUP2 DUP9 ADD MSTORE DUP1 DUP9 ADD MLOAD SWAP2 POP PUSH1 0x60 DUP3 DUP2 DUP10 ADD MSTORE DUP1 DUP10 ADD MLOAD SWAP3 POP PUSH1 0x80 DUP4 ISZERO ISZERO DUP2 DUP11 ADD MSTORE DUP1 DUP11 ADD MLOAD SWAP4 POP PUSH1 0xC0 PUSH1 0xA0 DUP11 ADD MSTORE DUP6 DUP5 MLOAD DUP1 DUP9 MSTORE PUSH2 0x100 SWAP8 POP DUP8 DUP12 ADD SWAP2 POP DUP8 DUP2 PUSH1 0x5 SHL DUP13 ADD ADD SWAP8 POP DUP9 DUP7 ADD SWAP6 POP PUSH1 0x0 JUMPDEST DUP2 DUP2 LT ISZERO PUSH2 0x162D JUMPI DUP12 DUP10 SUB PUSH1 0xFF NOT ADD DUP4 MSTORE DUP7 MLOAD DUP1 MLOAD DUP6 DUP12 MSTORE PUSH2 0x15DE DUP7 DUP13 ADD DUP3 PUSH2 0x1488 JUMP JUMPDEST SWAP1 POP DUP12 DUP3 ADD MLOAD DUP12 DUP3 SUB DUP14 DUP14 ADD MSTORE PUSH2 0x15F5 DUP3 DUP3 PUSH2 0x1488 JUMP JUMPDEST SWAP2 POP POP DUP10 DUP9 DUP4 ADD MLOAD AND DUP9 DUP13 ADD MSTORE DUP7 DUP3 ADD MLOAD SWAP2 POP DUP11 DUP2 SUB DUP8 DUP13 ADD MSTORE PUSH2 0x1619 DUP2 DUP4 PUSH2 0x1488 JUMP JUMPDEST SWAP11 POP POP POP SWAP6 DUP10 ADD SWAP6 SWAP2 DUP10 ADD SWAP2 PUSH1 0x1 ADD PUSH2 0x15BA JUMP JUMPDEST POP POP POP POP POP POP POP POP PUSH1 0xA0 DUP6 ADD MLOAD SWAP2 POP PUSH1 0x1F NOT DUP5 DUP3 SUB ADD PUSH1 0xC0 DUP6 ADD MSTORE PUSH2 0x1652 DUP2 DUP4 PUSH2 0x14B4 JUMP JUMPDEST SWAP6 SWAP5 POP POP POP POP POP JUMP JUMPDEST PUSH1 0x0 PUSH1 0x20 DUP3 DUP5 SUB SLT ISZERO PUSH2 0x166D JUMPI PUSH1 0x0 DUP1 REVERT JUMPDEST PUSH2 0x1676 DUP3 PUSH2 0x1156 JUMP JUMPDEST SWAP4 SWAP3 POP POP POP JUMP JUMPDEST PUSH1 0x0 PUSH1 0x20 DUP1 DUP4 ADD DUP2 DUP5 MSTORE DUP1 DUP6 MLOAD DUP1 DUP4 MSTORE PUSH1 0x40 DUP7 ADD SWAP2 POP PUSH1 0x40 DUP2 PUSH1 0x5 SHL DUP8 ADD ADD SWAP3 POP DUP4 DUP8 ADD PUSH1 0x0 JUMPDEST DUP3 DUP2 LT ISZERO PUSH2 0x16D2 JUMPI PUSH1 0x3F NOT DUP9 DUP7 SUB ADD DUP5 MSTORE PUSH2 0x16C0 DUP6 DUP4 MLOAD PUSH2 0x1488 JUMP JUMPDEST SWAP5 POP SWAP3 DUP6 ADD SWAP3 SWAP1 DUP6 ADD SWAP1 PUSH1 0x1 ADD PUSH2 0x16A4 JUMP JUMPDEST POP SWAP3 SWAP8 SWAP7 POP POP POP POP POP POP POP JUMP JUMPDEST PUSH1 0x0 DUP3 MLOAD PUSH2 0x16F1 DUP2 DUP5 PUSH1 0x20 DUP8 ADD PUSH2 0x1464 JUMP JUMPDEST SWAP2 SWAP1 SWAP2 ADD SWAP3 SWAP2 POP POP JUMP JUMPDEST PUSH1 0x20 DUP1 DUP3 MSTORE PUSH1 0x1F SWAP1 DUP3 ADD MSTORE PUSH32 0x44494452656769737472793A20444944206E6F74207265676973746572656400 PUSH1 0x40 DUP3 ADD MSTORE PUSH1 0x60 ADD SWAP1 JUMP JUMPDEST PUSH1 0x20 DUP1 DUP3 MSTORE PUSH1 0x25 SWAP1 DUP3 ADD MSTORE PUSH32 0x44494452656769737472793A2043616C6C6572206973206E6F7420636F6E7472 PUSH1 0x40 DUP3 ADD MSTORE PUSH5 0x37B63632B9 PUSH1 0xD9 SHL PUSH1 0x60 DUP3 ADD MSTORE PUSH1 0x80 ADD SWAP1 JUMP JUMPDEST PUSH1 0x20 DUP1 DUP3 MSTORE PUSH1 0x25 SWAP1 DUP3 ADD MSTORE PUSH32 0x44494452656769737472793A2044494420686173206265656E20646561637469 PUSH1 0x40 DUP3 ADD MSTORE PUSH5 0x1D985D1959 PUSH1 0xDA SHL PUSH1 0x60 DUP3 ADD MSTORE PUSH1 0x80 ADD SWAP1 JUMP JUMPDEST PUSH1 0x1 DUP2 DUP2 SHR SWAP1 DUP3 AND DUP1 PUSH2 0x17D0 JUMPI PUSH1 0x7F DUP3 AND SWAP2 POP JUMPDEST PUSH1 0x20 DUP3 LT DUP2 SUB PUSH2 0x17F0 JUMPI PUSH4 0x4E487B71 PUSH1 0xE0 SHL PUSH1 0x0 MSTORE PUSH1 0x22 PUSH1 0x4 MSTORE PUSH1 0x24 PUSH1 0x0 REVERT JUMPDEST POP SWAP2 SWAP1 POP JUMP JUMPDEST PUSH1 0x1F DUP3 GT ISZERO PUSH2 0x1840 JUMPI PUSH1 0x0 DUP2 DUP2 MSTORE PUSH1 0x20 DUP2 KECCAK256 PUSH1 0x1F DUP6 ADD PUSH1 0x5 SHR DUP2 ADD PUSH1 0x20 DUP7 LT ISZERO PUSH2 0x181D JUMPI POP DUP1 JUMPDEST PUSH1 0x1F DUP6 ADD PUSH1 0x5 SHR DUP3 ADD SWAP2 POP JUMPDEST DUP2 DUP2 LT ISZERO PUSH2 0x183C JUMPI DUP3 DUP2 SSTORE PUSH1 0x1 ADD PUSH2 0x1829 JUMP JUMPDEST POP POP POP JUMPDEST POP POP POP JUMP JUMPDEST DUP2 MLOAD PUSH8 0xFFFFFFFFFFFFFFFF DUP2 GT ISZERO PUSH2 0x185F JUMPI PUSH2 0x185F PUSH2 0x10B3 JUMP JUMPDEST PUSH2 0x1873 DUP2 PUSH2 0x186D DUP5 SLOAD PUSH2 0x17BC JUMP JUMPDEST DUP5 PUSH2 0x17F6 JUMP JUMPDEST PUSH1 0x20 DUP1 PUSH1 0x1F DUP4 GT PUSH1 0x1 DUP2 EQ PUSH2 0x18A8 JUMPI PUSH1 0x0 DUP5 ISZERO PUSH2 0x1890 JUMPI POP DUP6 DUP4 ADD MLOAD JUMPDEST PUSH1 0x0 NOT PUSH1 0x3 DUP7 SWAP1 SHL SHR NOT AND PUSH1 0x1 DUP6 SWAP1 SHL OR DUP6 SSTORE PUSH2 0x183C JUMP JUMPDEST PUSH1 0x0 DUP6 DUP2 MSTORE PUSH1 0x20 DUP2 KECCAK256 PUSH1 0x1F NOT DUP7 AND SWAP2 JUMPDEST DUP3 DUP2 LT ISZERO PUSH2 0x18D7 JUMPI DUP9 DUP7 ADD MLOAD DUP3 SSTORE SWAP5 DUP5 ADD SWAP5 PUSH1 0x1 SWAP1 SWAP2 ADD SWAP1 DUP5 ADD PUSH2 0x18B8 JUMP JUMPDEST POP DUP6 DUP3 LT ISZERO PUSH2 0x18F5 JUMPI DUP8 DUP6 ADD MLOAD PUSH1 0x0 NOT PUSH1 0x3 DUP9 SWAP1 SHL PUSH1 0xF8 AND SHR NOT AND DUP2 SSTORE JUMPDEST POP POP POP POP POP PUSH1 0x1 SWAP1 DUP2 SHL ADD SWAP1 SSTORE POP JUMP INVALID LOG2 PUSH5 0x6970667358 0x22 SLT KECCAK256 0xE 0xD4 0x4F 0xB0 0xC1 0x2A 0xD1 PUSH15 0xF2C882DFEE6414B67698C21F3EE200 0xF7 PUSH7 0x9B97C6DEDC4AF4 PUSH5 0x736F6C6343 STOP ADDMOD EQ STOP CALLER "},"methodIdentifiers":{"addPublicKey(string,(string,string,address,string))":"0460d92a","addServiceEndpoint(string,(string,string,string))":"6d78a677","deactivateDID(string)":"3b253b23","getDIDsByController(address)":"b363cff3","isDIDActive(string)":"20c9d73a","registerDID(string,(string,string,address,string),(string,string,string))":"9cd187f5","resolveDID(string)":"9d7f0bbf"}}}}}