{
  "_format": "hh-sol-artifact-1",
  "contractName": "AccessControl",
  "sourceName": "contracts/AccessControl.sol",
  "abi": [
    {
      "inputs": [
        {
          "internalType": "address",
          "name": "_didRegistry",
          "type": "address"
        },
        {
          "internalType": "address",
          "name": "_credentialStatus",
          "type": "address"
        }
      ],
      "stateMutability": "nonpayable",
      "type": "constructor"
    },
    {
      "anonymous": false,
      "inputs": [
        {
          "indexed": false,
          "internalType": "string",
          "name": "holderDID",
          "type": "string"
        },
        {
          "indexed": false,
          "internalType": "string",
          "name": "verifierDID",
          "type": "string"
        },
        {
          "indexed": false,
          "internalType": "bytes32",
          "name": "credentialId",
          "type": "bytes32"
        },
        {
          "indexed": false,
          "internalType": "uint256",
          "name": "expiresAt",
          "type": "uint256"
        }
      ],
      "name": "ConsentGranted",
      "type": "event"
    },
    {
      "anonymous": false,
      "inputs": [
        {
          "indexed": false,
          "internalType": "string",
          "name": "holderDID",
          "type": "string"
        },
        {
          "indexed": false,
          "internalType": "string",
          "name": "verifierDID",
          "type": "string"
        },
        {
          "indexed": false,
          "internalType": "bytes32",
          "name": "credentialId",
          "type": "bytes32"
        },
        {
          "indexed": false,
          "internalType": "uint256",
          "name": "timestamp",
          "type": "uint256"
        }
      ],
      "name": "ConsentRevoked",
      "type": "event"
    },
    {
      "anonymous": false,
      "inputs": [
        {
          "indexed": true,
          "internalType": "address",
          "name": "issuer",
          "type": "address"
        },
        {
          "indexed": false,
          "internalType": "string",
          "name": "did",
          "type": "string"
        },
        {
          "indexed": true,
          "internalType": "address",
          "name": "admin",
          "type": "address"
        },
        {
          "indexed": false,
          "internalType": "uint256",
          "name": "timestamp",
          "type": "uint256"
        }
      ],
      "name": "IssuerAuthorized",
      "type": "event"
    },
    {
      "anonymous": false,
      "inputs": [
        {
          "indexed": true,
          "internalType": "address",
          "name": "account",
          "type": "address"
        },
        {
          "indexed": false,
          "internalType": "string",
          "name": "did",
          "type": "string"
        },
        {
          "indexed": false,
          "internalType": "enum AccessControl.Role",
          "name": "role",
          "type": "uint8"
        },
        {
          "indexed": false,
          "internalType": "uint256",
          "name": "timestamp",
          "type": "uint256"
        }
      ],
      "name": "StakeholderRegistered",
      "type": "event"
    },
    {
      "inputs": [
        {
          "internalType": "address",
          "name": "issuerAddress",
          "type": "address"
        },
        {
          "internalType": "string",
          "name": "did",
          "type": "string"
        }
      ],
      "name": "authorizeIssuer",
      "outputs": [],
      "stateMutability": "nonpayable",
      "type": "function"
    },
    {
      "inputs": [],
      "name": "credentialStatus",
      "outputs": [
        {
          "internalType": "contract CredentialStatus",
          "name": "",
          "type": "address"
        }
      ],
      "stateMutability": "view",
      "type": "function"
    },
    {
      "inputs": [],
      "name": "didRegistry",
      "outputs": [
        {
          "internalType": "contract DIDRegistry",
          "name": "",
          "type": "address"
        }
      ],
      "stateMutability": "view",
      "type": "function"
    },
    {
      "inputs": [
        {
          "internalType": "address",
          "name": "account",
          "type": "address"
        }
      ],
      "name": "getRole",
      "outputs": [
        {
          "internalType": "enum AccessControl.Role",
          "name": "",
          "type": "uint8"
        }
      ],
      "stateMutability": "view",
      "type": "function"
    },
    {
      "inputs": [
        {
          "internalType": "address",
          "name": "account",
          "type": "address"
        }
      ],
      "name": "getStakeholder",
      "outputs": [
        {
          "components": [
            {
              "internalType": "string",
              "name": "did",
              "type": "string"
            },
            {
              "internalType": "enum AccessControl.Role",
              "name": "role",
              "type": "uint8"
            },
            {
              "internalType": "address",
              "name": "authorizedBy",
              "type": "address"
            },
            {
              "internalType": "uint256",
              "name": "registeredAt",
              "type": "uint256"
            },
            {
              "internalType": "bool",
              "name": "active",
              "type": "bool"
            }
          ],
          "internalType": "struct AccessControl.Stakeholder",
          "name": "",
          "type": "tuple"
        }
      ],
      "stateMutability": "view",
      "type": "function"
    },
    {
      "inputs": [
        {
          "internalType": "string",
          "name": "verifierDID",
          "type": "string"
        },
        {
          "internalType": "bytes32",
          "name": "credentialId",
          "type": "bytes32"
        },
        {
          "internalType": "uint256",
          "name": "expiresAt",
          "type": "uint256"
        }
      ],
      "name": "grantConsent",
      "outputs": [],
      "stateMutability": "nonpayable",
      "type": "function"
    },
    {
      "inputs": [
        {
          "internalType": "string",
          "name": "holderDID",
          "type": "string"
        },
        {
          "internalType": "string",
          "name": "verifierDID",
          "type": "string"
        },
        {
          "internalType": "bytes32",
          "name": "credentialId",
          "type": "bytes32"
        }
      ],
      "name": "hasConsent",
      "outputs": [
        {
          "internalType": "bool",
          "name": "",
          "type": "bool"
        }
      ],
      "stateMutability": "view",
      "type": "function"
    },
    {
      "inputs": [
        {
          "internalType": "string",
          "name": "did",
          "type": "string"
        }
      ],
      "name": "registerAsHolder",
      "outputs": [],
      "stateMutability": "nonpayable",
      "type": "function"
    },
    {
      "inputs": [
        {
          "internalType": "string",
          "name": "did",
          "type": "string"
        }
      ],
      "name": "registerAsVerifier",
      "outputs": [],
      "stateMutability": "nonpayable",
      "type": "function"
    },
    {
      "inputs": [
        {
          "internalType": "string",
          "name": "verifierDID",
          "type": "string"
        },
        {
          "internalType": "bytes32",
          "name": "credentialId",
          "type": "bytes32"
        }
      ],
      "name": "revokeConsent",
      "outputs": [],
      "stateMutability": "nonpayable",
      "type": "function"
    },
    {
      "inputs": [],
      "name": "superAdmin",
      "outputs": [
        {
          "internalType": "address",
          "name": "",
          "type": "address"
        }
      ],
      "stateMutability": "view",
      "type": "function"
    }
  ],
  "bytecode": "0x60e06040523480156200001157600080fd5b50604051620020753803806200207583398101604081905262000034916200008b565b6001600160a01b039182166080521660a0523360c08190526000908152600160208190526040909120805460ff19169091179055620000c3565b80516001600160a01b03811681146200008657600080fd5b919050565b600080604083850312156200009f57600080fd5b620000aa836200006e565b9150620000ba602084016200006e565b90509250929050565b60805160a05160c051611f5262000123600039600060b30152600081816101fe01528181610c6601528181610d7a01526110bf01526000818161013301528181610388015281816106ae01528181610a4001526111670152611f526000f3fe608060405234801561001057600080fd5b50600436106100a95760003560e01c80637f8d3a3c116100715780637f8d3a3c1461018a578063822f96ec1461019d578063902827ef146101b057806393151dd5146101d3578063963bce87146101e6578063e2631fb4146101f957600080fd5b806329575f6a146100ae57806344276733146100f2578063577f9fb11461012e57806362afde251461015557806373835bbc14610175575b600080fd5b6100d57f000000000000000000000000000000000000000000000000000000000000000081565b6040516001600160a01b0390911681526020015b60405180910390f35b6101216101003660046115c4565b6001600160a01b031660009081526020819052604090206001015460ff1690565b6040516100e99190611619565b6100d57f000000000000000000000000000000000000000000000000000000000000000081565b6101686101633660046115c4565b610220565b6040516100e9919061167d565b6101886101833660046117ce565b610371565b005b61018861019836600461180b565b6105c6565b6101886101ab36600461185b565b6109b1565b6101c36101be3660046118a9565b61102c565b60405190151581526020016100e9565b6101886101e13660046117ce565b611150565b6101886101f4366004611916565b61138e565b6100d57f000000000000000000000000000000000000000000000000000000000000000081565b6102536040805160a081019091526060815260208101600081526000602082018190526040820181905260609091015290565b6001600160a01b03821660009081526020819052604090819020815160a081019092528054829082906102859061195b565b80601f01602080910402602001604051908101604052809291908181526020018280546102b19061195b565b80156102fe5780601f106102d3576101008083540402835291602001916102fe565b820191906000526020600020905b8154815290600101906020018083116102e157829003601f168201915b5050509183525050600182015460209091019060ff166003811115610325576103256115e1565b6003811115610336576103366115e1565b8152600182015461010090046001600160a01b031660208201526002820154604082015260039091015460ff16151560609091015292915050565b604051631064eb9d60e11b81526001600160a01b037f000000000000000000000000000000000000000000000000000000000000000016906320c9d73a906103bd908490600401611995565b602060405180830381865afa1580156103da573d6000803e3d6000fd5b505050506040513d601f19601f820116820180604052508101906103fe91906119a8565b6104235760405162461bcd60e51b815260040161041a906119ca565b60405180910390fd5b3360009081526020819052604090206003015460ff16156104565760405162461bcd60e51b815260040161041a906119ff565b60006104618261157c565b6000818152600260205260409020549091506001600160a01b0316156104995760405162461bcd60e51b815260040161041a90611a40565b6040805160a081018252838152600160208083018290526000838501819052426060850152608084019290925233825281905291909120815181906104de9082611ad0565b50602082015160018083018054909160ff1990911690836003811115610506576105066115e1565b0217905550604082810151600180840180546001600160a01b0390931661010002610100600160a81b03199093169290921790915560608401516002808501919091556080909401516003909301805493151560ff199094169390931790925560008481526020939093529182902080546001600160a01b0319163390811790915591517fefe0ed7b84aeca0b627ee9959efb026ae6abbbd4d68485f6b13bf0d872996a2d916105ba918691904290611b90565b60405180910390a25050565b3360009081526001602052604090205460ff166106335760405162461bcd60e51b815260206004820152602560248201527f416363657373436f6e74726f6c3a2043616c6c6572206973206e6f7420616e2060448201526430b236b4b760d91b606482015260840161041a565b6001600160a01b0382166106975760405162461bcd60e51b815260206004820152602560248201527f416363657373436f6e74726f6c3a20696e76616c696420697373756572206164604482015264647265737360d81b606482015260840161041a565b604051631064eb9d60e11b81526001600160a01b037f000000000000000000000000000000000000000000000000000000000000000016906320c9d73a906106e3908490600401611995565b602060405180830381865afa158015610700573d6000803e3d6000fd5b505050506040513d601f19601f8201168201806040525081019061072491906119a8565b6107405760405162461bcd60e51b815260040161041a906119ca565b600061074b8261157c565b6000818152600260205260409020549091506001600160a01b03168015806107845750836001600160a01b0316816001600160a01b0316145b6107a05760405162461bcd60e51b815260040161041a90611a40565b6001600160a01b03841660009081526020819052604090206003015460ff16158061080c57508280519060200120600080866001600160a01b03166001600160a01b031681526020019081526020016000206000016040516108029190611c33565b6040518091039020145b61087e5760405162461bcd60e51b815260206004820152603a60248201527f416363657373436f6e74726f6c3a20697373756572206164647265737320616c60448201527f726561647920626f756e6420746f20616e6f7468657220444944000000000000606482015260840161041a565b6040805160a08101825284815260026020808301919091523382840152426060830152600160808301526001600160a01b03871660009081529081905291909120815181906108cd9082611ad0565b50602082015160018083018054909160ff19909116908360038111156108f5576108f56115e1565b0217905550604082810151600183018054610100600160a81b0319166101006001600160a01b039384160217905560608401516002808501919091556080909401516003909301805460ff19169315159390931790925560008581526020939093529182902080546001600160a01b031916918716918217905590513391907fb65fdc917fc7876268373dacdfffb722b5158dc0086b42b186949d1ed516e36a906109a39087904290611c3f565b60405180910390a350505050565b3360009081526020819052604090206003015460ff166109e35760405162461bcd60e51b815260040161041a90611c61565b33600090815260208190526040902060018082015460ff166003811115610a0c57610a0c6115e1565b14610a295760405162461bcd60e51b815260040161041a90611ca8565b604051631064eb9d60e11b81526001600160a01b037f000000000000000000000000000000000000000000000000000000000000000016906320c9d73a90610a75908790600401611995565b602060405180830381865afa158015610a92573d6000803e3d6000fd5b505050506040513d601f19601f82011682018060405250810190610ab691906119a8565b610b145760405162461bcd60e51b815260206004820152602960248201527f416363657373436f6e74726f6c3a20766572696669657220444944206973206e6044820152686f742061637469766560b81b606482015260840161041a565b600060026000610b238761157c565b81526020810191909152604001600020546001600160a01b0316905080610b9b5760405162461bcd60e51b815260206004820152602660248201527f416363657373436f6e74726f6c3a207665726966696572206e6f7420726567696044820152651cdd195c995960d21b606482015260840161041a565b6001600160a01b03811660009081526020819052604090206003015460ff168015610bf5575060036001600160a01b03821660009081526020819052604090206001015460ff166003811115610bf357610bf36115e1565b145b610c4d5760405162461bcd60e51b8152602060048201526024808201527f416363657373436f6e74726f6c3a20696e76616c696420766572696669657220604482015263726f6c6560e01b606482015260840161041a565b604051632ca4faff60e11b8152600481018590526000907f00000000000000000000000000000000000000000000000000000000000000006001600160a01b031690635949f5fe90602401600060405180830381865afa158015610cb5573d6000803e3d6000fd5b505050506040513d6000823e601f3d908101601f19168201604052610cdd9190810190611d42565b604051909150610cee908490611c33565b604051809103902081602001518051906020012014610d645760405162461bcd60e51b815260206004820152602c60248201527f416363657373436f6e74726f6c3a20686f6c646572206e6f742063726564656e60448201526b1d1a585b081cdd589a9958dd60a21b606482015260840161041a565b604051634294857f60e01b8152600481018690527f00000000000000000000000000000000000000000000000000000000000000006001600160a01b031690634294857f90602401602060405180830381865afa158015610dc9573d6000803e3d6000fd5b505050506040513d601f19601f82011682018060405250810190610ded91906119a8565b15610e445760405162461bcd60e51b815260206004820152602160248201527f416363657373436f6e74726f6c3a2063726564656e7469616c207265766f6b656044820152601960fa1b606482015260840161041a565b831580610e5057504284115b610e9c5760405162461bcd60e51b815260206004820152601d60248201527f416363657373436f6e74726f6c3a20696e76616c696420657870697279000000604482015260640161041a565b604051600090610eb490859089908990602001611e05565b6040516020818303038152906040528051906020012090506040518060a00160405280856000018054610ee69061195b565b80601f0160208091040260200160405190810160405280929190818152602001828054610f129061195b565b8015610f5f5780601f10610f3457610100808354040283529160200191610f5f565b820191906000526020600020905b815481529060010190602001808311610f4257829003601f168201915b505050918352505060208082018a905260408083018a9052606083018990526001608090930192909252600084815260039091522081518190610fa29082611ad0565b5060208201516001820190610fb79082611ad0565b506040828101516002830155606083015160038301556080909201516004909101805460ff1916911515919091179055517f67be6cb4bf0bdc400af0c61cc4ed9d056f87d62a9cb7838a607984dc42fbc4479061101b9086908a908a908a90611e30565b60405180910390a150505050505050565b60008084848460405160200161104493929190611eda565b60408051601f19818403018152918152815160209283012060008181526003909352912060048101549192509060ff1661108357600092505050611149565b6003810154158015906110995750806003015442115b156110a957600092505050611149565b604051634294857f60e01b8152600481018590527f00000000000000000000000000000000000000000000000000000000000000006001600160a01b031690634294857f90602401602060405180830381865afa15801561110e573d6000803e3d6000fd5b505050506040513d601f19601f8201168201806040525081019061113291906119a8565b1561114257600092505050611149565b6001925050505b9392505050565b604051631064eb9d60e11b81526001600160a01b037f000000000000000000000000000000000000000000000000000000000000000016906320c9d73a9061119c908490600401611995565b602060405180830381865afa1580156111b9573d6000803e3d6000fd5b505050506040513d601f19601f820116820180604052508101906111dd91906119a8565b6111f95760405162461bcd60e51b815260040161041a906119ca565b3360009081526020819052604090206003015460ff161561122c5760405162461bcd60e51b815260040161041a906119ff565b60006112378261157c565b6000818152600260205260409020549091506001600160a01b03161561126f5760405162461bcd60e51b815260040161041a90611a40565b6040805160a08101825283815260036020808301919091526000828401819052426060840152600160808401523381529081905291909120815181906112b59082611ad0565b50602082015160018083018054909160ff19909116908360038111156112dd576112dd6115e1565b02179055506040828101516001830180546001600160a01b0390921661010002610100600160a81b031990921691909117905560608301516002808401919091556080909301516003928301805491151560ff1990921691909117905560008481526020939093529182902080546001600160a01b0319163390811790915591517fefe0ed7b84aeca0b627ee9959efb026ae6abbbd4d68485f6b13bf0d872996a2d916105ba918691904290611b90565b3360009081526020819052604090206003015460ff166113c05760405162461bcd60e51b815260040161041a90611c61565b33600090815260208190526040902060018082015460ff1660038111156113e9576113e96115e1565b146114065760405162461bcd60e51b815260040161041a90611ca8565b60405160009061141e90839086908690602001611e05565b60408051601f19818403018152918152815160209283012060008181526003909352912060048101549192509060ff166114a45760405162461bcd60e51b815260206004820152602160248201527f416363657373436f6e74726f6c3a20636f6e73656e74206e6f742061637469766044820152606560f81b606482015260840161041a565b6040516114b2908490611c33565b604051908190038120906114c7908390611c33565b60405180910390201461152b5760405162461bcd60e51b815260206004820152602660248201527f416363657373436f6e74726f6c3a20756e617574686f72697a6564207265766f60448201526531b0ba34b7b760d11b606482015260840161041a565b60048101805460ff191690556040517f8b681dd6d55c9cd7e916d69d6dca95e8c864037b55ec900da7f8f73f67d7361f9061156d908590889088904290611e30565b60405180910390a15050505050565b60008160405160200161158f9190611f00565b604051602081830303815290604052805190602001209050919050565b6001600160a01b03811681146115c157600080fd5b50565b6000602082840312156115d657600080fd5b8135611149816115ac565b634e487b7160e01b600052602160045260246000fd5b6004811061161557634e487b7160e01b600052602160045260246000fd5b9052565b6020810161162782846115f7565b92915050565b60005b83811015611648578181015183820152602001611630565b50506000910152565b6000815180845261166981602086016020860161162d565b601f01601f19169290920160200192915050565b602081526000825160a0602084015261169960c0840182611651565b905060208401516116ad60408501826115f7565b5060018060a01b036040850151166060840152606084015160808401526080840151151560a08401528091505092915050565b634e487b7160e01b600052604160045260246000fd5b60405160c0810167ffffffffffffffff81118282101715611719576117196116e0565b60405290565b604051601f8201601f1916810167ffffffffffffffff81118282101715611748576117486116e0565b604052919050565b600067ffffffffffffffff82111561176a5761176a6116e0565b50601f01601f191660200190565b600082601f83011261178957600080fd5b813561179c61179782611750565b61171f565b8181528460208386010111156117b157600080fd5b816020850160208301376000918101602001919091529392505050565b6000602082840312156117e057600080fd5b813567ffffffffffffffff8111156117f757600080fd5b61180384828501611778565b949350505050565b6000806040838503121561181e57600080fd5b8235611829816115ac565b9150602083013567ffffffffffffffff81111561184557600080fd5b61185185828601611778565b9150509250929050565b60008060006060848603121561187057600080fd5b833567ffffffffffffffff81111561188757600080fd5b61189386828701611778565b9660208601359650604090950135949350505050565b6000806000606084860312156118be57600080fd5b833567ffffffffffffffff808211156118d657600080fd5b6118e287838801611778565b945060208601359150808211156118f857600080fd5b5061190586828701611778565b925050604084013590509250925092565b6000806040838503121561192957600080fd5b823567ffffffffffffffff81111561194057600080fd5b61194c85828601611778565b95602094909401359450505050565b600181811c9082168061196f57607f821691505b60208210810361198f57634e487b7160e01b600052602260045260246000fd5b50919050565b6020815260006111496020830184611651565b6000602082840312156119ba57600080fd5b8151801515811461114957600080fd5b6020808252818101527f416363657373436f6e74726f6c3a20444944206973206e6f7420616374697665604082015260600190565b60208082526021908201527f416363657373436f6e74726f6c3a20616c7265616479207265676973746572656040820152601960fa1b606082015260800190565b60208082526021908201527f416363657373436f6e74726f6c3a2044494420616c726561647920696e2075736040820152606560f81b606082015260800190565b601f821115611acb57600081815260208120601f850160051c81016020861015611aa85750805b601f850160051c820191505b81811015611ac757828155600101611ab4565b5050505b505050565b815167ffffffffffffffff811115611aea57611aea6116e0565b611afe81611af8845461195b565b84611a81565b602080601f831160018114611b335760008415611b1b5750858301515b600019600386901b1c1916600185901b178555611ac7565b600085815260208120601f198616915b82811015611b6257888601518255948401946001909101908401611b43565b5085821015611b805787850151600019600388901b60f8161c191681555b5050505050600190811b01905550565b606081526000611ba36060830186611651565b9050611bb260208301856115f7565b826040830152949350505050565b60008154611bcd8161195b565b60018281168015611be55760018114611bfa57611c29565b60ff1984168752821515830287019450611c29565b8560005260208060002060005b85811015611c205781548a820152908401908201611c07565b50505082870194505b5050505092915050565b60006111498284611bc0565b604081526000611c526040830185611651565b90508260208301529392505050565b60208082526027908201527f416363657373436f6e74726f6c3a2043616c6c6572206973206e6f74207265676040820152661a5cdd195c995960ca1b606082015260800190565b60208082526025908201527f416363657373436f6e74726f6c3a2063616c6c6572206973206e6f742061206860408201526437b63232b960d91b606082015260800190565b8051611cf8816115ac565b919050565b600082601f830112611d0e57600080fd5b8151611d1c61179782611750565b818152846020838601011115611d3157600080fd5b61180382602083016020870161162d565b600060208284031215611d5457600080fd5b815167ffffffffffffffff80821115611d6c57600080fd5b9083019060c08286031215611d8057600080fd5b611d886116f6565b611d9183611ced565b8152602083015182811115611da557600080fd5b611db187828601611cfd565b60208301525060408301516040820152606083015182811115611dd357600080fd5b611ddf87828601611cfd565b6060830152506080830151608082015260a083015160a082015280935050505092915050565b6000611e118286611bc0565b8451611e2181836020890161162d565b01928352505060200192915050565b608081526000808654611e428161195b565b80608086015260a0600180841660008114611e645760018114611e7e57611eaf565b60ff1985168884015283151560051b880183019550611eaf565b8b60005260208060002060005b86811015611ea65781548b8201870152908401908201611e8b565b8a018501975050505b50505050508281036020840152611ec68187611651565b604084019590955250506060015292915050565b60008451611eec81846020890161162d565b845190830190611e2181836020890161162d565b60008251611f1281846020870161162d565b919091019291505056fea2646970667358221220a1b285dfaf9d63cefa81babddc0c03335521525b54b66be40c2620991cbcdd7864736f6c63430008140033",
  "linkReferences": {},
  "deployedLinkReferences": {}
}