{
  "_format": "hh-sol-artifact-1",
  "contractName": "AccessControl",
  "sourceName": "contracts/AccessControl.sol",
  "abi": [
    {
      "inputs": [
        {
          "internalType": "address",
          "name": "_didRegistry",
          "type": "address"
        },
        {
          "internalType": "address",
          "name": "_credentialStatus",
          "type": "address"
        }
      ],
      "stateMutability": "nonpayable",
      "type": "constructor"
    },
    {
      "anonymous": false,
      "inputs": [
        {
          "indexed": false,
          "internalType": "string",
          "name": "holderDID",
          "type": "string"
        },
        {
          "indexed": false,
          "internalType": "string",
          "name": "verifierDID",
          "type": "string"
        },
        {
          "indexed": false,
          "internalType": "bytes32",
          "name": "credentialId",
          "type": "bytes32"
        },
        {
          "indexed": false,
          "internalType": "uint256",
          "name": "expiresAt",
          "type": "uint256"
        }
      ],
      "name": "ConsentGranted",
      "type": "event"
    },
    {
      "anonymous": false,
      "inputs": [
        {
          "indexed": false,
          "internalType": "string",
          "name": "holderDID",
          "type": "string"
        },
        {
          "indexed": false,
          "internalType": "string",
          "name": "verifierDID",
          "type": "string"
        },
        {
          "indexed": false,
          "internalType": "bytes32",
          "name": "credentialId",
          "type": "bytes32"
        },
        {
          "indexed": false,
          "internalType": "uint256",
          "name": "timestamp",
          "type": "uint256"
        }
      ],
      "name": "ConsentRevoked",
      "type": "event"
    },
    {
      "anonymous": false,
      "inputs": [
        {
          "indexed": true,
          "internalType": "address",
          "name": "issuer",
          "type": "address"
        },
        {
          "indexed": false,
          "internalType": "string",
          "name": "did",
          "type": "string"
        },
        {
          "indexed": true,
          "internalType": "address",
          "name": "admin",
          "type": "address"
        },
        {
          "indexed": false,
          "internalType": "uint256",
          "name": "timestamp",
          "type": "uint256"
        }
      ],
      "name": "IssuerAuthorized",
      "type": "event"
    },
    {
      "anonymous": false,
      "inputs": [
        {
          "indexed": true,
          "internalType": "address",
          "name": "account",
          "type": "address"
        },
        {
          "indexed": false,
          "internalType": "string",
          "name": "did",
          "type": "string"
        },
        {
          "indexed": false,
          "internalType": "enum AccessControl.Role",
          "name": "role",
          "type": "uint8"
        },
        {
          "indexed": false,
          "internalType": "uint256",
          "name": "timestamp",
          "type": "uint256"
        }
      ],
      "name": "StakeholderRegistered",
      "type": "event"
    },
    {
      "inputs": [
        {
          "internalType": "address",
          "name": "issuerAddress",
          "type": "address"
        },
        {
          "internalType": "string",
          "name": "did",
          "type": "string"
        }
      ],
      "name": "authorizeIssuer",
      "outputs": [],
      "stateMutability": "nonpayable",
      "type": "function"
    },
    {
      "inputs": [],
      "name": "credentialStatus",
      "outputs": [
        {
          "internalType": "contract CredentialStatus",
          "name": "",
          "type": "address"
        }
      ],
      "stateMutability": "view",
      "type": "function"
    },
    {
      "inputs": [],
      "name": "didRegistry",
      "outputs": [
        {
          "internalType": "contract DIDRegistry",
          "name": "",
          "type": "address"
        }
      ],
      "stateMutability": "view",
      "type": "function"
    },
    {
      "inputs": [
        {
          "internalType": "address",
          "name": "account",
          "type": "address"
        }
      ],
      "name": "getRole",
      "outputs": [
        {
          "internalType": "enum AccessControl.Role",
          "name": "",
          "type": "uint8"
        }
      ],
      "stateMutability": "view",
      "type": "function"
    },
    {
      "inputs": [
        {
          "internalType": "address",
          "name": "account",
          "type": "address"
        }
      ],
      "name": "getStakeholder",
      "outputs": [
        {
          "components": [
            {
              "internalType": "string",
              "name": "did",
              "type": "string"
            },
            {
              "internalType": "enum AccessControl.Role",
              "name": "role",
              "type": "uint8"
            },
            {
              "internalType": "address",
              "name": "authorizedBy",
              "type": "address"
            },
            {
              "internalType": "uint256",
              "name": "registeredAt",
              "type": "uint256"
            },
            {
              "internalType": "bool",
              "name": "active",
              "type": "bool"
            }
          ],
          "internalType": "struct AccessControl.Stakeholder",
          "name": "",
          "type": "tuple"
        }
      ],
      "stateMutability": "view",
      "type": "function"
    },
    {
      "inputs": [
        {
          "internalType": "string",
          "name": "verifierDID",
          "type": "string"
        },
        {
          "internalType": "bytes32",
          "name": "credentialId",
          "type": "bytes32"
        },
        {
          "internalType": "uint256",
          "name": "expiresAt",
          "type": "uint256"
        }
      ],
      "name": "grantConsent",
      "outputs": [],
      "stateMutability": "nonpayable",
      "type": "function"
    },
    {
      "inputs": [
        {
          "internalType": "string",
          "name": "holderDID",
          "type": "string"
        },
        {
          "internalType": "string",
          "name": "verifierDID",
          "type": "string"
        },
        {
          "internalType": "bytes32",
          "name": "credentialId",
          "type": "bytes32"
        }
      ],
      "name": "hasConsent",
      "outputs": [
        {
          "internalType": "bool",
          "name": "",
          "type": "bool"
        }
      ],
      "stateMutability": "view",
      "type": "function"
    },
    {
      "inputs": [
        {
          "internalType": "string",
          "name": "did",
          "type": "string"
        }
      ],
      "name": "registerAsHolder",
      "outputs": [],
      "stateMutability": "nonpayable",
      "type": "function"
    },
    {
      "inputs": [
        {
          "internalType": "string",
          "name": "did",
          "type": "string"
        }
      ],
      "name": "registerAsVerifier",
      "outputs": [],
      "stateMutability": "nonpayable",
      "type": "function"
    },
    {
      "inputs": [
        {
          "internalType": "string",
          "name": "verifierDID",
          "type": "string"
        },
        {
          "internalType": "bytes32",
          "name": "credentialId",
          "type": "bytes32"
        }
      ],
      "name": "revokeConsent",
      "outputs": [],
      "stateMutability": "nonpayable",
      "type": "function"
    },
    {
      "inputs": [],
      "name": "superAdmin",
      "outputs": [
        {
          "internalType": "address",
          "name": "",
          "type": "address"
        }
      ],
      "stateMutability": "view",
      "type": "function"
    }
  ],
  "bytecode": "0x60e060405234801561001057600080fd5b5060405161098938038061098983398101604081905261002f91610084565b6001600160a01b039182166080521660a0523360c08190526000908152600160208190526040909120805460ff191690911790556100b7565b80516001600160a01b038116811461007f57600080fd5b919050565b6000806040838503121561009757600080fd5b6100a083610068565b91506100ae60208401610068565b90509250929050565b60805160a05160c0516108a46100e5600039600060b3015260006101e90152600061013301526108a46000f3fe608060405234801561001057600080fd5b50600436106100a95760003560e01c80637f8d3a3c116100715780637f8d3a3c14610188578063822f96ec1461019b578063902827ef146101ae57806393151dd514610175578063963bce87146101d1578063e2631fb4146101e457600080fd5b806329575f6a146100ae57806344276733146100f2578063577f9fb11461012e57806362afde251461015557806373835bbc14610175575b600080fd5b6100d57f000000000000000000000000000000000000000000000000000000000000000081565b6040516001600160a01b0390911681526020015b60405180910390f35b6101216101003660046104b4565b6001600160a01b031660009081526020819052604090206001015460ff1690565b6040516100e9919061050e565b6100d57f000000000000000000000000000000000000000000000000000000000000000081565b6101686101633660046104b4565b61020b565b6040516100e99190610522565b610186610183366004610662565b50565b005b61018661019636600461069f565b61035c565b6101866101a93660046106ed565b6103d2565b6101c16101bc36600461073b565b610409565b60405190151581526020016100e9565b6101866101df3660046107a8565b610466565b6100d57f000000000000000000000000000000000000000000000000000000000000000081565b61023e6040805160a081019091526060815260208101600081526000602082018190526040820181905260609091015290565b6001600160a01b03821660009081526020819052604090819020815160a08101909252805482908290610270906107ed565b80601f016020809104026020016040519081016040528092919081815260200182805461029c906107ed565b80156102e95780601f106102be576101008083540402835291602001916102e9565b820191906000526020600020905b8154815290600101906020018083116102cc57829003601f168201915b5050509183525050600182015460209091019060ff166003811115610310576103106104d6565b6003811115610321576103216104d6565b8152600182015461010090046001600160a01b031660208201526002820154604082015260039091015460ff16151560609091015292915050565b3360009081526001602052604090205460ff166103ce5760405162461bcd60e51b815260206004820152602560248201527f416363657373436f6e74726f6c3a2043616c6c6572206973206e6f7420616e2060448201526430b236b4b760d91b60648201526084015b60405180910390fd5b5050565b3360009081526020819052604090206003015460ff166104045760405162461bcd60e51b81526004016103c590610827565b505050565b60405162461bcd60e51b815260206004820152602960248201527f416363657373436f6e74726f6c3a20686173436f6e73656e74206e6f7420696d6044820152681c1b195b595b9d195960ba1b60648201526000906084016103c5565b3360009081526020819052604090206003015460ff166103ce5760405162461bcd60e51b81526004016103c590610827565b80356001600160a01b03811681146104af57600080fd5b919050565b6000602082840312156104c657600080fd5b6104cf82610498565b9392505050565b634e487b7160e01b600052602160045260246000fd5b6004811061050a57634e487b7160e01b600052602160045260246000fd5b9052565b6020810161051c82846104ec565b92915050565b60006020808352835160a08285015280518060c086015260005b818110156105585782810184015186820160e00152830161053c565b50600085820160e00152918501519161057460408601846104ec565b60408601516001600160a01b0381166060870152925060608601516080860152608086015192506105a960a086018415159052565b601f01601f19169390930160e001949350505050565b634e487b7160e01b600052604160045260246000fd5b600082601f8301126105e657600080fd5b813567ffffffffffffffff80821115610601576106016105bf565b604051601f8301601f19908116603f01168101908282118183101715610629576106296105bf565b8160405283815286602085880101111561064257600080fd5b836020870160208301376000602085830101528094505050505092915050565b60006020828403121561067457600080fd5b813567ffffffffffffffff81111561068b57600080fd5b610697848285016105d5565b949350505050565b600080604083850312156106b257600080fd5b6106bb83610498565b9150602083013567ffffffffffffffff8111156106d757600080fd5b6106e3858286016105d5565b9150509250929050565b60008060006060848603121561070257600080fd5b833567ffffffffffffffff81111561071957600080fd5b610725868287016105d5565b9660208601359650604090950135949350505050565b60008060006060848603121561075057600080fd5b833567ffffffffffffffff8082111561076857600080fd5b610774878388016105d5565b9450602086013591508082111561078a57600080fd5b50610797868287016105d5565b925050604084013590509250925092565b600080604083850312156107bb57600080fd5b823567ffffffffffffffff8111156107d257600080fd5b6107de858286016105d5565b95602094909401359450505050565b600181811c9082168061080157607f821691505b60208210810361082157634e487b7160e01b600052602260045260246000fd5b50919050565b60208082526027908201527f416363657373436f6e74726f6c3a2043616c6c6572206973206e6f74207265676040820152661a5cdd195c995960ca1b60608201526080019056fea2646970667358221220c68caf3a76b4ed0e636320df7a09c03c61f0f3c40c3a7cc8ba2d4dcec448d90564736f6c63430008140033",
  "linkReferences": {},
  "deployedLinkReferences": {}
}