{
  "_format": "hh-sol-artifact-1",
  "contractName": "CredentialStatus",
  "sourceName": "contracts/CredentialStatus.sol",
  "abi": [
    {
      "anonymous": false,
      "inputs": [
        {
          "indexed": true,
          "internalType": "bytes32",
          "name": "credentialId",
          "type": "bytes32"
        },
        {
          "indexed": true,
          "internalType": "address",
          "name": "issuer",
          "type": "address"
        },
        {
          "indexed": true,
          "internalType": "string",
          "name": "subjectDID",
          "type": "string"
        },
        {
          "indexed": false,
          "internalType": "bytes32",
          "name": "credentialHash",
          "type": "bytes32"
        },
        {
          "indexed": false,
          "internalType": "string",
          "name": "ipfsCID",
          "type": "string"
        },
        {
          "indexed": false,
          "internalType": "uint256",
          "name": "statusIndex",
          "type": "uint256"
        },
        {
          "indexed": false,
          "internalType": "uint256",
          "name": "timestamp",
          "type": "uint256"
        }
      ],
      "name": "CredentialIssued",
      "type": "event"
    },
    {
      "anonymous": false,
      "inputs": [
        {
          "indexed": true,
          "internalType": "bytes32",
          "name": "credentialId",
          "type": "bytes32"
        },
        {
          "indexed": true,
          "internalType": "address",
          "name": "issuer",
          "type": "address"
        },
        {
          "indexed": false,
          "internalType": "uint256",
          "name": "statusIndex",
          "type": "uint256"
        },
        {
          "indexed": false,
          "internalType": "uint256",
          "name": "timestamp",
          "type": "uint256"
        }
      ],
      "name": "CredentialRevoked",
      "type": "event"
    },
    {
      "anonymous": false,
      "inputs": [
        {
          "indexed": true,
          "internalType": "bytes32",
          "name": "credentialId",
          "type": "bytes32"
        },
        {
          "indexed": true,
          "internalType": "address",
          "name": "verifier",
          "type": "address"
        },
        {
          "indexed": false,
          "internalType": "bool",
          "name": "result",
          "type": "bool"
        },
        {
          "indexed": false,
          "internalType": "uint256",
          "name": "timestamp",
          "type": "uint256"
        }
      ],
      "name": "VerificationLogged",
      "type": "event"
    },
    {
      "inputs": [
        {
          "internalType": "bytes32",
          "name": "credentialId",
          "type": "bytes32"
        }
      ],
      "name": "getCredentialAnchor",
      "outputs": [
        {
          "components": [
            {
              "internalType": "address",
              "name": "issuer",
              "type": "address"
            },
            {
              "internalType": "string",
              "name": "subjectDID",
              "type": "string"
            },
            {
              "internalType": "bytes32",
              "name": "credentialHash",
              "type": "bytes32"
            },
            {
              "internalType": "string",
              "name": "ipfsCID",
              "type": "string"
            },
            {
              "internalType": "uint256",
              "name": "issuedAt",
              "type": "uint256"
            },
            {
              "internalType": "uint256",
              "name": "statusIndex",
              "type": "uint256"
            }
          ],
          "internalType": "struct CredentialStatus.CredentialAnchor",
          "name": "",
          "type": "tuple"
        }
      ],
      "stateMutability": "view",
      "type": "function"
    },
    {
      "inputs": [
        {
          "internalType": "bytes32",
          "name": "credentialId",
          "type": "bytes32"
        }
      ],
      "name": "isRevoked",
      "outputs": [
        {
          "internalType": "bool",
          "name": "",
          "type": "bool"
        }
      ],
      "stateMutability": "view",
      "type": "function"
    },
    {
      "inputs": [
        {
          "internalType": "string",
          "name": "subjectDID",
          "type": "string"
        },
        {
          "internalType": "bytes32",
          "name": "credentialHash",
          "type": "bytes32"
        },
        {
          "internalType": "string",
          "name": "ipfsCID",
          "type": "string"
        }
      ],
      "name": "issueCredential",
      "outputs": [
        {
          "internalType": "bytes32",
          "name": "credentialId",
          "type": "bytes32"
        }
      ],
      "stateMutability": "nonpayable",
      "type": "function"
    },
    {
      "inputs": [
        {
          "internalType": "bytes32",
          "name": "credentialId",
          "type": "bytes32"
        },
        {
          "internalType": "bool",
          "name": "result",
          "type": "bool"
        }
      ],
      "name": "logVerification",
      "outputs": [],
      "stateMutability": "nonpayable",
      "type": "function"
    },
    {
      "inputs": [
        {
          "internalType": "bytes32",
          "name": "credentialId",
          "type": "bytes32"
        }
      ],
      "name": "revokeCredential",
      "outputs": [],
      "stateMutability": "nonpayable",
      "type": "function"
    },
    {
      "inputs": [
        {
          "internalType": "bytes32",
          "name": "credentialId",
          "type": "bytes32"
        },
        {
          "internalType": "bytes32",
          "name": "computedHash",
          "type": "bytes32"
        }
      ],
      "name": "verifyCredentialIntegrity",
      "outputs": [
        {
          "internalType": "bool",
          "name": "",
          "type": "bool"
        }
      ],
      "stateMutability": "view",
      "type": "function"
    }
  ],
  "bytecode": "0x608060405234801561001057600080fd5b50610bb1806100206000396000f3fe608060405234801561001057600080fd5b50600436106100625760003560e01c80634294857f146100675780635949f5fe1461008f578063be9b3f49146100af578063ca6eec78146100c2578063d09080da146100d7578063f5946c09146100f8575b600080fd5b61007a6100753660046106dc565b61010b565b60405190151581526020015b60405180910390f35b6100a261009d3660046106dc565b6101ba565b6040516100869190610745565b61007a6100bd3660046107bb565b6103a0565b6100d56100d03660046106dc565b6103e6565b005b6100ea6100e5366004610880565b610493565b604051908152602001610086565b6100d56101063660046108ed565b61066c565b60008181526001602052604081205460ff166101425760405162461bcd60e51b815260040161013990610922565b60405180910390fd5b600082815260208190526040812060058101548154919290916001600160a01b0316906101716101008461097e565b9050600061018161010085610992565b6001600160a01b03909316600090815260026020908152604080832094835293905291909120546001921c821690911495945050505050565b6101ff6040518060c0016040528060006001600160a01b0316815260200160608152602001600080191681526020016060815260200160008152602001600081525090565b60008281526001602052604090205460ff1661022d5760405162461bcd60e51b815260040161013990610922565b60008281526020818152604091829020825160c0810190935280546001600160a01b031683526001810180549192840191610267906109a6565b80601f0160208091040260200160405190810160405280929190818152602001828054610293906109a6565b80156102e05780601f106102b5576101008083540402835291602001916102e0565b820191906000526020600020905b8154815290600101906020018083116102c357829003601f168201915b5050505050815260200160028201548152602001600382018054610303906109a6565b80601f016020809104026020016040519081016040528092919081815260200182805461032f906109a6565b801561037c5780601f106103515761010080835404028352916020019161037c565b820191906000526020600020905b81548152906001019060200180831161035f57829003601f168201915b50505050508152602001600482015481526020016005820154815250509050919050565b60008281526001602052604081205460ff166103ce5760405162461bcd60e51b815260040161013990610922565b50600091825260208290526040909120600201541490565b600081815260016020526040902054819060ff166104165760405162461bcd60e51b815260040161013990610922565b6000818152602081905260409020546001600160a01b0316331461048f5760405162461bcd60e51b815260206004820152602a60248201527f43726564656e7469616c5374617475733a2043616c6c6572206973206e6f74206044820152693a34329034b9b9bab2b960b11b6064820152608401610139565b5050565b6000338484426040516020016104ac94939291906109e0565b60408051601f1981840301815291815281516020928301206000818152600190935291205490915060ff16156105355760405162461bcd60e51b815260206004820152602860248201527f43726564656e7469616c5374617475733a206475706c69636174652063726564604482015267195b9d1a585b125960c21b6064820152608401610139565b33600081815260036020908152604080832080546001808201909255825160c0810184529586528584018a81528684018a90526060870189905242608088015260a087018290528786529385905291909320845181546001600160a01b0319166001600160a01b0390911617815591519093928201906105b59082610a73565b5060408201516002820155606082015160038201906105d49082610a73565b506080820151600482015560a090910151600590910155600082815260016020819052604091829020805460ff1916909117905551610614908690610b33565b6040518091039020336001600160a01b0316837f137c26efa4a926ff744e78adf44a995e10a6e82fa07d3770dcba05fa8f700aa78787864260405161065c9493929190610b4f565b60405180910390a4509392505050565b60008281526001602052604090205460ff1661069a5760405162461bcd60e51b815260040161013990610922565b604080518215158152426020820152339184917f46072712d99fa0eda6705aa9e4425278f15cdba456198adcb548bf83a50901ef910160405180910390a35050565b6000602082840312156106ee57600080fd5b5035919050565b60005b838110156107105781810151838201526020016106f8565b50506000910152565b600081518084526107318160208601602086016106f5565b601f01601f19169290920160200192915050565b602080825282516001600160a01b03168282015282015160c0604083015260009061077360e0840182610719565b9050604084015160608401526060840151601f1984830301608085015261079a8282610719565b915050608084015160a084015260a084015160c08401528091505092915050565b600080604083850312156107ce57600080fd5b50508035926020909101359150565b634e487b7160e01b600052604160045260246000fd5b600082601f83011261080457600080fd5b813567ffffffffffffffff8082111561081f5761081f6107dd565b604051601f8301601f19908116603f01168101908282118183101715610847576108476107dd565b8160405283815286602085880101111561086057600080fd5b836020870160208301376000602085830101528094505050505092915050565b60008060006060848603121561089557600080fd5b833567ffffffffffffffff808211156108ad57600080fd5b6108b9878388016107f3565b94506020860135935060408601359150808211156108d657600080fd5b506108e3868287016107f3565b9150509250925092565b6000806040838503121561090057600080fd5b823591506020830135801515811461091757600080fd5b809150509250929050565b60208082526026908201527f43726564656e7469616c5374617475733a2043726564656e7469616c206e6f7460408201526508199bdd5b9960d21b606082015260800190565b634e487b7160e01b600052601260045260246000fd5b60008261098d5761098d610968565b500490565b6000826109a1576109a1610968565b500690565b600181811c908216806109ba57607f821691505b6020821081036109da57634e487b7160e01b600052602260045260246000fd5b50919050565b6bffffffffffffffffffffffff198560601b16815260008451610a0a8160148501602089016106f5565b909101601481019390935250603482015260540192915050565b601f821115610a6e57600081815260208120601f850160051c81016020861015610a4b5750805b601f850160051c820191505b81811015610a6a57828155600101610a57565b5050505b505050565b815167ffffffffffffffff811115610a8d57610a8d6107dd565b610aa181610a9b84546109a6565b84610a24565b602080601f831160018114610ad65760008415610abe5750858301515b600019600386901b1c1916600185901b178555610a6a565b600085815260208120601f198616915b82811015610b0557888601518255948401946001909101908401610ae6565b5085821015610b235787850151600019600388901b60f8161c191681555b5050505050600190811b01905550565b60008251610b458184602087016106f5565b9190910192915050565b848152608060208201526000610b686080830186610719565b604083019490945250606001529291505056fea26469706673582212204fab4b0a90e4194e5f2ca946c741e15478c96ca58303e31977bf7f4ff0189b3364736f6c63430008140033",
  "linkReferences": {},
  "deployedLinkReferences": {}
}