{
  "_format": "hh-sol-artifact-1",
  "contractName": "CredentialStatus",
  "sourceName": "contracts/CredentialStatus.sol",
  "abi": [
    {
      "anonymous": false,
      "inputs": [
        {
          "indexed": true,
          "internalType": "bytes32",
          "name": "credentialId",
          "type": "bytes32"
        },
        {
          "indexed": true,
          "internalType": "address",
          "name": "issuer",
          "type": "address"
        },
        {
          "indexed": true,
          "internalType": "string",
          "name": "subjectDID",
          "type": "string"
        },
        {
          "indexed": false,
          "internalType": "bytes32",
          "name": "credentialHash",
          "type": "bytes32"
        },
        {
          "indexed": false,
          "internalType": "string",
          "name": "ipfsCID",
          "type": "string"
        },
        {
          "indexed": false,
          "internalType": "uint256",
          "name": "statusIndex",
          "type": "uint256"
        },
        {
          "indexed": false,
          "internalType": "uint256",
          "name": "timestamp",
          "type": "uint256"
        }
      ],
      "name": "CredentialIssued",
      "type": "event"
    },
    {
      "anonymous": false,
      "inputs": [
        {
          "indexed": true,
          "internalType": "bytes32",
          "name": "credentialId",
          "type": "bytes32"
        },
        {
          "indexed": true,
          "internalType": "address",
          "name": "issuer",
          "type": "address"
        },
        {
          "indexed": false,
          "internalType": "uint256",
          "name": "statusIndex",
          "type": "uint256"
        },
        {
          "indexed": false,
          "internalType": "uint256",
          "name": "timestamp",
          "type": "uint256"
        }
      ],
      "name": "CredentialRevoked",
      "type": "event"
    },
    {
      "anonymous": false,
      "inputs": [
        {
          "indexed": true,
          "internalType": "bytes32",
          "name": "credentialId",
          "type": "bytes32"
        },
        {
          "indexed": true,
          "internalType": "address",
          "name": "verifier",
          "type": "address"
        },
        {
          "indexed": false,
          "internalType": "bool",
          "name": "result",
          "type": "bool"
        },
        {
          "indexed": false,
          "internalType": "uint256",
          "name": "timestamp",
          "type": "uint256"
        }
      ],
      "name": "VerificationLogged",
      "type": "event"
    },
    {
      "inputs": [
        {
          "internalType": "bytes32",
          "name": "credentialId",
          "type": "bytes32"
        }
      ],
      "name": "getCredentialAnchor",
      "outputs": [
        {
          "components": [
            {
              "internalType": "address",
              "name": "issuer",
              "type": "address"
            },
            {
              "internalType": "string",
              "name": "subjectDID",
              "type": "string"
            },
            {
              "internalType": "bytes32",
              "name": "credentialHash",
              "type": "bytes32"
            },
            {
              "internalType": "string",
              "name": "ipfsCID",
              "type": "string"
            },
            {
              "internalType": "uint256",
              "name": "issuedAt",
              "type": "uint256"
            },
            {
              "internalType": "uint256",
              "name": "statusIndex",
              "type": "uint256"
            }
          ],
          "internalType": "struct CredentialStatus.CredentialAnchor",
          "name": "",
          "type": "tuple"
        }
      ],
      "stateMutability": "view",
      "type": "function"
    },
    {
      "inputs": [
        {
          "internalType": "bytes32",
          "name": "credentialId",
          "type": "bytes32"
        }
      ],
      "name": "isRevoked",
      "outputs": [
        {
          "internalType": "bool",
          "name": "",
          "type": "bool"
        }
      ],
      "stateMutability": "view",
      "type": "function"
    },
    {
      "inputs": [
        {
          "internalType": "string",
          "name": "subjectDID",
          "type": "string"
        },
        {
          "internalType": "bytes32",
          "name": "credentialHash",
          "type": "bytes32"
        },
        {
          "internalType": "string",
          "name": "ipfsCID",
          "type": "string"
        }
      ],
      "name": "issueCredential",
      "outputs": [
        {
          "internalType": "bytes32",
          "name": "credentialId",
          "type": "bytes32"
        }
      ],
      "stateMutability": "nonpayable",
      "type": "function"
    },
    {
      "inputs": [
        {
          "internalType": "bytes32",
          "name": "credentialId",
          "type": "bytes32"
        },
        {
          "internalType": "bool",
          "name": "result",
          "type": "bool"
        }
      ],
      "name": "logVerification",
      "outputs": [],
      "stateMutability": "nonpayable",
      "type": "function"
    },
    {
      "inputs": [
        {
          "internalType": "bytes32",
          "name": "credentialId",
          "type": "bytes32"
        }
      ],
      "name": "revokeCredential",
      "outputs": [],
      "stateMutability": "nonpayable",
      "type": "function"
    },
    {
      "inputs": [
        {
          "internalType": "bytes32",
          "name": "credentialId",
          "type": "bytes32"
        },
        {
          "internalType": "bytes32",
          "name": "computedHash",
          "type": "bytes32"
        }
      ],
      "name": "verifyCredentialIntegrity",
      "outputs": [
        {
          "internalType": "bool",
          "name": "",
          "type": "bool"
        }
      ],
      "stateMutability": "view",
      "type": "function"
    }
  ],
  "bytecode": "0x608060405234801561001057600080fd5b50610cbc806100206000396000f3fe608060405234801561001057600080fd5b50600436106100625760003560e01c80634294857f146100675780635949f5fe1461008f578063be9b3f49146100af578063ca6eec78146100c2578063d09080da146100d7578063f5946c09146100f8575b600080fd5b61007a6100753660046107e7565b61010b565b60405190151581526020015b60405180910390f35b6100a261009d3660046107e7565b6101ba565b6040516100869190610850565b61007a6100bd3660046108c6565b6103a0565b6100d56100d03660046107e7565b6103e6565b005b6100ea6100e536600461098b565b61059e565b604051908152602001610086565b6100d56101063660046109f8565b610777565b60008181526001602052604081205460ff166101425760405162461bcd60e51b815260040161013990610a2d565b60405180910390fd5b600082815260208190526040812060058101548154919290916001600160a01b03169061017161010084610a89565b9050600061018161010085610a9d565b6001600160a01b03909316600090815260026020908152604080832094835293905291909120546001921c821690911495945050505050565b6101ff6040518060c0016040528060006001600160a01b0316815260200160608152602001600080191681526020016060815260200160008152602001600081525090565b60008281526001602052604090205460ff1661022d5760405162461bcd60e51b815260040161013990610a2d565b60008281526020818152604091829020825160c0810190935280546001600160a01b03168352600181018054919284019161026790610ab1565b80601f016020809104026020016040519081016040528092919081815260200182805461029390610ab1565b80156102e05780601f106102b5576101008083540402835291602001916102e0565b820191906000526020600020905b8154815290600101906020018083116102c357829003601f168201915b505050505081526020016002820154815260200160038201805461030390610ab1565b80601f016020809104026020016040519081016040528092919081815260200182805461032f90610ab1565b801561037c5780601f106103515761010080835404028352916020019161037c565b820191906000526020600020905b81548152906001019060200180831161035f57829003601f168201915b50505050508152602001600482015481526020016005820154815250509050919050565b60008281526001602052604081205460ff166103ce5760405162461bcd60e51b815260040161013990610a2d565b50600091825260208290526040909120600201541490565b600081815260016020526040902054819060ff166104165760405162461bcd60e51b815260040161013990610a2d565b6000818152602081905260409020546001600160a01b0316331461048f5760405162461bcd60e51b815260206004820152602a60248201527f43726564656e7469616c5374617475733a2043616c6c6572206973206e6f74206044820152693a34329034b9b9bab2b960b11b6064820152608401610139565b600082815260208190526040812060050154906104ae61010083610a89565b905060006104be61010084610a9d565b3360009081526002602090815260408083208684529091529020549091506001821b908082161561053b5760405162461bcd60e51b815260206004820152602160248201527f43726564656e7469616c5374617475733a20616c7265616479207265766f6b656044820152601960fa1b6064820152608401610139565b33600081815260026020908152604080832088845282529182902085851790558151888152429181019190915289917f2669766eeb905754ac56c86ff8d8892841a68613c650515052586c4bdb939d49910160405180910390a350505050505050565b6000338484426040516020016105b79493929190610aeb565b60408051601f1981840301815291815281516020928301206000818152600190935291205490915060ff16156106405760405162461bcd60e51b815260206004820152602860248201527f43726564656e7469616c5374617475733a206475706c69636174652063726564604482015267195b9d1a585b125960c21b6064820152608401610139565b33600081815260036020908152604080832080546001808201909255825160c0810184529586528584018a81528684018a90526060870189905242608088015260a087018290528786529385905291909320845181546001600160a01b0319166001600160a01b0390911617815591519093928201906106c09082610b7e565b5060408201516002820155606082015160038201906106df9082610b7e565b506080820151600482015560a090910151600590910155600082815260016020819052604091829020805460ff191690911790555161071f908690610c3e565b6040518091039020336001600160a01b0316837f137c26efa4a926ff744e78adf44a995e10a6e82fa07d3770dcba05fa8f700aa7878786426040516107679493929190610c5a565b60405180910390a4509392505050565b60008281526001602052604090205460ff166107a55760405162461bcd60e51b815260040161013990610a2d565b604080518215158152426020820152339184917f46072712d99fa0eda6705aa9e4425278f15cdba456198adcb548bf83a50901ef910160405180910390a35050565b6000602082840312156107f957600080fd5b5035919050565b60005b8381101561081b578181015183820152602001610803565b50506000910152565b6000815180845261083c816020860160208601610800565b601f01601f19169290920160200192915050565b602080825282516001600160a01b03168282015282015160c0604083015260009061087e60e0840182610824565b9050604084015160608401526060840151601f198483030160808501526108a58282610824565b915050608084015160a084015260a084015160c08401528091505092915050565b600080604083850312156108d957600080fd5b50508035926020909101359150565b634e487b7160e01b600052604160045260246000fd5b600082601f83011261090f57600080fd5b813567ffffffffffffffff8082111561092a5761092a6108e8565b604051601f8301601f19908116603f01168101908282118183101715610952576109526108e8565b8160405283815286602085880101111561096b57600080fd5b836020870160208301376000602085830101528094505050505092915050565b6000806000606084860312156109a057600080fd5b833567ffffffffffffffff808211156109b857600080fd5b6109c4878388016108fe565b94506020860135935060408601359150808211156109e157600080fd5b506109ee868287016108fe565b9150509250925092565b60008060408385031215610a0b57600080fd5b8235915060208301358015158114610a2257600080fd5b809150509250929050565b60208082526026908201527f43726564656e7469616c5374617475733a2043726564656e7469616c206e6f7460408201526508199bdd5b9960d21b606082015260800190565b634e487b7160e01b600052601260045260246000fd5b600082610a9857610a98610a73565b500490565b600082610aac57610aac610a73565b500690565b600181811c90821680610ac557607f821691505b602082108103610ae557634e487b7160e01b600052602260045260246000fd5b50919050565b6bffffffffffffffffffffffff198560601b16815260008451610b15816014850160208901610800565b909101601481019390935250603482015260540192915050565b601f821115610b7957600081815260208120601f850160051c81016020861015610b565750805b601f850160051c820191505b81811015610b7557828155600101610b62565b5050505b505050565b815167ffffffffffffffff811115610b9857610b986108e8565b610bac81610ba68454610ab1565b84610b2f565b602080601f831160018114610be15760008415610bc95750858301515b600019600386901b1c1916600185901b178555610b75565b600085815260208120601f198616915b82811015610c1057888601518255948401946001909101908401610bf1565b5085821015610c2e5787850151600019600388901b60f8161c191681555b5050505050600190811b01905550565b60008251610c50818460208701610800565b9190910192915050565b848152608060208201526000610c736080830186610824565b604083019490945250606001529291505056fea2646970667358221220e6378a62a64f85b6598ec6149f38a090676751bb78efbf53eb46fad5da000fd464736f6c63430008140033",
  "linkReferences": {},
  "deployedLinkReferences": {}
}