{
  "_format": "hh-sol-artifact-1",
  "contractName": "DIDRegistry",
  "sourceName": "contracts/DIDRegistry.sol",
  "abi": [
    {
      "anonymous": false,
      "inputs": [
        {
          "indexed": true,
          "internalType": "string",
          "name": "did",
          "type": "string"
        },
        {
          "indexed": true,
          "internalType": "address",
          "name": "controller",
          "type": "address"
        },
        {
          "indexed": false,
          "internalType": "uint256",
          "name": "timestamp",
          "type": "uint256"
        }
      ],
      "name": "DIDDeactivated",
      "type": "event"
    },
    {
      "anonymous": false,
      "inputs": [
        {
          "indexed": true,
          "internalType": "string",
          "name": "did",
          "type": "string"
        },
        {
          "indexed": true,
          "internalType": "address",
          "name": "controller",
          "type": "address"
        },
        {
          "indexed": false,
          "internalType": "uint256",
          "name": "timestamp",
          "type": "uint256"
        }
      ],
      "name": "DIDRegistered",
      "type": "event"
    },
    {
      "anonymous": false,
      "inputs": [
        {
          "indexed": true,
          "internalType": "string",
          "name": "did",
          "type": "string"
        },
        {
          "indexed": true,
          "internalType": "address",
          "name": "controller",
          "type": "address"
        },
        {
          "indexed": false,
          "internalType": "uint256",
          "name": "timestamp",
          "type": "uint256"
        }
      ],
      "name": "DIDUpdated",
      "type": "event"
    },
    {
      "inputs": [
        {
          "internalType": "string",
          "name": "did",
          "type": "string"
        },
        {
          "components": [
            {
              "internalType": "string",
              "name": "keyId",
              "type": "string"
            },
            {
              "internalType": "string",
              "name": "keyType",
              "type": "string"
            },
            {
              "internalType": "address",
              "name": "controller",
              "type": "address"
            },
            {
              "internalType": "string",
              "name": "publicKeyHex",
              "type": "string"
            }
          ],
          "internalType": "struct DIDRegistry.PublicKey",
          "name": "newKey",
          "type": "tuple"
        }
      ],
      "name": "addPublicKey",
      "outputs": [],
      "stateMutability": "nonpayable",
      "type": "function"
    },
    {
      "inputs": [
        {
          "internalType": "string",
          "name": "did",
          "type": "string"
        },
        {
          "components": [
            {
              "internalType": "string",
              "name": "serviceId",
              "type": "string"
            },
            {
              "internalType": "string",
              "name": "serviceType",
              "type": "string"
            },
            {
              "internalType": "string",
              "name": "endpoint",
              "type": "string"
            }
          ],
          "internalType": "struct DIDRegistry.ServiceEndpoint",
          "name": "service",
          "type": "tuple"
        }
      ],
      "name": "addServiceEndpoint",
      "outputs": [],
      "stateMutability": "nonpayable",
      "type": "function"
    },
    {
      "inputs": [
        {
          "internalType": "string",
          "name": "did",
          "type": "string"
        }
      ],
      "name": "deactivateDID",
      "outputs": [],
      "stateMutability": "nonpayable",
      "type": "function"
    },
    {
      "inputs": [
        {
          "internalType": "address",
          "name": "controller",
          "type": "address"
        }
      ],
      "name": "getDIDsByController",
      "outputs": [
        {
          "internalType": "string[]",
          "name": "",
          "type": "string[]"
        }
      ],
      "stateMutability": "view",
      "type": "function"
    },
    {
      "inputs": [
        {
          "internalType": "string",
          "name": "did",
          "type": "string"
        }
      ],
      "name": "isDIDActive",
      "outputs": [
        {
          "internalType": "bool",
          "name": "",
          "type": "bool"
        }
      ],
      "stateMutability": "view",
      "type": "function"
    },
    {
      "inputs": [
        {
          "internalType": "string",
          "name": "did",
          "type": "string"
        },
        {
          "components": [
            {
              "internalType": "string",
              "name": "keyId",
              "type": "string"
            },
            {
              "internalType": "string",
              "name": "keyType",
              "type": "string"
            },
            {
              "internalType": "address",
              "name": "controller",
              "type": "address"
            },
            {
              "internalType": "string",
              "name": "publicKeyHex",
              "type": "string"
            }
          ],
          "internalType": "struct DIDRegistry.PublicKey",
          "name": "initialPublicKey",
          "type": "tuple"
        },
        {
          "components": [
            {
              "internalType": "string",
              "name": "serviceId",
              "type": "string"
            },
            {
              "internalType": "string",
              "name": "serviceType",
              "type": "string"
            },
            {
              "internalType": "string",
              "name": "endpoint",
              "type": "string"
            }
          ],
          "internalType": "struct DIDRegistry.ServiceEndpoint",
          "name": "initialService",
          "type": "tuple"
        }
      ],
      "name": "registerDID",
      "outputs": [],
      "stateMutability": "nonpayable",
      "type": "function"
    },
    {
      "inputs": [
        {
          "internalType": "string",
          "name": "did",
          "type": "string"
        }
      ],
      "name": "resolveDID",
      "outputs": [
        {
          "components": [
            {
              "internalType": "address",
              "name": "controller",
              "type": "address"
            },
            {
              "internalType": "uint256",
              "name": "created",
              "type": "uint256"
            },
            {
              "internalType": "uint256",
              "name": "updated",
              "type": "uint256"
            },
            {
              "internalType": "bool",
              "name": "active",
              "type": "bool"
            },
            {
              "components": [
                {
                  "internalType": "string",
                  "name": "keyId",
                  "type": "string"
                },
                {
                  "internalType": "string",
                  "name": "keyType",
                  "type": "string"
                },
                {
                  "internalType": "address",
                  "name": "controller",
                  "type": "address"
                },
                {
                  "internalType": "string",
                  "name": "publicKeyHex",
                  "type": "string"
                }
              ],
              "internalType": "struct DIDRegistry.PublicKey[]",
              "name": "publicKeys",
              "type": "tuple[]"
            },
            {
              "components": [
                {
                  "internalType": "string",
                  "name": "serviceId",
                  "type": "string"
                },
                {
                  "internalType": "string",
                  "name": "serviceType",
                  "type": "string"
                },
                {
                  "internalType": "string",
                  "name": "endpoint",
                  "type": "string"
                }
              ],
              "internalType": "struct DIDRegistry.ServiceEndpoint[]",
              "name": "serviceEndpoints",
              "type": "tuple[]"
            }
          ],
          "internalType": "struct DIDRegistry.DIDDocument",
          "name": "",
          "type": "tuple"
        }
      ],
      "stateMutability": "view",
      "type": "function"
    }
  ],
  "bytecode": "0x608060405234801561001057600080fd5b5061193b806100206000396000f3fe608060405234801561001057600080fd5b506004361061007d5760003560e01c80636d78a6771161005b5780636d78a677146100d25780639cd187f5146100e55780639d7f0bbf146100f8578063b363cff31461011857600080fd5b80630460d92a1461008257806320c9d73a146100975780633b253b23146100bf575b600080fd5b610095610090366004611232565b610138565b005b6100aa6100a5366004611296565b610417565b60405190151581526020015b60405180910390f35b6100956100cd366004611296565b610474565b6100956100e0366004611382565b6105c6565b6100956100f33660046113dc565b610808565b61010b610106366004611296565b610aa4565b6040516100b6919061154a565b61012b61012636600461165b565b610fc4565b6040516100b6919061167d565b8160018160405161014991906116df565b9081526040519081900360200190205460ff166101815760405162461bcd60e51b8152600401610178906116fb565b60405180910390fd5b336001600160a01b031660008260405161019b91906116df565b908152604051908190036020019020546001600160a01b0316146101d15760405162461bcd60e51b815260040161017890611732565b6000816040516101e191906116df565b9081526040519081900360200190206003015460ff166102135760405162461bcd60e51b815260040161017890611777565b8151516102625760405162461bcd60e51b815260206004820152601860248201527f44494452656769737472793a20656d707479206b6579496400000000000000006044820152606401610178565b6000826020015151116102b75760405162461bcd60e51b815260206004820152601a60248201527f44494452656769737472793a20656d707479206b6579547970650000000000006044820152606401610178565b60408201516001600160a01b0316331461031f5760405162461bcd60e51b8152602060048201526024808201527f44494452656769737472793a206b657920636f6e74726f6c6c6572206d69736d6044820152630c2e8c6d60e31b6064820152608401610178565b6000808460405161033091906116df565b90815260405160209181900382019020600480820180546001810182556000918252939020865192945086939091020190819061036d9082611845565b50602082015160018201906103829082611845565b5060408201516002820180546001600160a01b0319166001600160a01b03909216919091179055606082015160038201906103bd9082611845565b50504260028301555060405133906103d69086906116df565b604051908190038120428252907f42c534984d94b2e4102caa5b874e5f3edd48af284d3095c79c4aa7eeca5164e5906020015b60405180910390a350505050565b600060018260405161042991906116df565b9081526040519081900360200190205460ff1661044857506000919050565b60008260405161045891906116df565b9081526040519081900360200190206003015460ff1692915050565b8060018160405161048591906116df565b9081526040519081900360200190205460ff166104b45760405162461bcd60e51b8152600401610178906116fb565b336001600160a01b03166000826040516104ce91906116df565b908152604051908190036020019020546001600160a01b0316146105045760405162461bcd60e51b815260040161017890611732565b60008160405161051491906116df565b9081526040519081900360200190206003015460ff166105465760405162461bcd60e51b815260040161017890611777565b6000808360405161055791906116df565b90815260405190819003602001812060038101805460ff19169055426002820155915033906105879085906116df565b604051908190038120428252907f350825843b22939d489c861b0713f74681d5f60d3f92b89b839e2b2928baed3e9060200160405180910390a3505050565b816001816040516105d791906116df565b9081526040519081900360200190205460ff166106065760405162461bcd60e51b8152600401610178906116fb565b336001600160a01b031660008260405161062091906116df565b908152604051908190036020019020546001600160a01b0316146106565760405162461bcd60e51b815260040161017890611732565b60008160405161066691906116df565b9081526040519081900360200190206003015460ff166106985760405162461bcd60e51b815260040161017890611777565b8151516106e75760405162461bcd60e51b815260206004820152601c60248201527f44494452656769737472793a20656d70747920736572766963654964000000006044820152606401610178565b60008260200151511161073c5760405162461bcd60e51b815260206004820152601e60248201527f44494452656769737472793a20656d70747920736572766963655479706500006044820152606401610178565b6000826040015151116107915760405162461bcd60e51b815260206004820152601b60248201527f44494452656769737472793a20656d70747920656e64706f696e7400000000006044820152606401610178565b600080846040516107a291906116df565b90815260405160209181900382019020600581018054600181018255600091825292902085519193508592600302019081906107de9082611845565b50602082015160018201906107f39082611845565b50604082015160028201906103bd9082611845565b60008351116108525760405162461bcd60e51b8152602060048201526016602482015275111251149959da5cdd1c9e4e88195b5c1d1e4811125160521b6044820152606401610178565b60018360405161086291906116df565b9081526040519081900360200190205460ff16156108ce5760405162461bcd60e51b815260206004820152602360248201527f44494452656769737472793a2044494420616c726561647920726567697374656044820152621c995960ea1b6064820152608401610178565b600080846040516108df91906116df565b90815260405190819003602090810190912080546001600160a01b03191633178155426001808301829055600283019190915560038201805460ff19168217905560048083018054928301815560009081529390932086519294508693919091020190819061094e9082611845565b50602082015160018201906109639082611845565b5060408201516002820180546001600160a01b0319166001600160a01b039092169190911790556060820151600382019061099e9082611845565b5050825151159050610a055760058101805460018101825560009182526020909120835184926003029091019081906109d79082611845565b50602082015160018201906109ec9082611845565b5060408201516002820190610a019082611845565b5050505b60018085604051610a1691906116df565b9081526040805160209281900383019020805460ff191693151593909317909255336000908152600282529182208054600181018255908352912001610a5c8582611845565b506040513390610a6d9086906116df565b604051908190038120428252907f2247d854a9f35bfa7df0a5fd500079f0ceb7a58d0c7ad79f1c49d1a4d27eae4a90602001610409565b610ae86040518060c0016040528060006001600160a01b03168152602001600081526020016000815260200160001515815260200160608152602001606081525090565b600182604051610af891906116df565b9081526040519081900360200190205460ff16610b275760405162461bcd60e51b8152600401610178906116fb565b600082604051610b3791906116df565b90815260408051918290036020908101832060c08401835280546001600160a01b03168452600181015484830152600281015484840152600381015460ff16151560608501526004810180548451818502810185019095528085529193608086019390929060009084015b82821015610da15783829060005260206000209060040201604051806080016040529081600082018054610bd5906117bc565b80601f0160208091040260200160405190810160405280929190818152602001828054610c01906117bc565b8015610c4e5780601f10610c2357610100808354040283529160200191610c4e565b820191906000526020600020905b815481529060010190602001808311610c3157829003601f168201915b50505050508152602001600182018054610c67906117bc565b80601f0160208091040260200160405190810160405280929190818152602001828054610c93906117bc565b8015610ce05780601f10610cb557610100808354040283529160200191610ce0565b820191906000526020600020905b815481529060010190602001808311610cc357829003601f168201915b505050918352505060028201546001600160a01b03166020820152600382018054604090920191610d10906117bc565b80601f0160208091040260200160405190810160405280929190818152602001828054610d3c906117bc565b8015610d895780601f10610d5e57610100808354040283529160200191610d89565b820191906000526020600020905b815481529060010190602001808311610d6c57829003601f168201915b50505050508152505081526020019060010190610ba2565b50505050815260200160058201805480602002602001604051908101604052809291908181526020016000905b82821015610fb65783829060005260206000209060030201604051806060016040529081600082018054610e01906117bc565b80601f0160208091040260200160405190810160405280929190818152602001828054610e2d906117bc565b8015610e7a5780601f10610e4f57610100808354040283529160200191610e7a565b820191906000526020600020905b815481529060010190602001808311610e5d57829003601f168201915b50505050508152602001600182018054610e93906117bc565b80601f0160208091040260200160405190810160405280929190818152602001828054610ebf906117bc565b8015610f0c5780601f10610ee157610100808354040283529160200191610f0c565b820191906000526020600020905b815481529060010190602001808311610eef57829003601f168201915b50505050508152602001600282018054610f25906117bc565b80601f0160208091040260200160405190810160405280929190818152602001828054610f51906117bc565b8015610f9e5780601f10610f7357610100808354040283529160200191610f9e565b820191906000526020600020905b815481529060010190602001808311610f8157829003601f168201915b50505050508152505081526020019060010190610dce565b505050915250909392505050565b6001600160a01b0381166000908152600260209081526040808320805482518185028101850190935280835260609492939192909184015b828210156110a857838290600052602060002001805461101b906117bc565b80601f0160208091040260200160405190810160405280929190818152602001828054611047906117bc565b80156110945780601f1061106957610100808354040283529160200191611094565b820191906000526020600020905b81548152906001019060200180831161107757829003601f168201915b505050505081526020019060010190610ffc565b505050509050919050565b634e487b7160e01b600052604160045260246000fd5b600082601f8301126110da57600080fd5b813567ffffffffffffffff808211156110f5576110f56110b3565b604051601f8301601f19908116603f0116810190828211818310171561111d5761111d6110b3565b8160405283815286602085880101111561113657600080fd5b836020870160208301376000602085830101528094505050505092915050565b80356001600160a01b038116811461116d57600080fd5b919050565b60006080828403121561118457600080fd5b6040516080810167ffffffffffffffff82821081831117156111a8576111a86110b3565b8160405282935084359150808211156111c057600080fd5b6111cc868387016110c9565b835260208501359150808211156111e257600080fd5b6111ee868387016110c9565b60208401526111ff60408601611156565b6040840152606085013591508082111561121857600080fd5b50611225858286016110c9565b6060830152505092915050565b6000806040838503121561124557600080fd5b823567ffffffffffffffff8082111561125d57600080fd5b611269868387016110c9565b9350602085013591508082111561127f57600080fd5b5061128c85828601611172565b9150509250929050565b6000602082840312156112a857600080fd5b813567ffffffffffffffff8111156112bf57600080fd5b6112cb848285016110c9565b949350505050565b6000606082840312156112e557600080fd5b6040516060810167ffffffffffffffff8282108183111715611309576113096110b3565b81604052829350843591508082111561132157600080fd5b61132d868387016110c9565b8352602085013591508082111561134357600080fd5b61134f868387016110c9565b6020840152604085013591508082111561136857600080fd5b50611375858286016110c9565b6040830152505092915050565b6000806040838503121561139557600080fd5b823567ffffffffffffffff808211156113ad57600080fd5b6113b9868387016110c9565b935060208501359150808211156113cf57600080fd5b5061128c858286016112d3565b6000806000606084860312156113f157600080fd5b833567ffffffffffffffff8082111561140957600080fd5b611415878388016110c9565b9450602086013591508082111561142b57600080fd5b61143787838801611172565b9350604086013591508082111561144d57600080fd5b5061145a868287016112d3565b9150509250925092565b60005b8381101561147f578181015183820152602001611467565b50506000910152565b600081518084526114a0816020860160208601611464565b601f01601f19169290920160200192915050565b600081518084526020808501808196508360051b8101915082860160005b8581101561153d5782840389528151606081518187526114f482880182611488565b915050868201518682038888015261150c8282611488565b915050604080830151925086820381880152506115298183611488565b9a87019a95505050908401906001016114d2565b5091979650505050505050565b6000602080835260e0830160018060a01b0380865116838601528286015160408181880152808801519150606082818901528089015192506080831515818a0152808a0151935060c060a08a01528584518088526101009750878b019150878160051b8c01019750888601955060005b8181101561162d578b890360ff1901835286518051858b526115de868c0182611488565b90508b8201518b82038d8d01526115f58282611488565b915050898883015116888c01528682015191508a8103878c01526116198183611488565b9a50505095890195918901916001016115ba565b505050505050505060a08501519150601f198482030160c085015261165281836114b4565b95945050505050565b60006020828403121561166d57600080fd5b61167682611156565b9392505050565b6000602080830181845280855180835260408601915060408160051b870101925083870160005b828110156116d257603f198886030184526116c0858351611488565b945092850192908501906001016116a4565b5092979650505050505050565b600082516116f1818460208701611464565b9190910192915050565b6020808252601f908201527f44494452656769737472793a20444944206e6f74207265676973746572656400604082015260600190565b60208082526025908201527f44494452656769737472793a2043616c6c6572206973206e6f7420636f6e747260408201526437b63632b960d91b606082015260800190565b60208082526025908201527f44494452656769737472793a2044494420686173206265656e206465616374696040820152641d985d195960da1b606082015260800190565b600181811c908216806117d057607f821691505b6020821081036117f057634e487b7160e01b600052602260045260246000fd5b50919050565b601f82111561184057600081815260208120601f850160051c8101602086101561181d5750805b601f850160051c820191505b8181101561183c57828155600101611829565b5050505b505050565b815167ffffffffffffffff81111561185f5761185f6110b3565b6118738161186d84546117bc565b846117f6565b602080601f8311600181146118a857600084156118905750858301515b600019600386901b1c1916600185901b17855561183c565b600085815260208120601f198616915b828110156118d7578886015182559484019460019091019084016118b8565b50858210156118f55787850151600019600388901b60f8161c191681555b5050505050600190811b0190555056fea26469706673582212200ed44fb0c12ad16ef2c882dfee6414b67698c21f3ee200f7669b97c6dedc4af464736f6c63430008140033",
  "linkReferences": {},
  "deployedLinkReferences": {}
}