{
  "_format": "hh-sol-artifact-1",
  "contractName": "DIDRegistry",
  "sourceName": "contracts/DIDRegistry.sol",
  "abi": [
    {
      "anonymous": false,
      "inputs": [
        {
          "indexed": true,
          "internalType": "string",
          "name": "did",
          "type": "string"
        },
        {
          "indexed": true,
          "internalType": "address",
          "name": "controller",
          "type": "address"
        },
        {
          "indexed": false,
          "internalType": "uint256",
          "name": "timestamp",
          "type": "uint256"
        }
      ],
      "name": "DIDDeactivated",
      "type": "event"
    },
    {
      "anonymous": false,
      "inputs": [
        {
          "indexed": true,
          "internalType": "string",
          "name": "did",
          "type": "string"
        },
        {
          "indexed": true,
          "internalType": "address",
          "name": "controller",
          "type": "address"
        },
        {
          "indexed": false,
          "internalType": "uint256",
          "name": "timestamp",
          "type": "uint256"
        }
      ],
      "name": "DIDRegistered",
      "type": "event"
    },
    {
      "anonymous": false,
      "inputs": [
        {
          "indexed": true,
          "internalType": "string",
          "name": "did",
          "type": "string"
        },
        {
          "indexed": true,
          "internalType": "address",
          "name": "controller",
          "type": "address"
        },
        {
          "indexed": false,
          "internalType": "uint256",
          "name": "timestamp",
          "type": "uint256"
        }
      ],
      "name": "DIDUpdated",
      "type": "event"
    },
    {
      "inputs": [
        {
          "internalType": "string",
          "name": "did",
          "type": "string"
        },
        {
          "components": [
            {
              "internalType": "string",
              "name": "keyId",
              "type": "string"
            },
            {
              "internalType": "string",
              "name": "keyType",
              "type": "string"
            },
            {
              "internalType": "address",
              "name": "controller",
              "type": "address"
            },
            {
              "internalType": "string",
              "name": "publicKeyHex",
              "type": "string"
            }
          ],
          "internalType": "struct DIDRegistry.PublicKey",
          "name": "newKey",
          "type": "tuple"
        }
      ],
      "name": "addPublicKey",
      "outputs": [],
      "stateMutability": "nonpayable",
      "type": "function"
    },
    {
      "inputs": [
        {
          "internalType": "string",
          "name": "did",
          "type": "string"
        },
        {
          "components": [
            {
              "internalType": "string",
              "name": "serviceId",
              "type": "string"
            },
            {
              "internalType": "string",
              "name": "serviceType",
              "type": "string"
            },
            {
              "internalType": "string",
              "name": "endpoint",
              "type": "string"
            }
          ],
          "internalType": "struct DIDRegistry.ServiceEndpoint",
          "name": "service",
          "type": "tuple"
        }
      ],
      "name": "addServiceEndpoint",
      "outputs": [],
      "stateMutability": "nonpayable",
      "type": "function"
    },
    {
      "inputs": [
        {
          "internalType": "string",
          "name": "did",
          "type": "string"
        }
      ],
      "name": "deactivateDID",
      "outputs": [],
      "stateMutability": "nonpayable",
      "type": "function"
    },
    {
      "inputs": [
        {
          "internalType": "address",
          "name": "controller",
          "type": "address"
        }
      ],
      "name": "getDIDsByController",
      "outputs": [
        {
          "internalType": "string[]",
          "name": "",
          "type": "string[]"
        }
      ],
      "stateMutability": "view",
      "type": "function"
    },
    {
      "inputs": [
        {
          "internalType": "string",
          "name": "did",
          "type": "string"
        }
      ],
      "name": "isDIDActive",
      "outputs": [
        {
          "internalType": "bool",
          "name": "",
          "type": "bool"
        }
      ],
      "stateMutability": "view",
      "type": "function"
    },
    {
      "inputs": [
        {
          "internalType": "string",
          "name": "did",
          "type": "string"
        },
        {
          "components": [
            {
              "internalType": "string",
              "name": "keyId",
              "type": "string"
            },
            {
              "internalType": "string",
              "name": "keyType",
              "type": "string"
            },
            {
              "internalType": "address",
              "name": "controller",
              "type": "address"
            },
            {
              "internalType": "string",
              "name": "publicKeyHex",
              "type": "string"
            }
          ],
          "internalType": "struct DIDRegistry.PublicKey",
          "name": "initialPublicKey",
          "type": "tuple"
        },
        {
          "components": [
            {
              "internalType": "string",
              "name": "serviceId",
              "type": "string"
            },
            {
              "internalType": "string",
              "name": "serviceType",
              "type": "string"
            },
            {
              "internalType": "string",
              "name": "endpoint",
              "type": "string"
            }
          ],
          "internalType": "struct DIDRegistry.ServiceEndpoint",
          "name": "initialService",
          "type": "tuple"
        }
      ],
      "name": "registerDID",
      "outputs": [],
      "stateMutability": "nonpayable",
      "type": "function"
    },
    {
      "inputs": [
        {
          "internalType": "string",
          "name": "did",
          "type": "string"
        }
      ],
      "name": "resolveDID",
      "outputs": [
        {
          "components": [
            {
              "internalType": "address",
              "name": "controller",
              "type": "address"
            },
            {
              "internalType": "uint256",
              "name": "created",
              "type": "uint256"
            },
            {
              "internalType": "uint256",
              "name": "updated",
              "type": "uint256"
            },
            {
              "internalType": "bool",
              "name": "active",
              "type": "bool"
            },
            {
              "components": [
                {
                  "internalType": "string",
                  "name": "keyId",
                  "type": "string"
                },
                {
                  "internalType": "string",
                  "name": "keyType",
                  "type": "string"
                },
                {
                  "internalType": "address",
                  "name": "controller",
                  "type": "address"
                },
                {
                  "internalType": "string",
                  "name": "publicKeyHex",
                  "type": "string"
                }
              ],
              "internalType": "struct DIDRegistry.PublicKey[]",
              "name": "publicKeys",
              "type": "tuple[]"
            },
            {
              "components": [
                {
                  "internalType": "string",
                  "name": "serviceId",
                  "type": "string"
                },
                {
                  "internalType": "string",
                  "name": "serviceType",
                  "type": "string"
                },
                {
                  "internalType": "string",
                  "name": "endpoint",
                  "type": "string"
                }
              ],
              "internalType": "struct DIDRegistry.ServiceEndpoint[]",
              "name": "serviceEndpoints",
              "type": "tuple[]"
            }
          ],
          "internalType": "struct DIDRegistry.DIDDocument",
          "name": "",
          "type": "tuple"
        }
      ],
      "stateMutability": "view",
      "type": "function"
    }
  ],
  "bytecode": "0x608060405234801561001057600080fd5b50611481806100206000396000f3fe608060405234801561001057600080fd5b506004361061007d5760003560e01c80636d78a6771161005b5780636d78a677146100d25780639cd187f5146100e05780639d7f0bbf146100f3578063b363cff31461011357600080fd5b80630460d92a1461008257806320c9d73a146100975780633b253b23146100bf575b600080fd5b610095610090366004610d79565b610133565b005b6100aa6100a5366004610ddd565b610213565b60405190151581526020015b60405180910390f35b6100956100cd366004610ddd565b610270565b610095610090366004610ec9565b6100956100ee366004610f23565b610346565b610106610101366004610ddd565b6105eb565b6040516100b69190611091565b6101266101213660046111a2565b610b0b565b6040516100b691906111c4565b816001816040516101449190611226565b9081526040519081900360200190205460ff1661017c5760405162461bcd60e51b815260040161017390611242565b60405180910390fd5b336001600160a01b03166000826040516101969190611226565b908152604051908190036020019020546001600160a01b0316146101cc5760405162461bcd60e51b815260040161017390611279565b6000816040516101dc9190611226565b9081526040519081900360200190206003015460ff1661020e5760405162461bcd60e51b8152600401610173906112be565b505050565b60006001826040516102259190611226565b9081526040519081900360200190205460ff1661024457506000919050565b6000826040516102549190611226565b9081526040519081900360200190206003015460ff1692915050565b806001816040516102819190611226565b9081526040519081900360200190205460ff166102b05760405162461bcd60e51b815260040161017390611242565b336001600160a01b03166000826040516102ca9190611226565b908152604051908190036020019020546001600160a01b0316146103005760405162461bcd60e51b815260040161017390611279565b6000816040516103109190611226565b9081526040519081900360200190206003015460ff166103425760405162461bcd60e51b8152600401610173906112be565b5050565b60008351116103905760405162461bcd60e51b8152602060048201526016602482015275111251149959da5cdd1c9e4e88195b5c1d1e4811125160521b6044820152606401610173565b6001836040516103a09190611226565b9081526040519081900360200190205460ff161561040c5760405162461bcd60e51b815260206004820152602360248201527f44494452656769737472793a2044494420616c726561647920726567697374656044820152621c995960ea1b6064820152608401610173565b6000808460405161041d9190611226565b90815260405190819003602090810190912080546001600160a01b03191633178155426001808301829055600283019190915560038201805460ff19168217905560048083018054928301815560009081529390932086519294508693919091020190819061048c908261138b565b50602082015160018201906104a1908261138b565b5060408201516002820180546001600160a01b0319166001600160a01b03909216919091179055606082015160038201906104dc908261138b565b5050825151159050610543576005810180546001810182556000918252602090912083518492600302909101908190610515908261138b565b506020820151600182019061052a908261138b565b506040820151600282019061053f908261138b565b5050505b600180856040516105549190611226565b9081526040805160209281900383019020805460ff19169315159390931790925533600090815260028252918220805460018101825590835291200161059a858261138b565b5060405133906105ab908690611226565b604051908190038120428252907f2247d854a9f35bfa7df0a5fd500079f0ceb7a58d0c7ad79f1c49d1a4d27eae4a9060200160405180910390a350505050565b61062f6040518060c0016040528060006001600160a01b03168152602001600081526020016000815260200160001515815260200160608152602001606081525090565b60018260405161063f9190611226565b9081526040519081900360200190205460ff1661066e5760405162461bcd60e51b815260040161017390611242565b60008260405161067e9190611226565b90815260408051918290036020908101832060c08401835280546001600160a01b03168452600181015484830152600281015484840152600381015460ff16151560608501526004810180548451818502810185019095528085529193608086019390929060009084015b828210156108e8578382906000526020600020906004020160405180608001604052908160008201805461071c90611303565b80601f016020809104026020016040519081016040528092919081815260200182805461074890611303565b80156107955780601f1061076a57610100808354040283529160200191610795565b820191906000526020600020905b81548152906001019060200180831161077857829003601f168201915b505050505081526020016001820180546107ae90611303565b80601f01602080910402602001604051908101604052809291908181526020018280546107da90611303565b80156108275780601f106107fc57610100808354040283529160200191610827565b820191906000526020600020905b81548152906001019060200180831161080a57829003601f168201915b505050918352505060028201546001600160a01b0316602082015260038201805460409092019161085790611303565b80601f016020809104026020016040519081016040528092919081815260200182805461088390611303565b80156108d05780601f106108a5576101008083540402835291602001916108d0565b820191906000526020600020905b8154815290600101906020018083116108b357829003601f168201915b505050505081525050815260200190600101906106e9565b50505050815260200160058201805480602002602001604051908101604052809291908181526020016000905b82821015610afd578382906000526020600020906003020160405180606001604052908160008201805461094890611303565b80601f016020809104026020016040519081016040528092919081815260200182805461097490611303565b80156109c15780601f10610996576101008083540402835291602001916109c1565b820191906000526020600020905b8154815290600101906020018083116109a457829003601f168201915b505050505081526020016001820180546109da90611303565b80601f0160208091040260200160405190810160405280929190818152602001828054610a0690611303565b8015610a535780601f10610a2857610100808354040283529160200191610a53565b820191906000526020600020905b815481529060010190602001808311610a3657829003601f168201915b50505050508152602001600282018054610a6c90611303565b80601f0160208091040260200160405190810160405280929190818152602001828054610a9890611303565b8015610ae55780601f10610aba57610100808354040283529160200191610ae5565b820191906000526020600020905b815481529060010190602001808311610ac857829003601f168201915b50505050508152505081526020019060010190610915565b505050915250909392505050565b6001600160a01b0381166000908152600260209081526040808320805482518185028101850190935280835260609492939192909184015b82821015610bef578382906000526020600020018054610b6290611303565b80601f0160208091040260200160405190810160405280929190818152602001828054610b8e90611303565b8015610bdb5780601f10610bb057610100808354040283529160200191610bdb565b820191906000526020600020905b815481529060010190602001808311610bbe57829003601f168201915b505050505081526020019060010190610b43565b505050509050919050565b634e487b7160e01b600052604160045260246000fd5b600082601f830112610c2157600080fd5b813567ffffffffffffffff80821115610c3c57610c3c610bfa565b604051601f8301601f19908116603f01168101908282118183101715610c6457610c64610bfa565b81604052838152866020858801011115610c7d57600080fd5b836020870160208301376000602085830101528094505050505092915050565b80356001600160a01b0381168114610cb457600080fd5b919050565b600060808284031215610ccb57600080fd5b6040516080810167ffffffffffffffff8282108183111715610cef57610cef610bfa565b816040528293508435915080821115610d0757600080fd5b610d1386838701610c10565b83526020850135915080821115610d2957600080fd5b610d3586838701610c10565b6020840152610d4660408601610c9d565b60408401526060850135915080821115610d5f57600080fd5b50610d6c85828601610c10565b6060830152505092915050565b60008060408385031215610d8c57600080fd5b823567ffffffffffffffff80821115610da457600080fd5b610db086838701610c10565b93506020850135915080821115610dc657600080fd5b50610dd385828601610cb9565b9150509250929050565b600060208284031215610def57600080fd5b813567ffffffffffffffff811115610e0657600080fd5b610e1284828501610c10565b949350505050565b600060608284031215610e2c57600080fd5b6040516060810167ffffffffffffffff8282108183111715610e5057610e50610bfa565b816040528293508435915080821115610e6857600080fd5b610e7486838701610c10565b83526020850135915080821115610e8a57600080fd5b610e9686838701610c10565b60208401526040850135915080821115610eaf57600080fd5b50610ebc85828601610c10565b6040830152505092915050565b60008060408385031215610edc57600080fd5b823567ffffffffffffffff80821115610ef457600080fd5b610f0086838701610c10565b93506020850135915080821115610f1657600080fd5b50610dd385828601610e1a565b600080600060608486031215610f3857600080fd5b833567ffffffffffffffff80821115610f5057600080fd5b610f5c87838801610c10565b94506020860135915080821115610f7257600080fd5b610f7e87838801610cb9565b93506040860135915080821115610f9457600080fd5b50610fa186828701610e1a565b9150509250925092565b60005b83811015610fc6578181015183820152602001610fae565b50506000910152565b60008151808452610fe7816020860160208601610fab565b601f01601f19169290920160200192915050565b600081518084526020808501808196508360051b8101915082860160005b8581101561108457828403895281516060815181875261103b82880182610fcf565b91505086820151868203888801526110538282610fcf565b915050604080830151925086820381880152506110708183610fcf565b9a87019a9550505090840190600101611019565b5091979650505050505050565b6000602080835260e0830160018060a01b0380865116838601528286015160408181880152808801519150606082818901528089015192506080831515818a0152808a0151935060c060a08a01528584518088526101009750878b019150878160051b8c01019750888601955060005b81811015611174578b890360ff1901835286518051858b52611125868c0182610fcf565b90508b8201518b82038d8d015261113c8282610fcf565b915050898883015116888c01528682015191508a8103878c01526111608183610fcf565b9a5050509589019591890191600101611101565b505050505050505060a08501519150601f198482030160c08501526111998183610ffb565b95945050505050565b6000602082840312156111b457600080fd5b6111bd82610c9d565b9392505050565b6000602080830181845280855180835260408601915060408160051b870101925083870160005b8281101561121957603f19888603018452611207858351610fcf565b945092850192908501906001016111eb565b5092979650505050505050565b60008251611238818460208701610fab565b9190910192915050565b6020808252601f908201527f44494452656769737472793a20444944206e6f74207265676973746572656400604082015260600190565b60208082526025908201527f44494452656769737472793a2043616c6c6572206973206e6f7420636f6e747260408201526437b63632b960d91b606082015260800190565b60208082526025908201527f44494452656769737472793a2044494420686173206265656e206465616374696040820152641d985d195960da1b606082015260800190565b600181811c9082168061131757607f821691505b60208210810361133757634e487b7160e01b600052602260045260246000fd5b50919050565b601f82111561020e57600081815260208120601f850160051c810160208610156113645750805b601f850160051c820191505b8181101561138357828155600101611370565b505050505050565b815167ffffffffffffffff8111156113a5576113a5610bfa565b6113b9816113b38454611303565b8461133d565b602080601f8311600181146113ee57600084156113d65750858301515b600019600386901b1c1916600185901b178555611383565b600085815260208120601f198616915b8281101561141d578886015182559484019460019091019084016113fe565b508582101561143b5787850151600019600388901b60f8161c191681555b5050505050600190811b0190555056fea2646970667358221220781d2858fb58a493daaf72e7daead4ecd0b485806ddf441cd7232059502043eb64736f6c63430008140033",
  "linkReferences": {},
  "deployedLinkReferences": {}
}